{
	"contracts/NftV1Contract.sol": {
		"NftV1Collection": {
			"abi": [
				{
					"inputs": [
						{
							"internalType": "address",
							"name": "initialOwner",
							"type": "address"
						},
						{
							"internalType": "string",
							"name": "name",
							"type": "string"
						},
						{
							"internalType": "string",
							"name": "symbol",
							"type": "string"
						}
					],
					"stateMutability": "nonpayable",
					"type": "constructor"
				},
				{
					"inputs": [
						{
							"internalType": "address",
							"name": "sender",
							"type": "address"
						},
						{
							"internalType": "uint256",
							"name": "balance",
							"type": "uint256"
						},
						{
							"internalType": "uint256",
							"name": "needed",
							"type": "uint256"
						},
						{
							"internalType": "uint256",
							"name": "tokenId",
							"type": "uint256"
						}
					],
					"name": "ERC1155InsufficientBalance",
					"type": "error"
				},
				{
					"inputs": [
						{
							"internalType": "address",
							"name": "approver",
							"type": "address"
						}
					],
					"name": "ERC1155InvalidApprover",
					"type": "error"
				},
				{
					"inputs": [
						{
							"internalType": "uint256",
							"name": "idsLength",
							"type": "uint256"
						},
						{
							"internalType": "uint256",
							"name": "valuesLength",
							"type": "uint256"
						}
					],
					"name": "ERC1155InvalidArrayLength",
					"type": "error"
				},
				{
					"inputs": [
						{
							"internalType": "address",
							"name": "operator",
							"type": "address"
						}
					],
					"name": "ERC1155InvalidOperator",
					"type": "error"
				},
				{
					"inputs": [
						{
							"internalType": "address",
							"name": "receiver",
							"type": "address"
						}
					],
					"name": "ERC1155InvalidReceiver",
					"type": "error"
				},
				{
					"inputs": [
						{
							"internalType": "address",
							"name": "sender",
							"type": "address"
						}
					],
					"name": "ERC1155InvalidSender",
					"type": "error"
				},
				{
					"inputs": [
						{
							"internalType": "address",
							"name": "operator",
							"type": "address"
						},
						{
							"internalType": "address",
							"name": "owner",
							"type": "address"
						}
					],
					"name": "ERC1155MissingApprovalForAll",
					"type": "error"
				},
				{
					"inputs": [
						{
							"internalType": "address",
							"name": "owner",
							"type": "address"
						}
					],
					"name": "OwnableInvalidOwner",
					"type": "error"
				},
				{
					"inputs": [
						{
							"internalType": "address",
							"name": "account",
							"type": "address"
						}
					],
					"name": "OwnableUnauthorizedAccount",
					"type": "error"
				},
				{
					"anonymous": false,
					"inputs": [
						{
							"indexed": true,
							"internalType": "address",
							"name": "account",
							"type": "address"
						},
						{
							"indexed": true,
							"internalType": "address",
							"name": "operator",
							"type": "address"
						},
						{
							"indexed": false,
							"internalType": "bool",
							"name": "approved",
							"type": "bool"
						}
					],
					"name": "ApprovalForAll",
					"type": "event"
				},
				{
					"anonymous": false,
					"inputs": [
						{
							"indexed": true,
							"internalType": "address",
							"name": "previousOwner",
							"type": "address"
						},
						{
							"indexed": true,
							"internalType": "address",
							"name": "newOwner",
							"type": "address"
						}
					],
					"name": "OwnershipTransferred",
					"type": "event"
				},
				{
					"anonymous": false,
					"inputs": [
						{
							"indexed": true,
							"internalType": "address",
							"name": "operator",
							"type": "address"
						},
						{
							"indexed": true,
							"internalType": "address",
							"name": "from",
							"type": "address"
						},
						{
							"indexed": true,
							"internalType": "address",
							"name": "to",
							"type": "address"
						},
						{
							"indexed": false,
							"internalType": "uint256[]",
							"name": "ids",
							"type": "uint256[]"
						},
						{
							"indexed": false,
							"internalType": "uint256[]",
							"name": "values",
							"type": "uint256[]"
						}
					],
					"name": "TransferBatch",
					"type": "event"
				},
				{
					"anonymous": false,
					"inputs": [
						{
							"indexed": true,
							"internalType": "address",
							"name": "operator",
							"type": "address"
						},
						{
							"indexed": true,
							"internalType": "address",
							"name": "from",
							"type": "address"
						},
						{
							"indexed": true,
							"internalType": "address",
							"name": "to",
							"type": "address"
						},
						{
							"indexed": false,
							"internalType": "uint256",
							"name": "id",
							"type": "uint256"
						},
						{
							"indexed": false,
							"internalType": "uint256",
							"name": "value",
							"type": "uint256"
						}
					],
					"name": "TransferSingle",
					"type": "event"
				},
				{
					"anonymous": false,
					"inputs": [
						{
							"indexed": false,
							"internalType": "string",
							"name": "value",
							"type": "string"
						},
						{
							"indexed": true,
							"internalType": "uint256",
							"name": "id",
							"type": "uint256"
						}
					],
					"name": "URI",
					"type": "event"
				},
				{
					"inputs": [
						{
							"internalType": "address",
							"name": "account",
							"type": "address"
						},
						{
							"internalType": "uint256",
							"name": "id",
							"type": "uint256"
						}
					],
					"name": "balanceOf",
					"outputs": [
						{
							"internalType": "uint256",
							"name": "",
							"type": "uint256"
						}
					],
					"stateMutability": "view",
					"type": "function"
				},
				{
					"inputs": [
						{
							"internalType": "address[]",
							"name": "accounts",
							"type": "address[]"
						},
						{
							"internalType": "uint256[]",
							"name": "ids",
							"type": "uint256[]"
						}
					],
					"name": "balanceOfBatch",
					"outputs": [
						{
							"internalType": "uint256[]",
							"name": "",
							"type": "uint256[]"
						}
					],
					"stateMutability": "view",
					"type": "function"
				},
				{
					"inputs": [
						{
							"internalType": "address",
							"name": "account",
							"type": "address"
						},
						{
							"internalType": "address",
							"name": "operator",
							"type": "address"
						}
					],
					"name": "isApprovedForAll",
					"outputs": [
						{
							"internalType": "bool",
							"name": "",
							"type": "bool"
						}
					],
					"stateMutability": "view",
					"type": "function"
				},
				{
					"inputs": [
						{
							"internalType": "address",
							"name": "to",
							"type": "address"
						},
						{
							"internalType": "string",
							"name": "_tokenURI",
							"type": "string"
						},
						{
							"internalType": "uint256",
							"name": "value",
							"type": "uint256"
						}
					],
					"name": "mint",
					"outputs": [
						{
							"internalType": "uint256",
							"name": "",
							"type": "uint256"
						}
					],
					"stateMutability": "nonpayable",
					"type": "function"
				},
				{
					"inputs": [
						{
							"internalType": "address",
							"name": "to",
							"type": "address"
						},
						{
							"internalType": "string",
							"name": "_tokenURI",
							"type": "string"
						},
						{
							"internalType": "uint256",
							"name": "value",
							"type": "uint256"
						}
					],
					"name": "mintUniqueNFT",
					"outputs": [
						{
							"internalType": "uint256[]",
							"name": "",
							"type": "uint256[]"
						}
					],
					"stateMutability": "nonpayable",
					"type": "function"
				},
				{
					"inputs": [
						{
							"internalType": "address[]",
							"name": "to",
							"type": "address[]"
						},
						{
							"internalType": "string",
							"name": "_tokenURI",
							"type": "string"
						},
						{
							"internalType": "uint256",
							"name": "value",
							"type": "uint256"
						}
					],
					"name": "mintUniqueNFT",
					"outputs": [
						{
							"internalType": "uint256[]",
							"name": "",
							"type": "uint256[]"
						}
					],
					"stateMutability": "nonpayable",
					"type": "function"
				},
				{
					"inputs": [],
					"name": "name",
					"outputs": [
						{
							"internalType": "string",
							"name": "",
							"type": "string"
						}
					],
					"stateMutability": "view",
					"type": "function"
				},
				{
					"inputs": [],
					"name": "owner",
					"outputs": [
						{
							"internalType": "address",
							"name": "",
							"type": "address"
						}
					],
					"stateMutability": "view",
					"type": "function"
				},
				{
					"inputs": [],
					"name": "renounceOwnership",
					"outputs": [],
					"stateMutability": "nonpayable",
					"type": "function"
				},
				{
					"inputs": [
						{
							"internalType": "address",
							"name": "from",
							"type": "address"
						},
						{
							"internalType": "address",
							"name": "to",
							"type": "address"
						},
						{
							"internalType": "uint256[]",
							"name": "ids",
							"type": "uint256[]"
						},
						{
							"internalType": "uint256[]",
							"name": "values",
							"type": "uint256[]"
						},
						{
							"internalType": "bytes",
							"name": "data",
							"type": "bytes"
						}
					],
					"name": "safeBatchTransferFrom",
					"outputs": [],
					"stateMutability": "nonpayable",
					"type": "function"
				},
				{
					"inputs": [
						{
							"internalType": "address",
							"name": "from",
							"type": "address"
						},
						{
							"internalType": "address",
							"name": "to",
							"type": "address"
						},
						{
							"internalType": "uint256",
							"name": "id",
							"type": "uint256"
						},
						{
							"internalType": "uint256",
							"name": "value",
							"type": "uint256"
						},
						{
							"internalType": "bytes",
							"name": "data",
							"type": "bytes"
						}
					],
					"name": "safeTransferFrom",
					"outputs": [],
					"stateMutability": "nonpayable",
					"type": "function"
				},
				{
					"inputs": [
						{
							"internalType": "address",
							"name": "operator",
							"type": "address"
						},
						{
							"internalType": "bool",
							"name": "approved",
							"type": "bool"
						}
					],
					"name": "setApprovalForAll",
					"outputs": [],
					"stateMutability": "nonpayable",
					"type": "function"
				},
				{
					"inputs": [
						{
							"internalType": "string",
							"name": "newuri",
							"type": "string"
						}
					],
					"name": "setURI",
					"outputs": [],
					"stateMutability": "nonpayable",
					"type": "function"
				},
				{
					"inputs": [
						{
							"internalType": "bytes4",
							"name": "interfaceId",
							"type": "bytes4"
						}
					],
					"name": "supportsInterface",
					"outputs": [
						{
							"internalType": "bool",
							"name": "",
							"type": "bool"
						}
					],
					"stateMutability": "view",
					"type": "function"
				},
				{
					"inputs": [],
					"name": "symbol",
					"outputs": [
						{
							"internalType": "string",
							"name": "",
							"type": "string"
						}
					],
					"stateMutability": "view",
					"type": "function"
				},
				{
					"inputs": [],
					"name": "tokenId",
					"outputs": [
						{
							"internalType": "uint256",
							"name": "",
							"type": "uint256"
						}
					],
					"stateMutability": "view",
					"type": "function"
				},
				{
					"inputs": [
						{
							"internalType": "uint256",
							"name": "tokenId",
							"type": "uint256"
						}
					],
					"name": "tokenURI",
					"outputs": [
						{
							"internalType": "string",
							"name": "",
							"type": "string"
						}
					],
					"stateMutability": "view",
					"type": "function"
				},
				{
					"inputs": [
						{
							"internalType": "address",
							"name": "newOwner",
							"type": "address"
						}
					],
					"name": "transferOwnership",
					"outputs": [],
					"stateMutability": "nonpayable",
					"type": "function"
				},
				{
					"inputs": [
						{
							"internalType": "uint256",
							"name": "",
							"type": "uint256"
						}
					],
					"name": "uri",
					"outputs": [
						{
							"internalType": "string",
							"name": "",
							"type": "string"
						}
					],
					"stateMutability": "view",
					"type": "function"
				}
			],
			"devdoc": {
				"errors": {
					"ERC1155InsufficientBalance(address,uint256,uint256,uint256)": [
						{
							"details": "Indicates an error related to the current `balance` of a `sender`. Used in transfers.",
							"params": {
								"balance": "Current balance for the interacting account.",
								"needed": "Minimum amount required to perform a transfer.",
								"sender": "Address whose tokens are being transferred.",
								"tokenId": "Identifier number of a token."
							}
						}
					],
					"ERC1155InvalidApprover(address)": [
						{
							"details": "Indicates a failure with the `approver` of a token to be approved. Used in approvals.",
							"params": {
								"approver": "Address initiating an approval operation."
							}
						}
					],
					"ERC1155InvalidArrayLength(uint256,uint256)": [
						{
							"details": "Indicates an array length mismatch between ids and values in a safeBatchTransferFrom operation. Used in batch transfers.",
							"params": {
								"idsLength": "Length of the array of token identifiers",
								"valuesLength": "Length of the array of token amounts"
							}
						}
					],
					"ERC1155InvalidOperator(address)": [
						{
							"details": "Indicates a failure with the `operator` to be approved. Used in approvals.",
							"params": {
								"operator": "Address that may be allowed to operate on tokens without being their owner."
							}
						}
					],
					"ERC1155InvalidReceiver(address)": [
						{
							"details": "Indicates a failure with the token `receiver`. Used in transfers.",
							"params": {
								"receiver": "Address to which tokens are being transferred."
							}
						}
					],
					"ERC1155InvalidSender(address)": [
						{
							"details": "Indicates a failure with the token `sender`. Used in transfers.",
							"params": {
								"sender": "Address whose tokens are being transferred."
							}
						}
					],
					"ERC1155MissingApprovalForAll(address,address)": [
						{
							"details": "Indicates a failure with the `operator`’s approval. Used in transfers.",
							"params": {
								"operator": "Address that may be allowed to operate on tokens without being their owner.",
								"owner": "Address of the current owner of a token."
							}
						}
					],
					"OwnableInvalidOwner(address)": [
						{
							"details": "The owner is not a valid owner account. (eg. `address(0)`)"
						}
					],
					"OwnableUnauthorizedAccount(address)": [
						{
							"details": "The caller account is not authorized to perform an operation."
						}
					]
				},
				"events": {
					"ApprovalForAll(address,address,bool)": {
						"details": "Emitted when `account` grants or revokes permission to `operator` to transfer their tokens, according to `approved`."
					},
					"TransferBatch(address,address,address,uint256[],uint256[])": {
						"details": "Equivalent to multiple {TransferSingle} events, where `operator`, `from` and `to` are the same for all transfers."
					},
					"TransferSingle(address,address,address,uint256,uint256)": {
						"details": "Emitted when `value` amount of tokens of type `id` are transferred from `from` to `to` by `operator`."
					},
					"URI(string,uint256)": {
						"details": "Emitted when the URI for token type `id` changes to `value`, if it is a non-programmatic URI. If an {URI} event was emitted for `id`, the standard https://eips.ethereum.org/EIPS/eip-1155#metadata-extensions[guarantees] that `value` will equal the value returned by {IERC1155MetadataURI-uri}."
					}
				},
				"kind": "dev",
				"methods": {
					"balanceOf(address,uint256)": {
						"details": "See {IERC1155-balanceOf}."
					},
					"balanceOfBatch(address[],uint256[])": {
						"details": "See {IERC1155-balanceOfBatch}. Requirements: - `accounts` and `ids` must have the same length."
					},
					"isApprovedForAll(address,address)": {
						"details": "See {IERC1155-isApprovedForAll}."
					},
					"owner()": {
						"details": "Returns the address of the current owner."
					},
					"renounceOwnership()": {
						"details": "Leaves the contract without owner. It will not be possible to call `onlyOwner` functions. Can only be called by the current owner. NOTE: Renouncing ownership will leave the contract without an owner, thereby disabling any functionality that is only available to the owner."
					},
					"safeBatchTransferFrom(address,address,uint256[],uint256[],bytes)": {
						"details": "See {IERC1155-safeBatchTransferFrom}."
					},
					"safeTransferFrom(address,address,uint256,uint256,bytes)": {
						"details": "See {IERC1155-safeTransferFrom}."
					},
					"setApprovalForAll(address,bool)": {
						"details": "See {IERC1155-setApprovalForAll}."
					},
					"supportsInterface(bytes4)": {
						"details": "See {IERC165-supportsInterface}."
					},
					"transferOwnership(address)": {
						"details": "Transfers ownership of the contract to a new account (`newOwner`). Can only be called by the current owner."
					},
					"uri(uint256)": {
						"details": "See {IERC1155MetadataURI-uri}. This implementation returns the same URI for *all* token types. It relies on the token type ID substitution mechanism https://eips.ethereum.org/EIPS/eip-1155#metadata[defined in the EIP]. Clients calling this function must replace the `\\{id\\}` substring with the actual token type ID."
					}
				},
				"version": 1
			},
			"evm": {
				"assembly": "    /* \"contracts/NftV1Contract.sol\":172:2367  contract NftV1Collection is ERC1155, Ownable {... */\n  mstore(0x40, 0x80)\n    /* \"contracts/NftV1Contract.sol\":255:256  0 */\n  0x00\n    /* \"contracts/NftV1Contract.sol\":228:256  uint256 private _tokenId = 0 */\n  0x04\n  sstore\n    /* \"contracts/NftV1Contract.sol\":368:533  constructor(address initialOwner, string memory name, string memory symbol) ERC1155(\"\") Ownable(initialOwner) {... */\n  callvalue\n  dup1\n  iszero\n  tag_1\n  jumpi\n  0x00\n  dup1\n  revert\ntag_1:\n  pop\n  mload(0x40)\n  sub(codesize, bytecodeSize)\n  dup1\n  bytecodeSize\n  dup4\n  codecopy\n  dup2\n  add\n  0x40\n  dup2\n  swap1\n  mstore\n  tag_2\n  swap2\n  tag_3\n  jump\t// in\ntag_2:\n    /* \"@openzeppelin/contracts/token/ERC1155/ERC1155.sol\":1251:1313  constructor(string memory uri_) {... */\n  0x40\n  dup1\n  mload\n  0x20\n  dup2\n  add\n  swap1\n  swap2\n  mstore\n  0x00\n  dup2\n  mstore\n    /* \"contracts/NftV1Contract.sol\":464:476  initialOwner */\n  dup4\n  swap1\n    /* \"@openzeppelin/contracts/token/ERC1155/ERC1155.sol\":1293:1306  _setURI(uri_) */\n  tag_8\n    /* \"@openzeppelin/contracts/token/ERC1155/ERC1155.sol\":1251:1313  constructor(string memory uri_) {... */\n  dup2\n    /* \"@openzeppelin/contracts/token/ERC1155/ERC1155.sol\":1293:1300  _setURI */\n  tag_9\n    /* \"@openzeppelin/contracts/token/ERC1155/ERC1155.sol\":1293:1306  _setURI(uri_) */\n  jump\t// in\ntag_8:\n  pop\n  sub(shl(0xa0, 0x01), 0x01)\n    /* \"@openzeppelin/contracts/access/Ownable.sol\":1273:1299  initialOwner == address(0) */\n  dup2\n  and\n    /* \"@openzeppelin/contracts/access/Ownable.sol\":1269:1364  if (initialOwner == address(0)) {... */\n  tag_11\n  jumpi\n    /* \"@openzeppelin/contracts/access/Ownable.sol\":1322:1353  OwnableInvalidOwner(address(0)) */\n  mload(0x40)\n  shl(0xe0, 0x1e4fbdf7)\n  dup2\n  mstore\n    /* \"@openzeppelin/contracts/access/Ownable.sol\":1350:1351  0 */\n  0x00\n    /* \"@openzeppelin/contracts/access/Ownable.sol\":1322:1353  OwnableInvalidOwner(address(0)) */\n  0x04\n  dup3\n  add\n    /* \"#utility.yul\":1747:1798   */\n  mstore\n    /* \"#utility.yul\":1720:1738   */\n  0x24\n  add\n    /* \"@openzeppelin/contracts/access/Ownable.sol\":1322:1353  OwnableInvalidOwner(address(0)) */\n  mload(0x40)\n  dup1\n  swap2\n  sub\n  swap1\n  revert\n    /* \"@openzeppelin/contracts/access/Ownable.sol\":1269:1364  if (initialOwner == address(0)) {... */\ntag_11:\n    /* \"@openzeppelin/contracts/access/Ownable.sol\":1373:1405  _transferOwnership(initialOwner) */\n  tag_14\n    /* \"@openzeppelin/contracts/access/Ownable.sol\":1392:1404  initialOwner */\n  dup2\n    /* \"@openzeppelin/contracts/access/Ownable.sol\":1373:1391  _transferOwnership */\n  tag_15\n    /* \"@openzeppelin/contracts/access/Ownable.sol\":1373:1405  _transferOwnership(initialOwner) */\n  jump\t// in\ntag_14:\n  pop\n    /* \"contracts/NftV1Contract.sol\":488:493  _name */\n  0x05\n    /* \"contracts/NftV1Contract.sol\":488:500  _name = name */\n  tag_17\n    /* \"contracts/NftV1Contract.sol\":496:500  name */\n  dup4\n    /* \"contracts/NftV1Contract.sol\":488:493  _name */\n  dup3\n    /* \"contracts/NftV1Contract.sol\":488:500  _name = name */\n  tag_18\n  jump\t// in\ntag_17:\n  pop\n    /* \"contracts/NftV1Contract.sol\":510:517  _symbol */\n  0x06\n    /* \"contracts/NftV1Contract.sol\":510:526  _symbol = symbol */\n  tag_19\n    /* \"contracts/NftV1Contract.sol\":520:526  symbol */\n  dup3\n    /* \"contracts/NftV1Contract.sol\":510:517  _symbol */\n  dup3\n    /* \"contracts/NftV1Contract.sol\":510:526  _symbol = symbol */\n  tag_18\n  jump\t// in\ntag_19:\n  pop\n    /* \"contracts/NftV1Contract.sol\":368:533  constructor(address initialOwner, string memory name, string memory symbol) ERC1155(\"\") Ownable(initialOwner) {... */\n  pop\n  pop\n  pop\n    /* \"contracts/NftV1Contract.sol\":172:2367  contract NftV1Collection is ERC1155, Ownable {... */\n  jump(tag_30)\n    /* \"@openzeppelin/contracts/token/ERC1155/ERC1155.sol\":10282:10368  function _setURI(string memory newuri) internal virtual {... */\ntag_9:\n    /* \"@openzeppelin/contracts/token/ERC1155/ERC1155.sol\":10348:10352  _uri */\n  0x02\n    /* \"@openzeppelin/contracts/token/ERC1155/ERC1155.sol\":10348:10361  _uri = newuri */\n  tag_22\n    /* \"@openzeppelin/contracts/token/ERC1155/ERC1155.sol\":10355:10361  newuri */\n  dup3\n    /* \"@openzeppelin/contracts/token/ERC1155/ERC1155.sol\":10348:10352  _uri */\n  dup3\n    /* \"@openzeppelin/contracts/token/ERC1155/ERC1155.sol\":10348:10361  _uri = newuri */\n  tag_18\n  jump\t// in\ntag_22:\n  pop\n    /* \"@openzeppelin/contracts/token/ERC1155/ERC1155.sol\":10282:10368  function _setURI(string memory newuri) internal virtual {... */\n  pop\n  jump\t// out\n    /* \"@openzeppelin/contracts/access/Ownable.sol\":2912:3099  function _transferOwnership(address newOwner) internal virtual {... */\ntag_15:\n    /* \"@openzeppelin/contracts/access/Ownable.sol\":3004:3010  _owner */\n  0x03\n  dup1\n  sload\n  sub(shl(0xa0, 0x01), 0x01)\n    /* \"@openzeppelin/contracts/access/Ownable.sol\":3020:3037  _owner = newOwner */\n  dup4\n  dup2\n  and\n  not(sub(shl(0xa0, 0x01), 0x01))\n  dup4\n  and\n  dup2\n  or\n  swap1\n  swap4\n  sstore\n    /* \"@openzeppelin/contracts/access/Ownable.sol\":3052:3092  OwnershipTransferred(oldOwner, newOwner) */\n  mload(0x40)\n    /* \"@openzeppelin/contracts/access/Ownable.sol\":3004:3010  _owner */\n  swap2\n  and\n  swap2\n    /* \"@openzeppelin/contracts/access/Ownable.sol\":3020:3037  _owner = newOwner */\n  swap1\n    /* \"@openzeppelin/contracts/access/Ownable.sol\":3004:3010  _owner */\n  dup3\n  swap1\n    /* \"@openzeppelin/contracts/access/Ownable.sol\":3052:3092  OwnershipTransferred(oldOwner, newOwner) */\n  0x8be0079c531659141344cd1fd0a4f28419497f9722a3daafe3b4186f6b6457e0\n  swap1\n    /* \"@openzeppelin/contracts/access/Ownable.sol\":2985:3001  address oldOwner */\n  0x00\n  swap1\n    /* \"@openzeppelin/contracts/access/Ownable.sol\":3052:3092  OwnershipTransferred(oldOwner, newOwner) */\n  log3\n    /* \"@openzeppelin/contracts/access/Ownable.sol\":2975:3099  {... */\n  pop\n    /* \"@openzeppelin/contracts/access/Ownable.sol\":2912:3099  function _transferOwnership(address newOwner) internal virtual {... */\n  pop\n  jump\t// out\n    /* \"#utility.yul\":14:141   */\ntag_24:\n    /* \"#utility.yul\":75:85   */\n  0x4e487b71\n    /* \"#utility.yul\":70:73   */\n  0xe0\n    /* \"#utility.yul\":66:86   */\n  shl\n    /* \"#utility.yul\":63:64   */\n  0x00\n    /* \"#utility.yul\":56:87   */\n  mstore\n    /* \"#utility.yul\":106:110   */\n  0x41\n    /* \"#utility.yul\":103:104   */\n  0x04\n    /* \"#utility.yul\":96:111   */\n  mstore\n    /* \"#utility.yul\":130:134   */\n  0x24\n    /* \"#utility.yul\":127:128   */\n  0x00\n    /* \"#utility.yul\":120:135   */\n  revert\n    /* \"#utility.yul\":146:862   */\ntag_25:\n    /* \"#utility.yul\":200:205   */\n  0x00\n    /* \"#utility.yul\":253:256   */\n  dup3\n    /* \"#utility.yul\":246:250   */\n  0x1f\n    /* \"#utility.yul\":238:244   */\n  dup4\n    /* \"#utility.yul\":234:251   */\n  add\n    /* \"#utility.yul\":230:257   */\n  slt\n    /* \"#utility.yul\":220:275   */\n  tag_33\n  jumpi\n    /* \"#utility.yul\":271:272   */\n  0x00\n    /* \"#utility.yul\":268:269   */\n  dup1\n    /* \"#utility.yul\":261:273   */\n  revert\n    /* \"#utility.yul\":220:275   */\ntag_33:\n    /* \"#utility.yul\":294:307   */\n  dup2\n  mload\n  sub(shl(0x40, 0x01), 0x01)\n    /* \"#utility.yul\":356:366   */\n  dup1\n  dup3\n  gt\n    /* \"#utility.yul\":353:389   */\n  iszero\n  tag_35\n  jumpi\n    /* \"#utility.yul\":369:387   */\n  tag_35\n  tag_24\n  jump\t// in\ntag_35:\n    /* \"#utility.yul\":444:446   */\n  0x40\n    /* \"#utility.yul\":438:447   */\n  mload\n    /* \"#utility.yul\":412:414   */\n  0x1f\n    /* \"#utility.yul\":498:511   */\n  dup4\n  add\n  not(0x1f)\n    /* \"#utility.yul\":494:516   */\n  swap1\n  dup2\n  and\n    /* \"#utility.yul\":518:520   */\n  0x3f\n    /* \"#utility.yul\":490:521   */\n  add\n    /* \"#utility.yul\":486:526   */\n  and\n    /* \"#utility.yul\":474:527   */\n  dup2\n  add\n  swap1\n    /* \"#utility.yul\":542:560   */\n  dup3\n  dup3\n  gt\n    /* \"#utility.yul\":562:584   */\n  dup2\n  dup4\n  lt\n    /* \"#utility.yul\":539:585   */\n  or\n    /* \"#utility.yul\":536:608   */\n  iszero\n  tag_37\n  jumpi\n    /* \"#utility.yul\":588:606   */\n  tag_37\n  tag_24\n  jump\t// in\ntag_37:\n    /* \"#utility.yul\":628:638   */\n  dup2\n    /* \"#utility.yul\":624:626   */\n  0x40\n    /* \"#utility.yul\":617:639   */\n  mstore\n    /* \"#utility.yul\":663:665   */\n  dup4\n    /* \"#utility.yul\":655:661   */\n  dup2\n    /* \"#utility.yul\":648:666   */\n  mstore\n    /* \"#utility.yul\":709:712   */\n  dup7\n    /* \"#utility.yul\":702:706   */\n  0x20\n    /* \"#utility.yul\":697:699   */\n  dup6\n    /* \"#utility.yul\":689:695   */\n  dup9\n    /* \"#utility.yul\":685:700   */\n  add\n    /* \"#utility.yul\":681:707   */\n  add\n    /* \"#utility.yul\":678:713   */\n  gt\n    /* \"#utility.yul\":675:730   */\n  iszero\n  tag_38\n  jumpi\n    /* \"#utility.yul\":726:727   */\n  0x00\n    /* \"#utility.yul\":723:724   */\n  dup1\n    /* \"#utility.yul\":716:728   */\n  revert\n    /* \"#utility.yul\":675:730   */\ntag_38:\n    /* \"#utility.yul\":783:785   */\n  dup4\n    /* \"#utility.yul\":776:780   */\n  0x20\n    /* \"#utility.yul\":768:774   */\n  dup8\n    /* \"#utility.yul\":764:781   */\n  add\n    /* \"#utility.yul\":757:761   */\n  0x20\n    /* \"#utility.yul\":749:755   */\n  dup4\n    /* \"#utility.yul\":745:762   */\n  add\n    /* \"#utility.yul\":739:786   */\n  mcopy\n    /* \"#utility.yul\":830:831   */\n  0x00\n    /* \"#utility.yul\":823:827   */\n  0x20\n    /* \"#utility.yul\":818:820   */\n  dup6\n    /* \"#utility.yul\":810:816   */\n  dup4\n    /* \"#utility.yul\":806:821   */\n  add\n    /* \"#utility.yul\":802:828   */\n  add\n    /* \"#utility.yul\":795:832   */\n  mstore\n    /* \"#utility.yul\":850:856   */\n  dup1\n    /* \"#utility.yul\":841:856   */\n  swap5\n  pop\n  pop\n  pop\n  pop\n  pop\n    /* \"#utility.yul\":146:862   */\n  swap3\n  swap2\n  pop\n  pop\n  jump\t// out\n    /* \"#utility.yul\":867:1596   */\ntag_3:\n    /* \"#utility.yul\":975:981   */\n  0x00\n    /* \"#utility.yul\":983:989   */\n  dup1\n    /* \"#utility.yul\":991:997   */\n  0x00\n    /* \"#utility.yul\":1044:1046   */\n  0x60\n    /* \"#utility.yul\":1032:1041   */\n  dup5\n    /* \"#utility.yul\":1023:1030   */\n  dup7\n    /* \"#utility.yul\":1019:1042   */\n  sub\n    /* \"#utility.yul\":1015:1047   */\n  slt\n    /* \"#utility.yul\":1012:1064   */\n  iszero\n  tag_40\n  jumpi\n    /* \"#utility.yul\":1060:1061   */\n  0x00\n    /* \"#utility.yul\":1057:1058   */\n  dup1\n    /* \"#utility.yul\":1050:1062   */\n  revert\n    /* \"#utility.yul\":1012:1064   */\ntag_40:\n    /* \"#utility.yul\":1086:1102   */\n  dup4\n  mload\n  sub(shl(0xa0, 0x01), 0x01)\n    /* \"#utility.yul\":1131:1162   */\n  dup2\n  and\n    /* \"#utility.yul\":1121:1163   */\n  dup2\n  eq\n    /* \"#utility.yul\":1111:1181   */\n  tag_41\n  jumpi\n    /* \"#utility.yul\":1177:1178   */\n  0x00\n    /* \"#utility.yul\":1174:1175   */\n  dup1\n    /* \"#utility.yul\":1167:1179   */\n  revert\n    /* \"#utility.yul\":1111:1181   */\ntag_41:\n    /* \"#utility.yul\":1249:1251   */\n  0x20\n    /* \"#utility.yul\":1234:1252   */\n  dup6\n  add\n    /* \"#utility.yul\":1228:1253   */\n  mload\n    /* \"#utility.yul\":1200:1205   */\n  swap1\n  swap4\n  pop\n  sub(shl(0x40, 0x01), 0x01)\n    /* \"#utility.yul\":1302:1316   */\n  dup1\n  dup3\n  gt\n    /* \"#utility.yul\":1299:1333   */\n  iszero\n  tag_42\n  jumpi\n    /* \"#utility.yul\":1329:1330   */\n  0x00\n    /* \"#utility.yul\":1326:1327   */\n  dup1\n    /* \"#utility.yul\":1319:1331   */\n  revert\n    /* \"#utility.yul\":1299:1333   */\ntag_42:\n    /* \"#utility.yul\":1352:1413   */\n  tag_43\n    /* \"#utility.yul\":1405:1412   */\n  dup8\n    /* \"#utility.yul\":1396:1402   */\n  dup4\n    /* \"#utility.yul\":1385:1394   */\n  dup9\n    /* \"#utility.yul\":1381:1403   */\n  add\n    /* \"#utility.yul\":1352:1413   */\n  tag_25\n  jump\t// in\ntag_43:\n    /* \"#utility.yul\":1342:1413   */\n  swap4\n  pop\n    /* \"#utility.yul\":1459:1461   */\n  0x40\n    /* \"#utility.yul\":1448:1457   */\n  dup7\n    /* \"#utility.yul\":1444:1462   */\n  add\n    /* \"#utility.yul\":1438:1463   */\n  mload\n    /* \"#utility.yul\":1422:1463   */\n  swap2\n  pop\n    /* \"#utility.yul\":1488:1490   */\n  dup1\n    /* \"#utility.yul\":1478:1486   */\n  dup3\n    /* \"#utility.yul\":1475:1491   */\n  gt\n    /* \"#utility.yul\":1472:1508   */\n  iszero\n  tag_44\n  jumpi\n    /* \"#utility.yul\":1504:1505   */\n  0x00\n    /* \"#utility.yul\":1501:1502   */\n  dup1\n    /* \"#utility.yul\":1494:1506   */\n  revert\n    /* \"#utility.yul\":1472:1508   */\ntag_44:\n  pop\n    /* \"#utility.yul\":1527:1590   */\n  tag_45\n    /* \"#utility.yul\":1582:1589   */\n  dup7\n    /* \"#utility.yul\":1571:1579   */\n  dup3\n    /* \"#utility.yul\":1560:1569   */\n  dup8\n    /* \"#utility.yul\":1556:1580   */\n  add\n    /* \"#utility.yul\":1527:1590   */\n  tag_25\n  jump\t// in\ntag_45:\n    /* \"#utility.yul\":1517:1590   */\n  swap2\n  pop\n  pop\n    /* \"#utility.yul\":867:1596   */\n  swap3\n  pop\n  swap3\n  pop\n  swap3\n  jump\t// out\n    /* \"#utility.yul\":1809:2189   */\ntag_26:\n    /* \"#utility.yul\":1888:1889   */\n  0x01\n    /* \"#utility.yul\":1884:1896   */\n  dup2\n  dup2\n  shr\n  swap1\n    /* \"#utility.yul\":1931:1943   */\n  dup3\n  and\n  dup1\n    /* \"#utility.yul\":1952:2013   */\n  tag_48\n  jumpi\n    /* \"#utility.yul\":2006:2010   */\n  0x7f\n    /* \"#utility.yul\":1998:2004   */\n  dup3\n    /* \"#utility.yul\":1994:2011   */\n  and\n    /* \"#utility.yul\":1984:2011   */\n  swap2\n  pop\n    /* \"#utility.yul\":1952:2013   */\ntag_48:\n    /* \"#utility.yul\":2059:2061   */\n  0x20\n    /* \"#utility.yul\":2051:2057   */\n  dup3\n    /* \"#utility.yul\":2048:2062   */\n  lt\n    /* \"#utility.yul\":2028:2046   */\n  dup2\n    /* \"#utility.yul\":2025:2063   */\n  sub\n    /* \"#utility.yul\":2022:2183   */\n  tag_49\n  jumpi\n    /* \"#utility.yul\":2105:2115   */\n  0x4e487b71\n    /* \"#utility.yul\":2100:2103   */\n  0xe0\n    /* \"#utility.yul\":2096:2116   */\n  shl\n    /* \"#utility.yul\":2093:2094   */\n  0x00\n    /* \"#utility.yul\":2086:2117   */\n  mstore\n    /* \"#utility.yul\":2140:2144   */\n  0x22\n    /* \"#utility.yul\":2137:2138   */\n  0x04\n    /* \"#utility.yul\":2130:2145   */\n  mstore\n    /* \"#utility.yul\":2168:2172   */\n  0x24\n    /* \"#utility.yul\":2165:2166   */\n  0x00\n    /* \"#utility.yul\":2158:2173   */\n  revert\n    /* \"#utility.yul\":2022:2183   */\ntag_49:\n  pop\n    /* \"#utility.yul\":1809:2189   */\n  swap2\n  swap1\n  pop\n  jump\t// out\n    /* \"#utility.yul\":2320:2838   */\ntag_28:\n    /* \"#utility.yul\":2422:2424   */\n  0x1f\n    /* \"#utility.yul\":2417:2420   */\n  dup3\n    /* \"#utility.yul\":2414:2425   */\n  gt\n    /* \"#utility.yul\":2411:2832   */\n  iszero\n  tag_52\n  jumpi\n    /* \"#utility.yul\":2458:2463   */\n  dup1\n    /* \"#utility.yul\":2455:2456   */\n  0x00\n    /* \"#utility.yul\":2448:2464   */\n  mstore\n    /* \"#utility.yul\":2502:2506   */\n  0x20\n    /* \"#utility.yul\":2499:2500   */\n  0x00\n    /* \"#utility.yul\":2489:2507   */\n  keccak256\n    /* \"#utility.yul\":2572:2574   */\n  0x1f\n    /* \"#utility.yul\":2560:2570   */\n  dup5\n    /* \"#utility.yul\":2556:2575   */\n  add\n    /* \"#utility.yul\":2553:2554   */\n  0x05\n    /* \"#utility.yul\":2549:2576   */\n  shr\n    /* \"#utility.yul\":2543:2547   */\n  dup2\n    /* \"#utility.yul\":2539:2577   */\n  add\n    /* \"#utility.yul\":2608:2612   */\n  0x20\n    /* \"#utility.yul\":2596:2606   */\n  dup6\n    /* \"#utility.yul\":2593:2613   */\n  lt\n    /* \"#utility.yul\":2590:2637   */\n  iszero\n  tag_53\n  jumpi\n  pop\n    /* \"#utility.yul\":2631:2635   */\n  dup1\n    /* \"#utility.yul\":2590:2637   */\ntag_53:\n    /* \"#utility.yul\":2686:2688   */\n  0x1f\n    /* \"#utility.yul\":2681:2684   */\n  dup5\n    /* \"#utility.yul\":2677:2689   */\n  add\n    /* \"#utility.yul\":2674:2675   */\n  0x05\n    /* \"#utility.yul\":2670:2690   */\n  shr\n    /* \"#utility.yul\":2664:2668   */\n  dup3\n    /* \"#utility.yul\":2660:2691   */\n  add\n    /* \"#utility.yul\":2650:2691   */\n  swap2\n  pop\n    /* \"#utility.yul\":2741:2822   */\ntag_54:\n    /* \"#utility.yul\":2759:2761   */\n  dup2\n    /* \"#utility.yul\":2752:2757   */\n  dup2\n    /* \"#utility.yul\":2749:2762   */\n  lt\n    /* \"#utility.yul\":2741:2822   */\n  iszero\n  tag_56\n  jumpi\n    /* \"#utility.yul\":2818:2819   */\n  0x00\n    /* \"#utility.yul\":2804:2820   */\n  dup2\n  sstore\n    /* \"#utility.yul\":2785:2786   */\n  0x01\n    /* \"#utility.yul\":2774:2787   */\n  add\n    /* \"#utility.yul\":2741:2822   */\n  jump(tag_54)\ntag_56:\n    /* \"#utility.yul\":2745:2748   */\n  pop\n  pop\n    /* \"#utility.yul\":2411:2832   */\ntag_52:\n    /* \"#utility.yul\":2320:2838   */\n  pop\n  pop\n  pop\n  jump\t// out\n    /* \"#utility.yul\":3014:4359   */\ntag_18:\n    /* \"#utility.yul\":3134:3144   */\n  dup2\n  mload\n  sub(shl(0x40, 0x01), 0x01)\n    /* \"#utility.yul\":3156:3186   */\n  dup2\n  gt\n    /* \"#utility.yul\":3153:3209   */\n  iszero\n  tag_60\n  jumpi\n    /* \"#utility.yul\":3189:3207   */\n  tag_60\n  tag_24\n  jump\t// in\ntag_60:\n    /* \"#utility.yul\":3218:3315   */\n  tag_61\n    /* \"#utility.yul\":3308:3314   */\n  dup2\n    /* \"#utility.yul\":3268:3306   */\n  tag_62\n    /* \"#utility.yul\":3300:3304   */\n  dup5\n    /* \"#utility.yul\":3294:3305   */\n  sload\n    /* \"#utility.yul\":3268:3306   */\n  tag_26\n  jump\t// in\ntag_62:\n    /* \"#utility.yul\":3262:3266   */\n  dup5\n    /* \"#utility.yul\":3218:3315   */\n  tag_28\n  jump\t// in\ntag_61:\n    /* \"#utility.yul\":3370:3374   */\n  0x20\n  dup1\n    /* \"#utility.yul\":3427:3429   */\n  0x1f\n    /* \"#utility.yul\":3416:3430   */\n  dup4\n  gt\n    /* \"#utility.yul\":3444:3445   */\n  0x01\n    /* \"#utility.yul\":3439:4102   */\n  dup2\n  eq\n  tag_64\n  jumpi\n    /* \"#utility.yul\":4146:4147   */\n  0x00\n    /* \"#utility.yul\":4163:4169   */\n  dup5\n    /* \"#utility.yul\":4160:4249   */\n  iszero\n  tag_65\n  jumpi\n  pop\n    /* \"#utility.yul\":4215:4234   */\n  dup6\n  dup4\n  add\n    /* \"#utility.yul\":4209:4235   */\n  mload\n    /* \"#utility.yul\":4160:4249   */\ntag_65:\n  not(0x00)\n    /* \"#utility.yul\":2971:2972   */\n  0x03\n    /* \"#utility.yul\":2967:2978   */\n  dup7\n  swap1\n  shl\n    /* \"#utility.yul\":2963:2987   */\n  shr\n    /* \"#utility.yul\":2959:2988   */\n  not\n    /* \"#utility.yul\":2949:2989   */\n  and\n    /* \"#utility.yul\":2995:2996   */\n  0x01\n    /* \"#utility.yul\":2991:3002   */\n  dup6\n  swap1\n  shl\n    /* \"#utility.yul\":2946:3003   */\n  or\n    /* \"#utility.yul\":4262:4343   */\n  dup6\n  sstore\n    /* \"#utility.yul\":3409:4353   */\n  jump(tag_63)\n    /* \"#utility.yul\":3439:4102   */\ntag_64:\n    /* \"#utility.yul\":2267:2268   */\n  0x00\n    /* \"#utility.yul\":2260:2274   */\n  dup6\n  dup2\n  mstore\n    /* \"#utility.yul\":2304:2308   */\n  0x20\n    /* \"#utility.yul\":2291:2309   */\n  dup2\n  keccak256\n  not(0x1f)\n    /* \"#utility.yul\":3475:3495   */\n  dup7\n  and\n  swap2\n    /* \"#utility.yul\":3593:3829   */\ntag_68:\n    /* \"#utility.yul\":3607:3614   */\n  dup3\n    /* \"#utility.yul\":3604:3605   */\n  dup2\n    /* \"#utility.yul\":3601:3615   */\n  lt\n    /* \"#utility.yul\":3593:3829   */\n  iszero\n  tag_70\n  jumpi\n    /* \"#utility.yul\":3696:3715   */\n  dup9\n  dup7\n  add\n    /* \"#utility.yul\":3690:3716   */\n  mload\n    /* \"#utility.yul\":3675:3717   */\n  dup3\n  sstore\n    /* \"#utility.yul\":3788:3815   */\n  swap5\n  dup5\n  add\n  swap5\n    /* \"#utility.yul\":3756:3757   */\n  0x01\n    /* \"#utility.yul\":3744:3758   */\n  swap1\n  swap2\n  add\n  swap1\n    /* \"#utility.yul\":3623:3642   */\n  dup5\n  add\n    /* \"#utility.yul\":3593:3829   */\n  jump(tag_68)\ntag_70:\n    /* \"#utility.yul\":3597:3600   */\n  pop\n    /* \"#utility.yul\":3857:3863   */\n  dup6\n    /* \"#utility.yul\":3848:3855   */\n  dup3\n    /* \"#utility.yul\":3845:3864   */\n  lt\n    /* \"#utility.yul\":3842:4043   */\n  iszero\n  tag_71\n  jumpi\n    /* \"#utility.yul\":3918:3937   */\n  dup8\n  dup6\n  add\n    /* \"#utility.yul\":3912:3938   */\n  mload\n  not(0x00)\n    /* \"#utility.yul\":4001:4002   */\n  0x03\n    /* \"#utility.yul\":3997:4011   */\n  dup9\n  swap1\n  shl\n    /* \"#utility.yul\":4013:4016   */\n  0xf8\n    /* \"#utility.yul\":3993:4017   */\n  and\n    /* \"#utility.yul\":3989:4026   */\n  shr\n    /* \"#utility.yul\":3985:4027   */\n  not\n    /* \"#utility.yul\":3970:4028   */\n  and\n    /* \"#utility.yul\":3955:4029   */\n  dup2\n  sstore\n    /* \"#utility.yul\":3842:4043   */\ntag_71:\n  pop\n  pop\n    /* \"#utility.yul\":4089:4090   */\n  0x01\n    /* \"#utility.yul\":4080:4086   */\n  dup5\n    /* \"#utility.yul\":4077:4078   */\n  0x01\n    /* \"#utility.yul\":4073:4087   */\n  shl\n    /* \"#utility.yul\":4069:4091   */\n  add\n    /* \"#utility.yul\":4063:4067   */\n  dup6\n    /* \"#utility.yul\":4056:4092   */\n  sstore\n    /* \"#utility.yul\":3409:4353   */\ntag_63:\n  pop\n  pop\n  pop\n  pop\n    /* \"#utility.yul\":3014:4359   */\n  pop\n  pop\n  jump\t// out\ntag_30:\n    /* \"contracts/NftV1Contract.sol\":172:2367  contract NftV1Collection is ERC1155, Ownable {... */\n  dataSize(sub_0)\n  dup1\n  dataOffset(sub_0)\n  0x00\n  codecopy\n  0x00\n  return\nstop\n\nsub_0: assembly {\n        /* \"contracts/NftV1Contract.sol\":172:2367  contract NftV1Collection is ERC1155, Ownable {... */\n      mstore(0x40, 0x80)\n      callvalue\n      dup1\n      iszero\n      tag_1\n      jumpi\n      0x00\n      dup1\n      revert\n    tag_1:\n      pop\n      jumpi(tag_2, lt(calldatasize, 0x04))\n      shr(0xe0, calldataload(0x00))\n      dup1\n      0xfdd58e\n      eq\n      tag_3\n      jumpi\n      dup1\n      0x01ffc9a7\n      eq\n      tag_4\n      jumpi\n      dup1\n      0x02fe5305\n      eq\n      tag_5\n      jumpi\n      dup1\n      0x06fdde03\n      eq\n      tag_6\n      jumpi\n      dup1\n      0x0a1e88d1\n      eq\n      tag_7\n      jumpi\n      dup1\n      0x0e89341c\n      eq\n      tag_8\n      jumpi\n      dup1\n      0x17d70f7c\n      eq\n      tag_9\n      jumpi\n      dup1\n      0x2eb2c2d6\n      eq\n      tag_10\n      jumpi\n      dup1\n      0x4e1273f4\n      eq\n      tag_11\n      jumpi\n      dup1\n      0x715018a6\n      eq\n      tag_12\n      jumpi\n      dup1\n      0x8da5cb5b\n      eq\n      tag_13\n      jumpi\n      dup1\n      0x95d89b41\n      eq\n      tag_14\n      jumpi\n      dup1\n      0xa22cb465\n      eq\n      tag_15\n      jumpi\n      dup1\n      0xa7fd4a02\n      eq\n      tag_16\n      jumpi\n      dup1\n      0xba7aef43\n      eq\n      tag_17\n      jumpi\n      dup1\n      0xc87b56dd\n      eq\n      tag_18\n      jumpi\n      dup1\n      0xe985e9c5\n      eq\n      tag_19\n      jumpi\n      dup1\n      0xf242432a\n      eq\n      tag_20\n      jumpi\n      dup1\n      0xf2fde38b\n      eq\n      tag_21\n      jumpi\n    tag_2:\n      0x00\n      dup1\n      revert\n        /* \"@openzeppelin/contracts/token/ERC1155/ERC1155.sol\":2247:2379  function balanceOf(address account, uint256 id) public view virtual returns (uint256) {... */\n    tag_3:\n      tag_22\n      tag_23\n      calldatasize\n      0x04\n      tag_24\n      jump\t// in\n    tag_23:\n      tag_25\n      jump\t// in\n    tag_22:\n      mload(0x40)\n        /* \"#utility.yul\":597:622   */\n      swap1\n      dup2\n      mstore\n        /* \"#utility.yul\":585:587   */\n      0x20\n        /* \"#utility.yul\":570:588   */\n      add\n        /* \"@openzeppelin/contracts/token/ERC1155/ERC1155.sol\":2247:2379  function balanceOf(address account, uint256 id) public view virtual returns (uint256) {... */\n    tag_26:\n      mload(0x40)\n      dup1\n      swap2\n      sub\n      swap1\n      return\n        /* \"@openzeppelin/contracts/token/ERC1155/ERC1155.sol\":1380:1685  function supportsInterface(bytes4 interfaceId) public view virtual override(ERC165, IERC165) returns (bool) {... */\n    tag_4:\n      tag_28\n      tag_29\n      calldatasize\n      0x04\n      tag_30\n      jump\t// in\n    tag_29:\n      tag_31\n      jump\t// in\n    tag_28:\n      mload(0x40)\n        /* \"#utility.yul\":1184:1198   */\n      swap1\n      iszero\n        /* \"#utility.yul\":1177:1199   */\n      iszero\n        /* \"#utility.yul\":1159:1200   */\n      dup2\n      mstore\n        /* \"#utility.yul\":1147:1149   */\n      0x20\n        /* \"#utility.yul\":1132:1150   */\n      add\n        /* \"@openzeppelin/contracts/token/ERC1155/ERC1155.sol\":1380:1685  function supportsInterface(bytes4 interfaceId) public view virtual override(ERC165, IERC165) returns (bool) {... */\n      tag_26\n        /* \"#utility.yul\":1019:1206   */\n      jump\n        /* \"contracts/NftV1Contract.sol\":539:626  function setURI(string memory newuri) public onlyOwner {... */\n    tag_5:\n      tag_34\n      tag_35\n      calldatasize\n      0x04\n      tag_36\n      jump\t// in\n    tag_35:\n      tag_37\n      jump\t// in\n    tag_34:\n      stop\n        /* \"contracts/NftV1Contract.sol\":1972:2052  function name() public view returns(string memory) {... */\n    tag_6:\n      tag_38\n      tag_39\n      jump\t// in\n    tag_38:\n      mload(0x40)\n      tag_26\n      swap2\n      swap1\n      tag_41\n      jump\t// in\n        /* \"contracts/NftV1Contract.sol\":1043:1471  function mintUniqueNFT(address to, string memory _tokenURI, uint256 value) external  onlyOwner returns (uint256[] memory) {... */\n    tag_7:\n      tag_42\n      tag_43\n      calldatasize\n      0x04\n      tag_44\n      jump\t// in\n    tag_43:\n      tag_45\n      jump\t// in\n    tag_42:\n      mload(0x40)\n      tag_26\n      swap2\n      swap1\n      tag_47\n      jump\t// in\n        /* \"@openzeppelin/contracts/token/ERC1155/ERC1155.sol\":2084:2187  function uri(uint256 /* id */) public view virtual returns (string memory) {... */\n    tag_8:\n      tag_38\n      tag_49\n      calldatasize\n      0x04\n      tag_50\n      jump\t// in\n    tag_49:\n      tag_51\n      jump\t// in\n        /* \"contracts/NftV1Contract.sol\":2276:2365  function tokenId() public view virtual returns (uint256) {... */\n    tag_9:\n        /* \"contracts/NftV1Contract.sol\":2350:2358  _tokenId */\n      sload(0x04)\n        /* \"contracts/NftV1Contract.sol\":2276:2365  function tokenId() public view virtual returns (uint256) {... */\n      jump(tag_22)\n        /* \"@openzeppelin/contracts/token/ERC1155/ERC1155.sol\":4014:4443  function safeBatchTransferFrom(... */\n    tag_10:\n      tag_34\n      tag_57\n      calldatasize\n      0x04\n      tag_58\n      jump\t// in\n    tag_57:\n      tag_59\n      jump\t// in\n        /* \"@openzeppelin/contracts/token/ERC1155/ERC1155.sol\":2536:3088  function balanceOfBatch(... */\n    tag_11:\n      tag_42\n      tag_61\n      calldatasize\n      0x04\n      tag_62\n      jump\t// in\n    tag_61:\n      tag_63\n      jump\t// in\n        /* \"@openzeppelin/contracts/access/Ownable.sol\":2293:2394  function renounceOwnership() public virtual onlyOwner {... */\n    tag_12:\n      tag_34\n      tag_66\n      jump\t// in\n        /* \"@openzeppelin/contracts/access/Ownable.sol\":1638:1723  function owner() public view virtual returns (address) {... */\n    tag_13:\n      tag_67\n      tag_68\n      jump\t// in\n    tag_67:\n      mload(0x40)\n      tag_26\n      swap2\n      swap1\n      tag_70\n      jump\t// in\n        /* \"contracts/NftV1Contract.sol\":2058:2142  function symbol() public view returns(string memory) {... */\n    tag_14:\n      tag_38\n      tag_72\n      jump\t// in\n        /* \"@openzeppelin/contracts/token/ERC1155/ERC1155.sol\":3156:3300  function setApprovalForAll(address operator, bool approved) public virtual {... */\n    tag_15:\n      tag_34\n      tag_75\n      calldatasize\n      0x04\n      tag_76\n      jump\t// in\n    tag_75:\n      tag_77\n      jump\t// in\n        /* \"contracts/NftV1Contract.sol\":1527:1966  function mintUniqueNFT(address[] memory to, string memory _tokenURI, uint256 value) external onlyOwner returns (uint256[] memory) {... */\n    tag_16:\n      tag_42\n      tag_79\n      calldatasize\n      0x04\n      tag_80\n      jump\t// in\n    tag_79:\n      tag_81\n      jump\t// in\n        /* \"contracts/NftV1Contract.sol\":776:1037  function mint(address to, string memory _tokenURI, uint256 value) external onlyOwner returns (uint256) {... */\n    tag_17:\n      tag_22\n      tag_84\n      calldatasize\n      0x04\n      tag_44\n      jump\t// in\n    tag_84:\n      tag_85\n      jump\t// in\n        /* \"contracts/NftV1Contract.sol\":2148:2270  function tokenURI(uint256 tokenId) public view virtual returns (string memory) {... */\n    tag_18:\n      tag_38\n      tag_88\n      calldatasize\n      0x04\n      tag_50\n      jump\t// in\n    tag_88:\n      tag_89\n      jump\t// in\n        /* \"@openzeppelin/contracts/token/ERC1155/ERC1155.sol\":3367:3524  function isApprovedForAll(address account, address operator) public view virtual returns (bool) {... */\n    tag_19:\n      tag_28\n      tag_92\n      calldatasize\n      0x04\n      tag_93\n      jump\t// in\n    tag_92:\n      tag_94\n      jump\t// in\n        /* \"@openzeppelin/contracts/token/ERC1155/ERC1155.sol\":3591:3942  function safeTransferFrom(address from, address to, uint256 id, uint256 value, bytes memory data) public virtual {... */\n    tag_20:\n      tag_34\n      tag_97\n      calldatasize\n      0x04\n      tag_98\n      jump\t// in\n    tag_97:\n      tag_99\n      jump\t// in\n        /* \"@openzeppelin/contracts/access/Ownable.sol\":2543:2758  function transferOwnership(address newOwner) public virtual onlyOwner {... */\n    tag_21:\n      tag_34\n      tag_101\n      calldatasize\n      0x04\n      tag_102\n      jump\t// in\n    tag_101:\n      tag_103\n      jump\t// in\n        /* \"@openzeppelin/contracts/token/ERC1155/ERC1155.sol\":2247:2379  function balanceOf(address account, uint256 id) public view virtual returns (uint256) {... */\n    tag_25:\n        /* \"@openzeppelin/contracts/token/ERC1155/ERC1155.sol\":2324:2331  uint256 */\n      0x00\n        /* \"@openzeppelin/contracts/token/ERC1155/ERC1155.sol\":2350:2363  _balances[id] */\n      dup2\n      dup2\n      mstore\n      0x20\n      dup2\n      dup2\n      mstore\n      0x40\n      dup1\n      dup4\n      keccak256\n      sub(shl(0xa0, 0x01), 0x01)\n        /* \"@openzeppelin/contracts/token/ERC1155/ERC1155.sol\":2350:2372  _balances[id][account] */\n      dup7\n      and\n      dup5\n      mstore\n      swap1\n      swap2\n      mstore\n      swap1\n      keccak256\n      sload\n        /* \"@openzeppelin/contracts/token/ERC1155/ERC1155.sol\":2247:2379  function balanceOf(address account, uint256 id) public view virtual returns (uint256) {... */\n    tag_104:\n      swap3\n      swap2\n      pop\n      pop\n      jump\t// out\n        /* \"@openzeppelin/contracts/token/ERC1155/ERC1155.sol\":1380:1685  function supportsInterface(bytes4 interfaceId) public view virtual override(ERC165, IERC165) returns (bool) {... */\n    tag_31:\n        /* \"@openzeppelin/contracts/token/ERC1155/ERC1155.sol\":1482:1486  bool */\n      0x00\n      not(sub(shl(0xe0, 0x01), 0x01))\n        /* \"@openzeppelin/contracts/token/ERC1155/ERC1155.sol\":1517:1558  interfaceId == type(IERC1155).interfaceId */\n      dup3\n      and\n      shl(0xe1, 0x6cdb3d13)\n      eq\n      dup1\n        /* \"@openzeppelin/contracts/token/ERC1155/ERC1155.sol\":1517:1626  interfaceId == type(IERC1155).interfaceId ||... */\n      tag_106\n      jumpi\n      pop\n      not(sub(shl(0xe0, 0x01), 0x01))\n        /* \"@openzeppelin/contracts/token/ERC1155/ERC1155.sol\":1574:1626  interfaceId == type(IERC1155MetadataURI).interfaceId */\n      dup3\n      and\n      shl(0xe2, 0x03a24d07)\n      eq\n        /* \"@openzeppelin/contracts/token/ERC1155/ERC1155.sol\":1517:1626  interfaceId == type(IERC1155).interfaceId ||... */\n    tag_106:\n        /* \"@openzeppelin/contracts/token/ERC1155/ERC1155.sol\":1517:1678  interfaceId == type(IERC1155).interfaceId ||... */\n      dup1\n      tag_104\n      jumpi\n      pop\n      shl(0xe0, 0x01ffc9a7)\n      not(sub(shl(0xe0, 0x01), 0x01))\n        /* \"@openzeppelin/contracts/utils/introspection/ERC165.sol\":861:901  interfaceId == type(IERC165).interfaceId */\n      dup4\n      and\n      eq\n        /* \"@openzeppelin/contracts/token/ERC1155/ERC1155.sol\":1642:1678  super.supportsInterface(interfaceId) */\n      tag_104\n        /* \"@openzeppelin/contracts/utils/introspection/ERC165.sol\":762:908  function supportsInterface(bytes4 interfaceId) public view virtual returns (bool) {... */\n      jump\n        /* \"contracts/NftV1Contract.sol\":539:626  function setURI(string memory newuri) public onlyOwner {... */\n    tag_37:\n        /* \"@openzeppelin/contracts/access/Ownable.sol\":1531:1544  _checkOwner() */\n      tag_111\n        /* \"@openzeppelin/contracts/access/Ownable.sol\":1531:1542  _checkOwner */\n      tag_112\n        /* \"@openzeppelin/contracts/access/Ownable.sol\":1531:1544  _checkOwner() */\n      jump\t// in\n    tag_111:\n        /* \"contracts/NftV1Contract.sol\":604:619  _setURI(newuri) */\n      tag_114\n        /* \"contracts/NftV1Contract.sol\":612:618  newuri */\n      dup2\n        /* \"contracts/NftV1Contract.sol\":604:611  _setURI */\n      tag_115\n        /* \"contracts/NftV1Contract.sol\":604:619  _setURI(newuri) */\n      jump\t// in\n    tag_114:\n        /* \"contracts/NftV1Contract.sol\":539:626  function setURI(string memory newuri) public onlyOwner {... */\n      pop\n      jump\t// out\n        /* \"contracts/NftV1Contract.sol\":1972:2052  function name() public view returns(string memory) {... */\n    tag_39:\n        /* \"contracts/NftV1Contract.sol\":2008:2021  string memory */\n      0x60\n        /* \"contracts/NftV1Contract.sol\":2040:2045  _name */\n      0x05\n        /* \"contracts/NftV1Contract.sol\":2033:2045  return _name */\n      dup1\n      sload\n      tag_117\n      swap1\n      tag_118\n      jump\t// in\n    tag_117:\n      dup1\n      0x1f\n      add\n      0x20\n      dup1\n      swap2\n      div\n      mul\n      0x20\n      add\n      mload(0x40)\n      swap1\n      dup2\n      add\n      0x40\n      mstore\n      dup1\n      swap3\n      swap2\n      swap1\n      dup2\n      dup2\n      mstore\n      0x20\n      add\n      dup3\n      dup1\n      sload\n      tag_119\n      swap1\n      tag_118\n      jump\t// in\n    tag_119:\n      dup1\n      iszero\n      tag_120\n      jumpi\n      dup1\n      0x1f\n      lt\n      tag_121\n      jumpi\n      0x0100\n      dup1\n      dup4\n      sload\n      div\n      mul\n      dup4\n      mstore\n      swap2\n      0x20\n      add\n      swap2\n      jump(tag_120)\n    tag_121:\n      dup3\n      add\n      swap2\n      swap1\n      0x00\n      mstore\n      keccak256(0x00, 0x20)\n      swap1\n    tag_122:\n      dup2\n      sload\n      dup2\n      mstore\n      swap1\n      0x01\n      add\n      swap1\n      0x20\n      add\n      dup1\n      dup4\n      gt\n      tag_122\n      jumpi\n      dup3\n      swap1\n      sub\n      0x1f\n      and\n      dup3\n      add\n      swap2\n    tag_120:\n      pop\n      pop\n      pop\n      pop\n      pop\n      swap1\n      pop\n        /* \"contracts/NftV1Contract.sol\":1972:2052  function name() public view returns(string memory) {... */\n      swap1\n      jump\t// out\n        /* \"contracts/NftV1Contract.sol\":1043:1471  function mintUniqueNFT(address to, string memory _tokenURI, uint256 value) external  onlyOwner returns (uint256[] memory) {... */\n    tag_45:\n        /* \"contracts/NftV1Contract.sol\":1147:1163  uint256[] memory */\n      0x60\n        /* \"@openzeppelin/contracts/access/Ownable.sol\":1531:1544  _checkOwner() */\n      tag_124\n        /* \"@openzeppelin/contracts/access/Ownable.sol\":1531:1542  _checkOwner */\n      tag_112\n        /* \"@openzeppelin/contracts/access/Ownable.sol\":1531:1544  _checkOwner() */\n      jump\t// in\n    tag_124:\n        /* \"contracts/NftV1Contract.sol\":1174:1194  uint256[] memory ids */\n      0x00\n        /* \"contracts/NftV1Contract.sol\":1211:1216  value */\n      dup3\n      sub(shl(0x40, 0x01), 0x01)\n        /* \"contracts/NftV1Contract.sol\":1197:1217  new uint256[](value) */\n      dup2\n      gt\n      iszero\n      tag_127\n      jumpi\n      tag_127\n      tag_128\n      jump\t// in\n    tag_127:\n      mload(0x40)\n      swap1\n      dup1\n      dup3\n      mstore\n      dup1\n      0x20\n      mul\n      0x20\n      add\n      dup3\n      add\n      0x40\n      mstore\n      dup1\n      iszero\n      tag_129\n      jumpi\n      dup2\n      0x20\n      add\n      0x20\n      dup3\n      mul\n      dup1\n      calldatasize\n      dup4\n      calldatacopy\n      add\n      swap1\n      pop\n    tag_129:\n      pop\n        /* \"contracts/NftV1Contract.sol\":1174:1217  uint256[] memory ids = new uint256[](value) */\n      swap1\n      pop\n        /* \"contracts/NftV1Contract.sol\":1231:1240  uint256 i */\n      0x00\n        /* \"contracts/NftV1Contract.sol\":1227:1437  for(uint256 i = 0; i < value; i++) {... */\n    tag_130:\n        /* \"contracts/NftV1Contract.sol\":1250:1255  value */\n      dup4\n        /* \"contracts/NftV1Contract.sol\":1246:1247  i */\n      dup2\n        /* \"contracts/NftV1Contract.sol\":1246:1255  i < value */\n      lt\n        /* \"contracts/NftV1Contract.sol\":1227:1437  for(uint256 i = 0; i < value; i++) {... */\n      iszero\n      tag_131\n      jumpi\n        /* \"contracts/NftV1Contract.sol\":1296:1304  _tokenId */\n      0x04\n        /* \"contracts/NftV1Contract.sol\":1296:1306  _tokenId++ */\n      dup1\n      sload\n        /* \"contracts/NftV1Contract.sol\":1276:1293  uint256 newItemId */\n      0x00\n      swap2\n      dup3\n        /* \"contracts/NftV1Contract.sol\":1296:1306  _tokenId++ */\n      tag_133\n      dup4\n      tag_134\n      jump\t// in\n    tag_133:\n      swap2\n      swap1\n      pop\n      sstore\n        /* \"contracts/NftV1Contract.sol\":1276:1306  uint256 newItemId = _tokenId++ */\n      swap1\n      pop\n        /* \"contracts/NftV1Contract.sol\":1320:1347  _mint(to, newItemId, 1, \"\") */\n      tag_135\n        /* \"contracts/NftV1Contract.sol\":1326:1328  to */\n      dup8\n        /* \"contracts/NftV1Contract.sol\":1330:1339  newItemId */\n      dup3\n        /* \"contracts/NftV1Contract.sol\":1341:1342  1 */\n      0x01\n        /* \"contracts/NftV1Contract.sol\":1320:1347  _mint(to, newItemId, 1, \"\") */\n      mload(0x40)\n      dup1\n      0x20\n      add\n      0x40\n      mstore\n      dup1\n      0x00\n      dup2\n      mstore\n      pop\n        /* \"contracts/NftV1Contract.sol\":1320:1325  _mint */\n      tag_136\n        /* \"contracts/NftV1Contract.sol\":1320:1347  _mint(to, newItemId, 1, \"\") */\n      jump\t// in\n    tag_135:\n        /* \"contracts/NftV1Contract.sol\":1361:1395  _setTokenURI(newItemId, _tokenURI) */\n      tag_137\n        /* \"contracts/NftV1Contract.sol\":1374:1383  newItemId */\n      dup2\n        /* \"contracts/NftV1Contract.sol\":1385:1394  _tokenURI */\n      dup8\n        /* \"contracts/NftV1Contract.sol\":1361:1373  _setTokenURI */\n      tag_138\n        /* \"contracts/NftV1Contract.sol\":1361:1395  _setTokenURI(newItemId, _tokenURI) */\n      jump\t// in\n    tag_137:\n        /* \"contracts/NftV1Contract.sol\":1418:1427  newItemId */\n      dup1\n        /* \"contracts/NftV1Contract.sol\":1409:1412  ids */\n      dup4\n        /* \"contracts/NftV1Contract.sol\":1413:1414  i */\n      dup4\n        /* \"contracts/NftV1Contract.sol\":1409:1415  ids[i] */\n      dup2\n      mload\n      dup2\n      lt\n      tag_140\n      jumpi\n      tag_140\n      tag_141\n      jump\t// in\n    tag_140:\n      0x20\n      swap1\n      dup2\n      mul\n      swap2\n      swap1\n      swap2\n      add\n      add\n        /* \"contracts/NftV1Contract.sol\":1409:1427  ids[i] = newItemId */\n      mstore\n      pop\n        /* \"contracts/NftV1Contract.sol\":1257:1260  i++ */\n      0x01\n      add\n        /* \"contracts/NftV1Contract.sol\":1227:1437  for(uint256 i = 0; i < value; i++) {... */\n      jump(tag_130)\n    tag_131:\n      pop\n        /* \"contracts/NftV1Contract.sol\":1461:1464  ids */\n      swap5\n        /* \"contracts/NftV1Contract.sol\":1043:1471  function mintUniqueNFT(address to, string memory _tokenURI, uint256 value) external  onlyOwner returns (uint256[] memory) {... */\n      swap4\n      pop\n      pop\n      pop\n      pop\n      jump\t// out\n        /* \"@openzeppelin/contracts/token/ERC1155/ERC1155.sol\":2084:2187  function uri(uint256 /* id */) public view virtual returns (string memory) {... */\n    tag_51:\n        /* \"@openzeppelin/contracts/token/ERC1155/ERC1155.sol\":2144:2157  string memory */\n      0x60\n        /* \"@openzeppelin/contracts/token/ERC1155/ERC1155.sol\":2176:2180  _uri */\n      0x02\n        /* \"@openzeppelin/contracts/token/ERC1155/ERC1155.sol\":2169:2180  return _uri */\n      dup1\n      sload\n      tag_143\n      swap1\n      tag_118\n      jump\t// in\n    tag_143:\n      dup1\n      0x1f\n      add\n      0x20\n      dup1\n      swap2\n      div\n      mul\n      0x20\n      add\n      mload(0x40)\n      swap1\n      dup2\n      add\n      0x40\n      mstore\n      dup1\n      swap3\n      swap2\n      swap1\n      dup2\n      dup2\n      mstore\n      0x20\n      add\n      dup3\n      dup1\n      sload\n      tag_144\n      swap1\n      tag_118\n      jump\t// in\n    tag_144:\n      dup1\n      iszero\n      tag_145\n      jumpi\n      dup1\n      0x1f\n      lt\n      tag_146\n      jumpi\n      0x0100\n      dup1\n      dup4\n      sload\n      div\n      mul\n      dup4\n      mstore\n      swap2\n      0x20\n      add\n      swap2\n      jump(tag_145)\n    tag_146:\n      dup3\n      add\n      swap2\n      swap1\n      0x00\n      mstore\n      keccak256(0x00, 0x20)\n      swap1\n    tag_147:\n      dup2\n      sload\n      dup2\n      mstore\n      swap1\n      0x01\n      add\n      swap1\n      0x20\n      add\n      dup1\n      dup4\n      gt\n      tag_147\n      jumpi\n      dup3\n      swap1\n      sub\n      0x1f\n      and\n      dup3\n      add\n      swap2\n    tag_145:\n      pop\n      pop\n      pop\n      pop\n      pop\n      swap1\n      pop\n        /* \"@openzeppelin/contracts/token/ERC1155/ERC1155.sol\":2084:2187  function uri(uint256 /* id */) public view virtual returns (string memory) {... */\n      swap2\n      swap1\n      pop\n      jump\t// out\n        /* \"@openzeppelin/contracts/token/ERC1155/ERC1155.sol\":4014:4443  function safeBatchTransferFrom(... */\n    tag_59:\n        /* \"@openzeppelin/contracts/utils/Context.sol\":735:745  msg.sender */\n      caller\n      sub(shl(0xa0, 0x01), 0x01)\n        /* \"@openzeppelin/contracts/token/ERC1155/ERC1155.sol\":4251:4265  from != sender */\n      dup7\n      and\n      dup2\n      eq\n      dup1\n      iszero\n      swap1\n        /* \"@openzeppelin/contracts/token/ERC1155/ERC1155.sol\":4251:4300  from != sender && !isApprovedForAll(from, sender) */\n      tag_152\n      jumpi\n      pop\n        /* \"@openzeppelin/contracts/token/ERC1155/ERC1155.sol\":4270:4300  isApprovedForAll(from, sender) */\n      tag_153\n        /* \"@openzeppelin/contracts/token/ERC1155/ERC1155.sol\":4287:4291  from */\n      dup7\n        /* \"@openzeppelin/contracts/token/ERC1155/ERC1155.sol\":4293:4299  sender */\n      dup3\n        /* \"@openzeppelin/contracts/token/ERC1155/ERC1155.sol\":4270:4286  isApprovedForAll */\n      tag_94\n        /* \"@openzeppelin/contracts/token/ERC1155/ERC1155.sol\":4270:4300  isApprovedForAll(from, sender) */\n      jump\t// in\n    tag_153:\n        /* \"@openzeppelin/contracts/token/ERC1155/ERC1155.sol\":4269:4300  !isApprovedForAll(from, sender) */\n      iszero\n        /* \"@openzeppelin/contracts/token/ERC1155/ERC1155.sol\":4251:4300  from != sender && !isApprovedForAll(from, sender) */\n    tag_152:\n        /* \"@openzeppelin/contracts/token/ERC1155/ERC1155.sol\":4247:4376  if (from != sender && !isApprovedForAll(from, sender)) {... */\n      iszero\n      tag_154\n      jumpi\n        /* \"@openzeppelin/contracts/token/ERC1155/ERC1155.sol\":4352:4358  sender */\n      dup1\n        /* \"@openzeppelin/contracts/token/ERC1155/ERC1155.sol\":4360:4364  from */\n      dup7\n        /* \"@openzeppelin/contracts/token/ERC1155/ERC1155.sol\":4323:4365  ERC1155MissingApprovalForAll(sender, from) */\n      mload(0x40)\n      shl(0xe1, 0x711bec91)\n      dup2\n      mstore\n      0x04\n      add\n      tag_155\n      swap3\n      swap2\n      swap1\n      tag_156\n      jump\t// in\n    tag_155:\n      mload(0x40)\n      dup1\n      swap2\n      sub\n      swap1\n      revert\n        /* \"@openzeppelin/contracts/token/ERC1155/ERC1155.sol\":4247:4376  if (from != sender && !isApprovedForAll(from, sender)) {... */\n    tag_154:\n        /* \"@openzeppelin/contracts/token/ERC1155/ERC1155.sol\":4385:4436  _safeBatchTransferFrom(from, to, ids, values, data) */\n      tag_157\n        /* \"@openzeppelin/contracts/token/ERC1155/ERC1155.sol\":4408:4412  from */\n      dup7\n        /* \"@openzeppelin/contracts/token/ERC1155/ERC1155.sol\":4414:4416  to */\n      dup7\n        /* \"@openzeppelin/contracts/token/ERC1155/ERC1155.sol\":4418:4421  ids */\n      dup7\n        /* \"@openzeppelin/contracts/token/ERC1155/ERC1155.sol\":4423:4429  values */\n      dup7\n        /* \"@openzeppelin/contracts/token/ERC1155/ERC1155.sol\":4431:4435  data */\n      dup7\n        /* \"@openzeppelin/contracts/token/ERC1155/ERC1155.sol\":4385:4407  _safeBatchTransferFrom */\n      tag_158\n        /* \"@openzeppelin/contracts/token/ERC1155/ERC1155.sol\":4385:4436  _safeBatchTransferFrom(from, to, ids, values, data) */\n      jump\t// in\n    tag_157:\n        /* \"@openzeppelin/contracts/token/ERC1155/ERC1155.sol\":4198:4443  {... */\n      pop\n        /* \"@openzeppelin/contracts/token/ERC1155/ERC1155.sol\":4014:4443  function safeBatchTransferFrom(... */\n      pop\n      pop\n      pop\n      pop\n      pop\n      jump\t// out\n        /* \"@openzeppelin/contracts/token/ERC1155/ERC1155.sol\":2536:3088  function balanceOfBatch(... */\n    tag_63:\n        /* \"@openzeppelin/contracts/token/ERC1155/ERC1155.sol\":2660:2676  uint256[] memory */\n      0x60\n        /* \"@openzeppelin/contracts/token/ERC1155/ERC1155.sol\":2711:2714  ids */\n      dup2\n        /* \"@openzeppelin/contracts/token/ERC1155/ERC1155.sol\":2711:2721  ids.length */\n      mload\n        /* \"@openzeppelin/contracts/token/ERC1155/ERC1155.sol\":2692:2700  accounts */\n      dup4\n        /* \"@openzeppelin/contracts/token/ERC1155/ERC1155.sol\":2692:2707  accounts.length */\n      mload\n        /* \"@openzeppelin/contracts/token/ERC1155/ERC1155.sol\":2692:2721  accounts.length != ids.length */\n      eq\n        /* \"@openzeppelin/contracts/token/ERC1155/ERC1155.sol\":2688:2809  if (accounts.length != ids.length) {... */\n      tag_160\n      jumpi\n        /* \"@openzeppelin/contracts/token/ERC1155/ERC1155.sol\":2770:2780  ids.length */\n      dup2\n      mload\n        /* \"@openzeppelin/contracts/token/ERC1155/ERC1155.sol\":2782:2797  accounts.length */\n      dup4\n      mload\n        /* \"@openzeppelin/contracts/token/ERC1155/ERC1155.sol\":2744:2798  ERC1155InvalidArrayLength(ids.length, accounts.length) */\n      mload(0x40)\n      shl(0xe0, 0x5b059991)\n      dup2\n      mstore\n      0x04\n      dup2\n      add\n        /* \"#utility.yul\":11000:11025   */\n      swap3\n      swap1\n      swap3\n      mstore\n        /* \"#utility.yul\":11041:11059   */\n      0x24\n      dup3\n      add\n        /* \"#utility.yul\":11034:11068   */\n      mstore\n        /* \"#utility.yul\":10973:10991   */\n      0x44\n      add\n        /* \"@openzeppelin/contracts/token/ERC1155/ERC1155.sol\":2744:2798  ERC1155InvalidArrayLength(ids.length, accounts.length) */\n      tag_155\n        /* \"#utility.yul\":10826:11074   */\n      jump\n        /* \"@openzeppelin/contracts/token/ERC1155/ERC1155.sol\":2688:2809  if (accounts.length != ids.length) {... */\n    tag_160:\n        /* \"@openzeppelin/contracts/token/ERC1155/ERC1155.sol\":2819:2849  uint256[] memory batchBalances */\n      0x00\n        /* \"@openzeppelin/contracts/token/ERC1155/ERC1155.sol\":2866:2874  accounts */\n      dup4\n        /* \"@openzeppelin/contracts/token/ERC1155/ERC1155.sol\":2866:2881  accounts.length */\n      mload\n      sub(shl(0x40, 0x01), 0x01)\n        /* \"@openzeppelin/contracts/token/ERC1155/ERC1155.sol\":2852:2882  new uint256[](accounts.length) */\n      dup2\n      gt\n      iszero\n      tag_164\n      jumpi\n      tag_164\n      tag_128\n      jump\t// in\n    tag_164:\n      mload(0x40)\n      swap1\n      dup1\n      dup3\n      mstore\n      dup1\n      0x20\n      mul\n      0x20\n      add\n      dup3\n      add\n      0x40\n      mstore\n      dup1\n      iszero\n      tag_165\n      jumpi\n      dup2\n      0x20\n      add\n      0x20\n      dup3\n      mul\n      dup1\n      calldatasize\n      dup4\n      calldatacopy\n      add\n      swap1\n      pop\n    tag_165:\n      pop\n        /* \"@openzeppelin/contracts/token/ERC1155/ERC1155.sol\":2819:2882  uint256[] memory batchBalances = new uint256[](accounts.length) */\n      swap1\n      pop\n        /* \"@openzeppelin/contracts/token/ERC1155/ERC1155.sol\":2898:2907  uint256 i */\n      0x00\n        /* \"@openzeppelin/contracts/token/ERC1155/ERC1155.sol\":2893:3051  for (uint256 i = 0; i < accounts.length; ++i) {... */\n    tag_166:\n        /* \"@openzeppelin/contracts/token/ERC1155/ERC1155.sol\":2917:2925  accounts */\n      dup5\n        /* \"@openzeppelin/contracts/token/ERC1155/ERC1155.sol\":2917:2932  accounts.length */\n      mload\n        /* \"@openzeppelin/contracts/token/ERC1155/ERC1155.sol\":2913:2914  i */\n      dup2\n        /* \"@openzeppelin/contracts/token/ERC1155/ERC1155.sol\":2913:2932  i < accounts.length */\n      lt\n        /* \"@openzeppelin/contracts/token/ERC1155/ERC1155.sol\":2893:3051  for (uint256 i = 0; i < accounts.length; ++i) {... */\n      iszero\n      tag_167\n      jumpi\n        /* \"@openzeppelin/contracts/token/ERC1155/ERC1155.sol\":2972:3040  balanceOf(accounts.unsafeMemoryAccess(i), ids.unsafeMemoryAccess(i)) */\n      tag_169\n        /* \"@openzeppelin/contracts/token/ERC1155/ERC1155.sol\":2982:3012  accounts.unsafeMemoryAccess(i) */\n      tag_170\n        /* \"@openzeppelin/contracts/token/ERC1155/ERC1155.sol\":2982:2990  accounts */\n      dup7\n        /* \"@openzeppelin/contracts/token/ERC1155/ERC1155.sol\":3010:3011  i */\n      dup4\n        /* \"@openzeppelin/contracts/token/ERC1155/ERC1155.sol\":2982:3009  accounts.unsafeMemoryAccess */\n      tag_171\n        /* \"@openzeppelin/contracts/token/ERC1155/ERC1155.sol\":2982:3012  accounts.unsafeMemoryAccess(i) */\n      jump\t// in\n    tag_170:\n        /* \"@openzeppelin/contracts/token/ERC1155/ERC1155.sol\":3014:3039  ids.unsafeMemoryAccess(i) */\n      tag_23\n        /* \"@openzeppelin/contracts/token/ERC1155/ERC1155.sol\":3014:3017  ids */\n      dup7\n        /* \"@openzeppelin/contracts/token/ERC1155/ERC1155.sol\":3037:3038  i */\n      dup5\n        /* \"@openzeppelin/contracts/token/ERC1155/ERC1155.sol\":3014:3036  ids.unsafeMemoryAccess */\n      tag_171\n        /* \"@openzeppelin/contracts/token/ERC1155/ERC1155.sol\":3014:3039  ids.unsafeMemoryAccess(i) */\n      jump\t// in\n        /* \"@openzeppelin/contracts/token/ERC1155/ERC1155.sol\":2972:3040  balanceOf(accounts.unsafeMemoryAccess(i), ids.unsafeMemoryAccess(i)) */\n    tag_169:\n        /* \"@openzeppelin/contracts/token/ERC1155/ERC1155.sol\":2953:2966  batchBalances */\n      dup3\n        /* \"@openzeppelin/contracts/token/ERC1155/ERC1155.sol\":2967:2968  i */\n      dup3\n        /* \"@openzeppelin/contracts/token/ERC1155/ERC1155.sol\":2953:2969  batchBalances[i] */\n      dup2\n      mload\n      dup2\n      lt\n      tag_175\n      jumpi\n      tag_175\n      tag_141\n      jump\t// in\n    tag_175:\n      0x20\n      swap1\n      dup2\n      mul\n      swap2\n      swap1\n      swap2\n      add\n      add\n        /* \"@openzeppelin/contracts/token/ERC1155/ERC1155.sol\":2953:3040  batchBalances[i] = balanceOf(accounts.unsafeMemoryAccess(i), ids.unsafeMemoryAccess(i)) */\n      mstore\n        /* \"@openzeppelin/contracts/token/ERC1155/ERC1155.sol\":2934:2937  ++i */\n      0x01\n      add\n        /* \"@openzeppelin/contracts/token/ERC1155/ERC1155.sol\":2893:3051  for (uint256 i = 0; i < accounts.length; ++i) {... */\n      jump(tag_166)\n    tag_167:\n      pop\n        /* \"@openzeppelin/contracts/token/ERC1155/ERC1155.sol\":3068:3081  batchBalances */\n      swap4\n        /* \"@openzeppelin/contracts/token/ERC1155/ERC1155.sol\":2536:3088  function balanceOfBatch(... */\n      swap3\n      pop\n      pop\n      pop\n      jump\t// out\n        /* \"@openzeppelin/contracts/access/Ownable.sol\":2293:2394  function renounceOwnership() public virtual onlyOwner {... */\n    tag_66:\n        /* \"@openzeppelin/contracts/access/Ownable.sol\":1531:1544  _checkOwner() */\n      tag_177\n        /* \"@openzeppelin/contracts/access/Ownable.sol\":1531:1542  _checkOwner */\n      tag_112\n        /* \"@openzeppelin/contracts/access/Ownable.sol\":1531:1544  _checkOwner() */\n      jump\t// in\n    tag_177:\n        /* \"@openzeppelin/contracts/access/Ownable.sol\":2357:2387  _transferOwnership(address(0)) */\n      tag_179\n        /* \"@openzeppelin/contracts/access/Ownable.sol\":2384:2385  0 */\n      0x00\n        /* \"@openzeppelin/contracts/access/Ownable.sol\":2357:2375  _transferOwnership */\n      tag_180\n        /* \"@openzeppelin/contracts/access/Ownable.sol\":2357:2387  _transferOwnership(address(0)) */\n      jump\t// in\n    tag_179:\n        /* \"@openzeppelin/contracts/access/Ownable.sol\":2293:2394  function renounceOwnership() public virtual onlyOwner {... */\n      jump\t// out\n        /* \"@openzeppelin/contracts/access/Ownable.sol\":1638:1723  function owner() public view virtual returns (address) {... */\n    tag_68:\n        /* \"@openzeppelin/contracts/access/Ownable.sol\":1710:1716  _owner */\n      and(sub(shl(0xa0, 0x01), 0x01), sload(0x03))\n      swap1\n        /* \"@openzeppelin/contracts/access/Ownable.sol\":1638:1723  function owner() public view virtual returns (address) {... */\n      jump\t// out\n        /* \"contracts/NftV1Contract.sol\":2058:2142  function symbol() public view returns(string memory) {... */\n    tag_72:\n        /* \"contracts/NftV1Contract.sol\":2096:2109  string memory */\n      0x60\n        /* \"contracts/NftV1Contract.sol\":2128:2135  _symbol */\n      0x06\n        /* \"contracts/NftV1Contract.sol\":2121:2135  return _symbol */\n      dup1\n      sload\n      tag_117\n      swap1\n      tag_118\n      jump\t// in\n        /* \"@openzeppelin/contracts/token/ERC1155/ERC1155.sol\":3156:3300  function setApprovalForAll(address operator, bool approved) public virtual {... */\n    tag_77:\n        /* \"@openzeppelin/contracts/token/ERC1155/ERC1155.sol\":3241:3293  _setApprovalForAll(_msgSender(), operator, approved) */\n      tag_189\n        /* \"@openzeppelin/contracts/utils/Context.sol\":735:745  msg.sender */\n      caller\n        /* \"@openzeppelin/contracts/token/ERC1155/ERC1155.sol\":3274:3282  operator */\n      dup4\n        /* \"@openzeppelin/contracts/token/ERC1155/ERC1155.sol\":3284:3292  approved */\n      dup4\n        /* \"@openzeppelin/contracts/token/ERC1155/ERC1155.sol\":3241:3259  _setApprovalForAll */\n      tag_191\n        /* \"@openzeppelin/contracts/token/ERC1155/ERC1155.sol\":3241:3293  _setApprovalForAll(_msgSender(), operator, approved) */\n      jump\t// in\n    tag_189:\n        /* \"@openzeppelin/contracts/token/ERC1155/ERC1155.sol\":3156:3300  function setApprovalForAll(address operator, bool approved) public virtual {... */\n      pop\n      pop\n      jump\t// out\n        /* \"contracts/NftV1Contract.sol\":1527:1966  function mintUniqueNFT(address[] memory to, string memory _tokenURI, uint256 value) external onlyOwner returns (uint256[] memory) {... */\n    tag_81:\n        /* \"contracts/NftV1Contract.sol\":1639:1655  uint256[] memory */\n      0x60\n        /* \"@openzeppelin/contracts/access/Ownable.sol\":1531:1544  _checkOwner() */\n      tag_193\n        /* \"@openzeppelin/contracts/access/Ownable.sol\":1531:1542  _checkOwner */\n      tag_112\n        /* \"@openzeppelin/contracts/access/Ownable.sol\":1531:1544  _checkOwner() */\n      jump\t// in\n    tag_193:\n        /* \"contracts/NftV1Contract.sol\":1666:1686  uint256[] memory ids */\n      0x00\n        /* \"contracts/NftV1Contract.sol\":1703:1708  value */\n      dup3\n      sub(shl(0x40, 0x01), 0x01)\n        /* \"contracts/NftV1Contract.sol\":1689:1709  new uint256[](value) */\n      dup2\n      gt\n      iszero\n      tag_196\n      jumpi\n      tag_196\n      tag_128\n      jump\t// in\n    tag_196:\n      mload(0x40)\n      swap1\n      dup1\n      dup3\n      mstore\n      dup1\n      0x20\n      mul\n      0x20\n      add\n      dup3\n      add\n      0x40\n      mstore\n      dup1\n      iszero\n      tag_197\n      jumpi\n      dup2\n      0x20\n      add\n      0x20\n      dup3\n      mul\n      dup1\n      calldatasize\n      dup4\n      calldatacopy\n      add\n      swap1\n      pop\n    tag_197:\n      pop\n        /* \"contracts/NftV1Contract.sol\":1666:1709  uint256[] memory ids = new uint256[](value) */\n      swap1\n      pop\n        /* \"contracts/NftV1Contract.sol\":1723:1732  uint256 i */\n      0x00\n        /* \"contracts/NftV1Contract.sol\":1719:1932  for(uint256 i = 0; i < value; i++) {... */\n    tag_198:\n        /* \"contracts/NftV1Contract.sol\":1742:1747  value */\n      dup4\n        /* \"contracts/NftV1Contract.sol\":1738:1739  i */\n      dup2\n        /* \"contracts/NftV1Contract.sol\":1738:1747  i < value */\n      lt\n        /* \"contracts/NftV1Contract.sol\":1719:1932  for(uint256 i = 0; i < value; i++) {... */\n      iszero\n      tag_131\n      jumpi\n        /* \"contracts/NftV1Contract.sol\":1788:1796  _tokenId */\n      0x04\n        /* \"contracts/NftV1Contract.sol\":1788:1798  _tokenId++ */\n      dup1\n      sload\n        /* \"contracts/NftV1Contract.sol\":1768:1785  uint256 newItemId */\n      0x00\n      swap2\n      dup3\n        /* \"contracts/NftV1Contract.sol\":1788:1798  _tokenId++ */\n      tag_201\n      dup4\n      tag_134\n      jump\t// in\n    tag_201:\n      swap2\n      swap1\n      pop\n      sstore\n        /* \"contracts/NftV1Contract.sol\":1768:1798  uint256 newItemId = _tokenId++ */\n      swap1\n      pop\n        /* \"contracts/NftV1Contract.sol\":1812:1842  _mint(to[i], newItemId, 1, \"\") */\n      tag_202\n        /* \"contracts/NftV1Contract.sol\":1818:1820  to */\n      dup8\n        /* \"contracts/NftV1Contract.sol\":1821:1822  i */\n      dup4\n        /* \"contracts/NftV1Contract.sol\":1818:1823  to[i] */\n      dup2\n      mload\n      dup2\n      lt\n      tag_204\n      jumpi\n      tag_204\n      tag_141\n      jump\t// in\n    tag_204:\n      0x20\n      mul\n      0x20\n      add\n      add\n      mload\n        /* \"contracts/NftV1Contract.sol\":1825:1834  newItemId */\n      dup3\n        /* \"contracts/NftV1Contract.sol\":1836:1837  1 */\n      0x01\n        /* \"contracts/NftV1Contract.sol\":1812:1842  _mint(to[i], newItemId, 1, \"\") */\n      mload(0x40)\n      dup1\n      0x20\n      add\n      0x40\n      mstore\n      dup1\n      0x00\n      dup2\n      mstore\n      pop\n        /* \"contracts/NftV1Contract.sol\":1812:1817  _mint */\n      tag_136\n        /* \"contracts/NftV1Contract.sol\":1812:1842  _mint(to[i], newItemId, 1, \"\") */\n      jump\t// in\n    tag_202:\n        /* \"contracts/NftV1Contract.sol\":1856:1890  _setTokenURI(newItemId, _tokenURI) */\n      tag_205\n        /* \"contracts/NftV1Contract.sol\":1869:1878  newItemId */\n      dup2\n        /* \"contracts/NftV1Contract.sol\":1880:1889  _tokenURI */\n      dup8\n        /* \"contracts/NftV1Contract.sol\":1856:1868  _setTokenURI */\n      tag_138\n        /* \"contracts/NftV1Contract.sol\":1856:1890  _setTokenURI(newItemId, _tokenURI) */\n      jump\t// in\n    tag_205:\n        /* \"contracts/NftV1Contract.sol\":1913:1922  newItemId */\n      dup1\n        /* \"contracts/NftV1Contract.sol\":1904:1907  ids */\n      dup4\n        /* \"contracts/NftV1Contract.sol\":1908:1909  i */\n      dup4\n        /* \"contracts/NftV1Contract.sol\":1904:1910  ids[i] */\n      dup2\n      mload\n      dup2\n      lt\n      tag_207\n      jumpi\n      tag_207\n      tag_141\n      jump\t// in\n    tag_207:\n      0x20\n      swap1\n      dup2\n      mul\n      swap2\n      swap1\n      swap2\n      add\n      add\n        /* \"contracts/NftV1Contract.sol\":1904:1922  ids[i] = newItemId */\n      mstore\n      pop\n        /* \"contracts/NftV1Contract.sol\":1749:1752  i++ */\n      0x01\n      add\n        /* \"contracts/NftV1Contract.sol\":1719:1932  for(uint256 i = 0; i < value; i++) {... */\n      jump(tag_198)\n        /* \"contracts/NftV1Contract.sol\":776:1037  function mint(address to, string memory _tokenURI, uint256 value) external onlyOwner returns (uint256) {... */\n    tag_85:\n        /* \"contracts/NftV1Contract.sol\":870:877  uint256 */\n      0x00\n        /* \"@openzeppelin/contracts/access/Ownable.sol\":1531:1544  _checkOwner() */\n      tag_209\n        /* \"@openzeppelin/contracts/access/Ownable.sol\":1531:1542  _checkOwner */\n      tag_112\n        /* \"@openzeppelin/contracts/access/Ownable.sol\":1531:1544  _checkOwner() */\n      jump\t// in\n    tag_209:\n        /* \"contracts/NftV1Contract.sol\":909:917  _tokenId */\n      0x04\n        /* \"contracts/NftV1Contract.sol\":909:919  _tokenId++ */\n      dup1\n      sload\n        /* \"contracts/NftV1Contract.sol\":889:906  uint256 newItemId */\n      0x00\n      swap2\n      dup3\n        /* \"contracts/NftV1Contract.sol\":909:919  _tokenId++ */\n      tag_211\n      dup4\n      tag_134\n      jump\t// in\n    tag_211:\n      swap2\n      swap1\n      pop\n      sstore\n        /* \"contracts/NftV1Contract.sol\":889:919  uint256 newItemId = _tokenId++ */\n      swap1\n      pop\n        /* \"contracts/NftV1Contract.sol\":929:960  _mint(to, newItemId, value, \"\") */\n      tag_212\n        /* \"contracts/NftV1Contract.sol\":935:937  to */\n      dup6\n        /* \"contracts/NftV1Contract.sol\":939:948  newItemId */\n      dup3\n        /* \"contracts/NftV1Contract.sol\":950:955  value */\n      dup6\n        /* \"contracts/NftV1Contract.sol\":929:960  _mint(to, newItemId, value, \"\") */\n      mload(0x40)\n      dup1\n      0x20\n      add\n      0x40\n      mstore\n      dup1\n      0x00\n      dup2\n      mstore\n      pop\n        /* \"contracts/NftV1Contract.sol\":929:934  _mint */\n      tag_136\n        /* \"contracts/NftV1Contract.sol\":929:960  _mint(to, newItemId, value, \"\") */\n      jump\t// in\n    tag_212:\n        /* \"contracts/NftV1Contract.sol\":970:1004  _setTokenURI(newItemId, _tokenURI) */\n      tag_213\n        /* \"contracts/NftV1Contract.sol\":983:992  newItemId */\n      dup2\n        /* \"contracts/NftV1Contract.sol\":994:1003  _tokenURI */\n      dup6\n        /* \"contracts/NftV1Contract.sol\":970:982  _setTokenURI */\n      tag_138\n        /* \"contracts/NftV1Contract.sol\":970:1004  _setTokenURI(newItemId, _tokenURI) */\n      jump\t// in\n    tag_213:\n        /* \"contracts/NftV1Contract.sol\":1021:1030  newItemId */\n      swap5\n        /* \"contracts/NftV1Contract.sol\":776:1037  function mint(address to, string memory _tokenURI, uint256 value) external onlyOwner returns (uint256) {... */\n      swap4\n      pop\n      pop\n      pop\n      pop\n      jump\t// out\n        /* \"contracts/NftV1Contract.sol\":2148:2270  function tokenURI(uint256 tokenId) public view virtual returns (string memory) {... */\n    tag_89:\n        /* \"contracts/NftV1Contract.sol\":2244:2263  _tokenURIs[tokenId] */\n      0x00\n      dup2\n      dup2\n      mstore\n        /* \"contracts/NftV1Contract.sol\":2244:2254  _tokenURIs */\n      0x07\n        /* \"contracts/NftV1Contract.sol\":2244:2263  _tokenURIs[tokenId] */\n      0x20\n      mstore\n      0x40\n      swap1\n      keccak256\n        /* \"contracts/NftV1Contract.sol\":2237:2263  return _tokenURIs[tokenId] */\n      dup1\n      sload\n        /* \"contracts/NftV1Contract.sol\":2212:2225  string memory */\n      0x60\n      swap2\n        /* \"contracts/NftV1Contract.sol\":2244:2263  _tokenURIs[tokenId] */\n      swap1\n        /* \"contracts/NftV1Contract.sol\":2237:2263  return _tokenURIs[tokenId] */\n      tag_143\n      swap1\n      tag_118\n      jump\t// in\n        /* \"@openzeppelin/contracts/token/ERC1155/ERC1155.sol\":3367:3524  function isApprovedForAll(address account, address operator) public view virtual returns (bool) {... */\n    tag_94:\n      sub(shl(0xa0, 0x01), 0x01)\n        /* \"@openzeppelin/contracts/token/ERC1155/ERC1155.sol\":3480:3507  _operatorApprovals[account] */\n      swap2\n      dup3\n      and\n        /* \"@openzeppelin/contracts/token/ERC1155/ERC1155.sol\":3457:3461  bool */\n      0x00\n        /* \"@openzeppelin/contracts/token/ERC1155/ERC1155.sol\":3480:3507  _operatorApprovals[account] */\n      swap1\n      dup2\n      mstore\n        /* \"@openzeppelin/contracts/token/ERC1155/ERC1155.sol\":3480:3498  _operatorApprovals */\n      0x01\n        /* \"@openzeppelin/contracts/token/ERC1155/ERC1155.sol\":3480:3507  _operatorApprovals[account] */\n      0x20\n      swap1\n      dup2\n      mstore\n      0x40\n      dup1\n      dup4\n      keccak256\n        /* \"@openzeppelin/contracts/token/ERC1155/ERC1155.sol\":3480:3517  _operatorApprovals[account][operator] */\n      swap4\n      swap1\n      swap5\n      and\n      dup3\n      mstore\n      swap2\n      swap1\n      swap2\n      mstore\n      keccak256\n      sload\n      0xff\n      and\n      swap1\n        /* \"@openzeppelin/contracts/token/ERC1155/ERC1155.sol\":3367:3524  function isApprovedForAll(address account, address operator) public view virtual returns (bool) {... */\n      jump\t// out\n        /* \"@openzeppelin/contracts/token/ERC1155/ERC1155.sol\":3591:3942  function safeTransferFrom(address from, address to, uint256 id, uint256 value, bytes memory data) public virtual {... */\n    tag_99:\n        /* \"@openzeppelin/contracts/utils/Context.sol\":735:745  msg.sender */\n      caller\n      sub(shl(0xa0, 0x01), 0x01)\n        /* \"@openzeppelin/contracts/token/ERC1155/ERC1155.sol\":3757:3771  from != sender */\n      dup7\n      and\n      dup2\n      eq\n      dup1\n      iszero\n      swap1\n        /* \"@openzeppelin/contracts/token/ERC1155/ERC1155.sol\":3757:3806  from != sender && !isApprovedForAll(from, sender) */\n      tag_223\n      jumpi\n      pop\n        /* \"@openzeppelin/contracts/token/ERC1155/ERC1155.sol\":3776:3806  isApprovedForAll(from, sender) */\n      tag_224\n        /* \"@openzeppelin/contracts/token/ERC1155/ERC1155.sol\":3793:3797  from */\n      dup7\n        /* \"@openzeppelin/contracts/token/ERC1155/ERC1155.sol\":3799:3805  sender */\n      dup3\n        /* \"@openzeppelin/contracts/token/ERC1155/ERC1155.sol\":3776:3792  isApprovedForAll */\n      tag_94\n        /* \"@openzeppelin/contracts/token/ERC1155/ERC1155.sol\":3776:3806  isApprovedForAll(from, sender) */\n      jump\t// in\n    tag_224:\n        /* \"@openzeppelin/contracts/token/ERC1155/ERC1155.sol\":3775:3806  !isApprovedForAll(from, sender) */\n      iszero\n        /* \"@openzeppelin/contracts/token/ERC1155/ERC1155.sol\":3757:3806  from != sender && !isApprovedForAll(from, sender) */\n    tag_223:\n        /* \"@openzeppelin/contracts/token/ERC1155/ERC1155.sol\":3753:3882  if (from != sender && !isApprovedForAll(from, sender)) {... */\n      iszero\n      tag_225\n      jumpi\n        /* \"@openzeppelin/contracts/token/ERC1155/ERC1155.sol\":3858:3864  sender */\n      dup1\n        /* \"@openzeppelin/contracts/token/ERC1155/ERC1155.sol\":3866:3870  from */\n      dup7\n        /* \"@openzeppelin/contracts/token/ERC1155/ERC1155.sol\":3829:3871  ERC1155MissingApprovalForAll(sender, from) */\n      mload(0x40)\n      shl(0xe1, 0x711bec91)\n      dup2\n      mstore\n      0x04\n      add\n      tag_155\n      swap3\n      swap2\n      swap1\n      tag_156\n      jump\t// in\n        /* \"@openzeppelin/contracts/token/ERC1155/ERC1155.sol\":3753:3882  if (from != sender && !isApprovedForAll(from, sender)) {... */\n    tag_225:\n        /* \"@openzeppelin/contracts/token/ERC1155/ERC1155.sol\":3891:3935  _safeTransferFrom(from, to, id, value, data) */\n      tag_157\n        /* \"@openzeppelin/contracts/token/ERC1155/ERC1155.sol\":3909:3913  from */\n      dup7\n        /* \"@openzeppelin/contracts/token/ERC1155/ERC1155.sol\":3915:3917  to */\n      dup7\n        /* \"@openzeppelin/contracts/token/ERC1155/ERC1155.sol\":3919:3921  id */\n      dup7\n        /* \"@openzeppelin/contracts/token/ERC1155/ERC1155.sol\":3923:3928  value */\n      dup7\n        /* \"@openzeppelin/contracts/token/ERC1155/ERC1155.sol\":3930:3934  data */\n      dup7\n        /* \"@openzeppelin/contracts/token/ERC1155/ERC1155.sol\":3891:3908  _safeTransferFrom */\n      tag_228\n        /* \"@openzeppelin/contracts/token/ERC1155/ERC1155.sol\":3891:3935  _safeTransferFrom(from, to, id, value, data) */\n      jump\t// in\n        /* \"@openzeppelin/contracts/access/Ownable.sol\":2543:2758  function transferOwnership(address newOwner) public virtual onlyOwner {... */\n    tag_103:\n        /* \"@openzeppelin/contracts/access/Ownable.sol\":1531:1544  _checkOwner() */\n      tag_230\n        /* \"@openzeppelin/contracts/access/Ownable.sol\":1531:1542  _checkOwner */\n      tag_112\n        /* \"@openzeppelin/contracts/access/Ownable.sol\":1531:1544  _checkOwner() */\n      jump\t// in\n    tag_230:\n      sub(shl(0xa0, 0x01), 0x01)\n        /* \"@openzeppelin/contracts/access/Ownable.sol\":2627:2649  newOwner == address(0) */\n      dup2\n      and\n        /* \"@openzeppelin/contracts/access/Ownable.sol\":2623:2714  if (newOwner == address(0)) {... */\n      tag_232\n      jumpi\n        /* \"@openzeppelin/contracts/access/Ownable.sol\":2700:2701  0 */\n      0x00\n        /* \"@openzeppelin/contracts/access/Ownable.sol\":2672:2703  OwnableInvalidOwner(address(0)) */\n      mload(0x40)\n      shl(0xe0, 0x1e4fbdf7)\n      dup2\n      mstore\n      0x04\n      add\n      tag_155\n      swap2\n      swap1\n      tag_70\n      jump\t// in\n        /* \"@openzeppelin/contracts/access/Ownable.sol\":2623:2714  if (newOwner == address(0)) {... */\n    tag_232:\n        /* \"@openzeppelin/contracts/access/Ownable.sol\":2723:2751  _transferOwnership(newOwner) */\n      tag_114\n        /* \"@openzeppelin/contracts/access/Ownable.sol\":2742:2750  newOwner */\n      dup2\n        /* \"@openzeppelin/contracts/access/Ownable.sol\":2723:2741  _transferOwnership */\n      tag_180\n        /* \"@openzeppelin/contracts/access/Ownable.sol\":2723:2751  _transferOwnership(newOwner) */\n      jump\t// in\n        /* \"@openzeppelin/contracts/access/Ownable.sol\":1796:1958  function _checkOwner() internal view virtual {... */\n    tag_112:\n        /* \"@openzeppelin/contracts/utils/Context.sol\":735:745  msg.sender */\n      caller\n        /* \"@openzeppelin/contracts/access/Ownable.sol\":1855:1862  owner() */\n      tag_238\n        /* \"@openzeppelin/contracts/access/Ownable.sol\":1855:1860  owner */\n      tag_68\n        /* \"@openzeppelin/contracts/access/Ownable.sol\":1855:1862  owner() */\n      jump\t// in\n    tag_238:\n      sub(shl(0xa0, 0x01), 0x01)\n        /* \"@openzeppelin/contracts/access/Ownable.sol\":1855:1878  owner() != _msgSender() */\n      and\n      eq\n        /* \"@openzeppelin/contracts/access/Ownable.sol\":1851:1952  if (owner() != _msgSender()) {... */\n      tag_179\n      jumpi\n        /* \"@openzeppelin/contracts/utils/Context.sol\":735:745  msg.sender */\n      caller\n        /* \"@openzeppelin/contracts/access/Ownable.sol\":1901:1941  OwnableUnauthorizedAccount(_msgSender()) */\n      mload(0x40)\n      shl(0xe0, 0x118cdaa7)\n      dup2\n      mstore\n      0x04\n      add\n      tag_155\n      swap2\n      swap1\n      tag_70\n      jump\t// in\n        /* \"@openzeppelin/contracts/token/ERC1155/ERC1155.sol\":10282:10368  function _setURI(string memory newuri) internal virtual {... */\n    tag_115:\n        /* \"@openzeppelin/contracts/token/ERC1155/ERC1155.sol\":10348:10352  _uri */\n      0x02\n        /* \"@openzeppelin/contracts/token/ERC1155/ERC1155.sol\":10348:10361  _uri = newuri */\n      tag_189\n        /* \"@openzeppelin/contracts/token/ERC1155/ERC1155.sol\":10355:10361  newuri */\n      dup3\n        /* \"@openzeppelin/contracts/token/ERC1155/ERC1155.sol\":10348:10352  _uri */\n      dup3\n        /* \"@openzeppelin/contracts/token/ERC1155/ERC1155.sol\":10348:10361  _uri = newuri */\n      tag_244\n      jump\t// in\n        /* \"@openzeppelin/contracts/token/ERC1155/ERC1155.sol\":10746:11092  function _mint(address to, uint256 id, uint256 value, bytes memory data) internal {... */\n    tag_136:\n      sub(shl(0xa0, 0x01), 0x01)\n        /* \"@openzeppelin/contracts/token/ERC1155/ERC1155.sol\":10842:10858  to == address(0) */\n      dup5\n      and\n        /* \"@openzeppelin/contracts/token/ERC1155/ERC1155.sol\":10838:10926  if (to == address(0)) {... */\n      tag_246\n      jumpi\n        /* \"@openzeppelin/contracts/token/ERC1155/ERC1155.sol\":10912:10913  0 */\n      0x00\n        /* \"@openzeppelin/contracts/token/ERC1155/ERC1155.sol\":10881:10915  ERC1155InvalidReceiver(address(0)) */\n      mload(0x40)\n      shl(0xe1, 0x2bfa23e7)\n      dup2\n      mstore\n      0x04\n      add\n      tag_155\n      swap2\n      swap1\n      tag_70\n      jump\t// in\n        /* \"@openzeppelin/contracts/token/ERC1155/ERC1155.sol\":10838:10926  if (to == address(0)) {... */\n    tag_246:\n        /* \"@openzeppelin/contracts/token/ERC1155/ERC1155.sol\":10936:10956  uint256[] memory ids */\n      0x00\n        /* \"@openzeppelin/contracts/token/ERC1155/ERC1155.sol\":10958:10981  uint256[] memory values */\n      dup1\n        /* \"@openzeppelin/contracts/token/ERC1155/ERC1155.sol\":10985:11014  _asSingletonArrays(id, value) */\n      tag_248\n        /* \"@openzeppelin/contracts/token/ERC1155/ERC1155.sol\":11004:11006  id */\n      dup6\n        /* \"@openzeppelin/contracts/token/ERC1155/ERC1155.sol\":11008:11013  value */\n      dup6\n        /* \"@openzeppelin/contracts/token/ERC1155/ERC1155.sol\":10985:11003  _asSingletonArrays */\n      tag_249\n        /* \"@openzeppelin/contracts/token/ERC1155/ERC1155.sol\":10985:11014  _asSingletonArrays(id, value) */\n      jump\t// in\n    tag_248:\n        /* \"@openzeppelin/contracts/token/ERC1155/ERC1155.sol\":10935:11014  (uint256[] memory ids, uint256[] memory values) = _asSingletonArrays(id, value) */\n      swap2\n      pop\n      swap2\n      pop\n        /* \"@openzeppelin/contracts/token/ERC1155/ERC1155.sol\":11024:11085  _updateWithAcceptanceCheck(address(0), to, ids, values, data) */\n      tag_157\n        /* \"@openzeppelin/contracts/token/ERC1155/ERC1155.sol\":11059:11060  0 */\n      0x00\n        /* \"@openzeppelin/contracts/token/ERC1155/ERC1155.sol\":11063:11065  to */\n      dup8\n        /* \"@openzeppelin/contracts/token/ERC1155/ERC1155.sol\":11067:11070  ids */\n      dup5\n        /* \"@openzeppelin/contracts/token/ERC1155/ERC1155.sol\":11072:11078  values */\n      dup5\n        /* \"@openzeppelin/contracts/token/ERC1155/ERC1155.sol\":11080:11084  data */\n      dup8\n        /* \"@openzeppelin/contracts/token/ERC1155/ERC1155.sol\":11024:11050  _updateWithAcceptanceCheck */\n      tag_251\n        /* \"@openzeppelin/contracts/token/ERC1155/ERC1155.sol\":11024:11085  _updateWithAcceptanceCheck(address(0), to, ids, values, data) */\n      jump\t// in\n        /* \"contracts/NftV1Contract.sol\":637:766  function _setTokenURI(uint256 tokenId, string memory _tokenURI) internal virtual {... */\n    tag_138:\n        /* \"contracts/NftV1Contract.sol\":728:747  _tokenURIs[tokenId] */\n      0x00\n      dup3\n      dup2\n      mstore\n        /* \"contracts/NftV1Contract.sol\":728:738  _tokenURIs */\n      0x07\n        /* \"contracts/NftV1Contract.sol\":728:747  _tokenURIs[tokenId] */\n      0x20\n      mstore\n      0x40\n      swap1\n      keccak256\n        /* \"contracts/NftV1Contract.sol\":728:759  _tokenURIs[tokenId] = _tokenURI */\n      tag_253\n        /* \"contracts/NftV1Contract.sol\":750:759  _tokenURI */\n      dup3\n        /* \"contracts/NftV1Contract.sol\":728:747  _tokenURIs[tokenId] */\n      dup3\n        /* \"contracts/NftV1Contract.sol\":728:759  _tokenURIs[tokenId] = _tokenURI */\n      tag_244\n      jump\t// in\n    tag_253:\n      pop\n        /* \"contracts/NftV1Contract.sol\":637:766  function _setTokenURI(uint256 tokenId, string memory _tokenURI) internal virtual {... */\n      pop\n      pop\n      jump\t// out\n        /* \"@openzeppelin/contracts/token/ERC1155/ERC1155.sol\":9015:9460  function _safeBatchTransferFrom(... */\n    tag_158:\n      sub(shl(0xa0, 0x01), 0x01)\n        /* \"@openzeppelin/contracts/token/ERC1155/ERC1155.sol\":9208:9224  to == address(0) */\n      dup5\n      and\n        /* \"@openzeppelin/contracts/token/ERC1155/ERC1155.sol\":9204:9292  if (to == address(0)) {... */\n      tag_256\n      jumpi\n        /* \"@openzeppelin/contracts/token/ERC1155/ERC1155.sol\":9278:9279  0 */\n      0x00\n        /* \"@openzeppelin/contracts/token/ERC1155/ERC1155.sol\":9247:9281  ERC1155InvalidReceiver(address(0)) */\n      mload(0x40)\n      shl(0xe1, 0x2bfa23e7)\n      dup2\n      mstore\n      0x04\n      add\n      tag_155\n      swap2\n      swap1\n      tag_70\n      jump\t// in\n        /* \"@openzeppelin/contracts/token/ERC1155/ERC1155.sol\":9204:9292  if (to == address(0)) {... */\n    tag_256:\n      sub(shl(0xa0, 0x01), 0x01)\n        /* \"@openzeppelin/contracts/token/ERC1155/ERC1155.sol\":9305:9323  from == address(0) */\n      dup6\n      and\n        /* \"@openzeppelin/contracts/token/ERC1155/ERC1155.sol\":9301:9389  if (from == address(0)) {... */\n      tag_258\n      jumpi\n        /* \"@openzeppelin/contracts/token/ERC1155/ERC1155.sol\":9375:9376  0 */\n      0x00\n        /* \"@openzeppelin/contracts/token/ERC1155/ERC1155.sol\":9346:9378  ERC1155InvalidSender(address(0)) */\n      mload(0x40)\n      shl(0xe2, 0x6a0d45)\n      dup2\n      mstore\n      0x04\n      add\n      tag_155\n      swap2\n      swap1\n      tag_70\n      jump\t// in\n        /* \"@openzeppelin/contracts/token/ERC1155/ERC1155.sol\":9301:9389  if (from == address(0)) {... */\n    tag_258:\n        /* \"@openzeppelin/contracts/token/ERC1155/ERC1155.sol\":9398:9453  _updateWithAcceptanceCheck(from, to, ids, values, data) */\n      tag_260\n        /* \"@openzeppelin/contracts/token/ERC1155/ERC1155.sol\":9425:9429  from */\n      dup6\n        /* \"@openzeppelin/contracts/token/ERC1155/ERC1155.sol\":9431:9433  to */\n      dup6\n        /* \"@openzeppelin/contracts/token/ERC1155/ERC1155.sol\":9435:9438  ids */\n      dup6\n        /* \"@openzeppelin/contracts/token/ERC1155/ERC1155.sol\":9440:9446  values */\n      dup6\n        /* \"@openzeppelin/contracts/token/ERC1155/ERC1155.sol\":9448:9452  data */\n      dup6\n        /* \"@openzeppelin/contracts/token/ERC1155/ERC1155.sol\":9398:9424  _updateWithAcceptanceCheck */\n      tag_251\n        /* \"@openzeppelin/contracts/token/ERC1155/ERC1155.sol\":9398:9453  _updateWithAcceptanceCheck(from, to, ids, values, data) */\n      jump\t// in\n    tag_260:\n        /* \"@openzeppelin/contracts/token/ERC1155/ERC1155.sol\":9015:9460  function _safeBatchTransferFrom(... */\n      pop\n      pop\n      pop\n      pop\n      pop\n      jump\t// out\n        /* \"@openzeppelin/contracts/utils/Arrays.sol\":4603:4800  function unsafeMemoryAccess(address[] memory arr, uint256 pos) internal pure returns (address res) {... */\n    tag_171:\n        /* \"@openzeppelin/contracts/utils/Arrays.sol\":4777:4781  0x20 */\n      0x20\n        /* \"@openzeppelin/contracts/utils/Arrays.sol\":4768:4782  mul(pos, 0x20) */\n      swap1\n      dup2\n      mul\n        /* \"@openzeppelin/contracts/utils/Arrays.sol\":4748:4783  add(add(arr, 0x20), mul(pos, 0x20)) */\n      swap2\n      swap1\n      swap2\n      add\n      add\n        /* \"@openzeppelin/contracts/utils/Arrays.sol\":4742:4784  mload(add(add(arr, 0x20), mul(pos, 0x20))) */\n      mload\n      swap1\n        /* \"@openzeppelin/contracts/utils/Arrays.sol\":4603:4800  function unsafeMemoryAccess(address[] memory arr, uint256 pos) internal pure returns (address res) {... */\n      jump\t// out\n        /* \"@openzeppelin/contracts/access/Ownable.sol\":2912:3099  function _transferOwnership(address newOwner) internal virtual {... */\n    tag_180:\n        /* \"@openzeppelin/contracts/access/Ownable.sol\":3004:3010  _owner */\n      0x03\n      dup1\n      sload\n      sub(shl(0xa0, 0x01), 0x01)\n        /* \"@openzeppelin/contracts/access/Ownable.sol\":3020:3037  _owner = newOwner */\n      dup4\n      dup2\n      and\n      not(sub(shl(0xa0, 0x01), 0x01))\n      dup4\n      and\n      dup2\n      or\n      swap1\n      swap4\n      sstore\n        /* \"@openzeppelin/contracts/access/Ownable.sol\":3052:3092  OwnershipTransferred(oldOwner, newOwner) */\n      mload(0x40)\n        /* \"@openzeppelin/contracts/access/Ownable.sol\":3004:3010  _owner */\n      swap2\n      and\n      swap2\n        /* \"@openzeppelin/contracts/access/Ownable.sol\":3020:3037  _owner = newOwner */\n      swap1\n        /* \"@openzeppelin/contracts/access/Ownable.sol\":3004:3010  _owner */\n      dup3\n      swap1\n        /* \"@openzeppelin/contracts/access/Ownable.sol\":3052:3092  OwnershipTransferred(oldOwner, newOwner) */\n      0x8be0079c531659141344cd1fd0a4f28419497f9722a3daafe3b4186f6b6457e0\n      swap1\n        /* \"@openzeppelin/contracts/access/Ownable.sol\":2985:3001  address oldOwner */\n      0x00\n      swap1\n        /* \"@openzeppelin/contracts/access/Ownable.sol\":3052:3092  OwnershipTransferred(oldOwner, newOwner) */\n      log3\n        /* \"@openzeppelin/contracts/access/Ownable.sol\":2975:3099  {... */\n      pop\n        /* \"@openzeppelin/contracts/access/Ownable.sol\":2912:3099  function _transferOwnership(address newOwner) internal virtual {... */\n      pop\n      jump\t// out\n        /* \"@openzeppelin/contracts/token/ERC1155/ERC1155.sol\":13268:13583  function _setApprovalForAll(address owner, address operator, bool approved) internal virtual {... */\n    tag_191:\n      sub(shl(0xa0, 0x01), 0x01)\n        /* \"@openzeppelin/contracts/token/ERC1155/ERC1155.sol\":13375:13397  operator == address(0) */\n      dup3\n      and\n        /* \"@openzeppelin/contracts/token/ERC1155/ERC1155.sol\":13371:13465  if (operator == address(0)) {... */\n      tag_265\n      jumpi\n        /* \"@openzeppelin/contracts/token/ERC1155/ERC1155.sol\":13451:13452  0 */\n      0x00\n        /* \"@openzeppelin/contracts/token/ERC1155/ERC1155.sol\":13420:13454  ERC1155InvalidOperator(address(0)) */\n      mload(0x40)\n      shl(0xe8, 0xced3e1)\n      dup2\n      mstore\n      0x04\n      add\n      tag_155\n      swap2\n      swap1\n      tag_70\n      jump\t// in\n        /* \"@openzeppelin/contracts/token/ERC1155/ERC1155.sol\":13371:13465  if (operator == address(0)) {... */\n    tag_265:\n      sub(shl(0xa0, 0x01), 0x01)\n        /* \"@openzeppelin/contracts/token/ERC1155/ERC1155.sol\":13474:13499  _operatorApprovals[owner] */\n      dup4\n      dup2\n      and\n      0x00\n      dup2\n      dup2\n      mstore\n        /* \"@openzeppelin/contracts/token/ERC1155/ERC1155.sol\":13474:13492  _operatorApprovals */\n      0x01\n        /* \"@openzeppelin/contracts/token/ERC1155/ERC1155.sol\":13474:13499  _operatorApprovals[owner] */\n      0x20\n      swap1\n      dup2\n      mstore\n      0x40\n      dup1\n      dup4\n      keccak256\n        /* \"@openzeppelin/contracts/token/ERC1155/ERC1155.sol\":13474:13509  _operatorApprovals[owner][operator] */\n      swap5\n      dup8\n      and\n      dup1\n      dup5\n      mstore\n      swap5\n      dup3\n      mstore\n      swap2\n      dup3\n      swap1\n      keccak256\n        /* \"@openzeppelin/contracts/token/ERC1155/ERC1155.sol\":13474:13520  _operatorApprovals[owner][operator] = approved */\n      dup1\n      sload\n      not(0xff)\n      and\n      dup7\n      iszero\n      iszero\n      swap1\n      dup2\n      or\n      swap1\n      swap2\n      sstore\n        /* \"@openzeppelin/contracts/token/ERC1155/ERC1155.sol\":13535:13576  ApprovalForAll(owner, operator, approved) */\n      swap2\n      mload\n        /* \"#utility.yul\":1159:1200   */\n      swap2\n      dup3\n      mstore\n        /* \"@openzeppelin/contracts/token/ERC1155/ERC1155.sol\":13535:13576  ApprovalForAll(owner, operator, approved) */\n      0x17307eab39ab6107e8899845ad3d59bd9653f200f220920489ca2b5937696c31\n      swap2\n        /* \"#utility.yul\":1132:1150   */\n      add\n        /* \"@openzeppelin/contracts/token/ERC1155/ERC1155.sol\":13535:13576  ApprovalForAll(owner, operator, approved) */\n      mload(0x40)\n      dup1\n      swap2\n      sub\n      swap1\n      log3\n        /* \"@openzeppelin/contracts/token/ERC1155/ERC1155.sol\":13268:13583  function _setApprovalForAll(address owner, address operator, bool approved) internal virtual {... */\n      pop\n      pop\n      pop\n      jump\t// out\n        /* \"@openzeppelin/contracts/token/ERC1155/ERC1155.sol\":8151:8614  function _safeTransferFrom(address from, address to, uint256 id, uint256 value, bytes memory data) internal {... */\n    tag_228:\n      sub(shl(0xa0, 0x01), 0x01)\n        /* \"@openzeppelin/contracts/token/ERC1155/ERC1155.sol\":8273:8289  to == address(0) */\n      dup5\n      and\n        /* \"@openzeppelin/contracts/token/ERC1155/ERC1155.sol\":8269:8357  if (to == address(0)) {... */\n      tag_269\n      jumpi\n        /* \"@openzeppelin/contracts/token/ERC1155/ERC1155.sol\":8343:8344  0 */\n      0x00\n        /* \"@openzeppelin/contracts/token/ERC1155/ERC1155.sol\":8312:8346  ERC1155InvalidReceiver(address(0)) */\n      mload(0x40)\n      shl(0xe1, 0x2bfa23e7)\n      dup2\n      mstore\n      0x04\n      add\n      tag_155\n      swap2\n      swap1\n      tag_70\n      jump\t// in\n        /* \"@openzeppelin/contracts/token/ERC1155/ERC1155.sol\":8269:8357  if (to == address(0)) {... */\n    tag_269:\n      sub(shl(0xa0, 0x01), 0x01)\n        /* \"@openzeppelin/contracts/token/ERC1155/ERC1155.sol\":8370:8388  from == address(0) */\n      dup6\n      and\n        /* \"@openzeppelin/contracts/token/ERC1155/ERC1155.sol\":8366:8454  if (from == address(0)) {... */\n      tag_271\n      jumpi\n        /* \"@openzeppelin/contracts/token/ERC1155/ERC1155.sol\":8440:8441  0 */\n      0x00\n        /* \"@openzeppelin/contracts/token/ERC1155/ERC1155.sol\":8411:8443  ERC1155InvalidSender(address(0)) */\n      mload(0x40)\n      shl(0xe2, 0x6a0d45)\n      dup2\n      mstore\n      0x04\n      add\n      tag_155\n      swap2\n      swap1\n      tag_70\n      jump\t// in\n        /* \"@openzeppelin/contracts/token/ERC1155/ERC1155.sol\":8366:8454  if (from == address(0)) {... */\n    tag_271:\n        /* \"@openzeppelin/contracts/token/ERC1155/ERC1155.sol\":8464:8484  uint256[] memory ids */\n      0x00\n        /* \"@openzeppelin/contracts/token/ERC1155/ERC1155.sol\":8486:8509  uint256[] memory values */\n      dup1\n        /* \"@openzeppelin/contracts/token/ERC1155/ERC1155.sol\":8513:8542  _asSingletonArrays(id, value) */\n      tag_273\n        /* \"@openzeppelin/contracts/token/ERC1155/ERC1155.sol\":8532:8534  id */\n      dup6\n        /* \"@openzeppelin/contracts/token/ERC1155/ERC1155.sol\":8536:8541  value */\n      dup6\n        /* \"@openzeppelin/contracts/token/ERC1155/ERC1155.sol\":8513:8531  _asSingletonArrays */\n      tag_249\n        /* \"@openzeppelin/contracts/token/ERC1155/ERC1155.sol\":8513:8542  _asSingletonArrays(id, value) */\n      jump\t// in\n    tag_273:\n        /* \"@openzeppelin/contracts/token/ERC1155/ERC1155.sol\":8463:8542  (uint256[] memory ids, uint256[] memory values) = _asSingletonArrays(id, value) */\n      swap2\n      pop\n      swap2\n      pop\n        /* \"@openzeppelin/contracts/token/ERC1155/ERC1155.sol\":8552:8607  _updateWithAcceptanceCheck(from, to, ids, values, data) */\n      tag_274\n        /* \"@openzeppelin/contracts/token/ERC1155/ERC1155.sol\":8579:8583  from */\n      dup8\n        /* \"@openzeppelin/contracts/token/ERC1155/ERC1155.sol\":8585:8587  to */\n      dup8\n        /* \"@openzeppelin/contracts/token/ERC1155/ERC1155.sol\":8589:8592  ids */\n      dup5\n        /* \"@openzeppelin/contracts/token/ERC1155/ERC1155.sol\":8594:8600  values */\n      dup5\n        /* \"@openzeppelin/contracts/token/ERC1155/ERC1155.sol\":8602:8606  data */\n      dup8\n        /* \"@openzeppelin/contracts/token/ERC1155/ERC1155.sol\":8552:8578  _updateWithAcceptanceCheck */\n      tag_251\n        /* \"@openzeppelin/contracts/token/ERC1155/ERC1155.sol\":8552:8607  _updateWithAcceptanceCheck(from, to, ids, values, data) */\n      jump\t// in\n    tag_274:\n        /* \"@openzeppelin/contracts/token/ERC1155/ERC1155.sol\":8259:8614  {... */\n      pop\n      pop\n        /* \"@openzeppelin/contracts/token/ERC1155/ERC1155.sol\":8151:8614  function _safeTransferFrom(address from, address to, uint256 id, uint256 value, bytes memory data) internal {... */\n      pop\n      pop\n      pop\n      pop\n      pop\n      jump\t// out\n        /* \"@openzeppelin/contracts/token/ERC1155/ERC1155.sol\":16080:16929  function _asSingletonArrays(... */\n    tag_249:\n        /* \"@openzeppelin/contracts/token/ERC1155/ERC1155.sol\":16374:16378  0x40 */\n      0x40\n        /* \"@openzeppelin/contracts/token/ERC1155/ERC1155.sol\":16368:16379  mload(0x40) */\n      dup1\n      mload\n        /* \"@openzeppelin/contracts/token/ERC1155/ERC1155.sol\":16444:16445  1 */\n      0x01\n        /* \"@openzeppelin/contracts/token/ERC1155/ERC1155.sol\":16429:16446  mstore(array1, 1) */\n      dup1\n      dup3\n      mstore\n        /* \"@openzeppelin/contracts/token/ERC1155/ERC1155.sol\":16575:16579  0x20 */\n      0x20\n        /* \"@openzeppelin/contracts/token/ERC1155/ERC1155.sol\":16563:16580  add(array1, 0x20) */\n      dup3\n      add\n        /* \"@openzeppelin/contracts/token/ERC1155/ERC1155.sol\":16556:16591  mstore(add(array1, 0x20), element1) */\n      swap5\n      swap1\n      swap5\n      mstore\n        /* \"@openzeppelin/contracts/token/ERC1155/ERC1155.sol\":16692:16709  add(array1, 0x40) */\n      dup1\n      dup3\n      add\n        /* \"@openzeppelin/contracts/token/ERC1155/ERC1155.sol\":16722:16739  mstore(array2, 1) */\n      swap4\n      dup5\n      mstore\n        /* \"@openzeppelin/contracts/token/ERC1155/ERC1155.sol\":16188:16211  uint256[] memory array1 */\n      0x60\n        /* \"@openzeppelin/contracts/token/ERC1155/ERC1155.sol\":16759:16776  add(array2, 0x20) */\n      dup2\n      add\n        /* \"@openzeppelin/contracts/token/ERC1155/ERC1155.sol\":16752:16787  mstore(add(array2, 0x20), element2) */\n      swap3\n      swap1\n      swap3\n      mstore\n        /* \"@openzeppelin/contracts/token/ERC1155/ERC1155.sol\":16895:16912  add(array2, 0x40) */\n      0x80\n      dup3\n      add\n        /* \"@openzeppelin/contracts/token/ERC1155/ERC1155.sol\":16882:16913  mstore(0x40, add(array2, 0x40)) */\n      swap1\n      mstore\n        /* \"@openzeppelin/contracts/token/ERC1155/ERC1155.sol\":16368:16379  mload(0x40) */\n      swap2\n        /* \"@openzeppelin/contracts/token/ERC1155/ERC1155.sol\":16080:16929  function _asSingletonArrays(... */\n      jump\t// out\n        /* \"@openzeppelin/contracts/token/ERC1155/ERC1155.sol\":7004:7694  function _updateWithAcceptanceCheck(... */\n    tag_251:\n        /* \"@openzeppelin/contracts/token/ERC1155/ERC1155.sol\":7205:7235  _update(from, to, ids, values) */\n      tag_277\n        /* \"@openzeppelin/contracts/token/ERC1155/ERC1155.sol\":7213:7217  from */\n      dup6\n        /* \"@openzeppelin/contracts/token/ERC1155/ERC1155.sol\":7219:7221  to */\n      dup6\n        /* \"@openzeppelin/contracts/token/ERC1155/ERC1155.sol\":7223:7226  ids */\n      dup6\n        /* \"@openzeppelin/contracts/token/ERC1155/ERC1155.sol\":7228:7234  values */\n      dup6\n        /* \"@openzeppelin/contracts/token/ERC1155/ERC1155.sol\":7205:7212  _update */\n      tag_278\n        /* \"@openzeppelin/contracts/token/ERC1155/ERC1155.sol\":7205:7235  _update(from, to, ids, values) */\n      jump\t// in\n    tag_277:\n      sub(shl(0xa0, 0x01), 0x01)\n        /* \"@openzeppelin/contracts/token/ERC1155/ERC1155.sol\":7249:7265  to != address(0) */\n      dup5\n      and\n      iszero\n        /* \"@openzeppelin/contracts/token/ERC1155/ERC1155.sol\":7245:7688  if (to != address(0)) {... */\n      tag_260\n      jumpi\n        /* \"@openzeppelin/contracts/token/ERC1155/ERC1155.sol\":7330:7340  ids.length */\n      dup3\n      mload\n        /* \"@openzeppelin/contracts/utils/Context.sol\":735:745  msg.sender */\n      caller\n      swap1\n        /* \"@openzeppelin/contracts/token/ERC1155/ERC1155.sol\":7344:7345  1 */\n      0x01\n        /* \"@openzeppelin/contracts/token/ERC1155/ERC1155.sol\":7330:7345  ids.length == 1 */\n      sub\n        /* \"@openzeppelin/contracts/token/ERC1155/ERC1155.sol\":7326:7678  if (ids.length == 1) {... */\n      tag_281\n      jumpi\n        /* \"@openzeppelin/contracts/token/ERC1155/ERC1155.sol\":7365:7375  uint256 id */\n      0x00\n        /* \"@openzeppelin/contracts/token/ERC1155/ERC1155.sol\":7378:7403  ids.unsafeMemoryAccess(0) */\n      tag_282\n        /* \"@openzeppelin/contracts/token/ERC1155/ERC1155.sol\":7378:7381  ids */\n      dup6\n        /* \"@openzeppelin/contracts/token/ERC1155/ERC1155.sol\":7365:7375  uint256 id */\n      dup3\n        /* \"@openzeppelin/contracts/token/ERC1155/ERC1155.sol\":7378:7400  ids.unsafeMemoryAccess */\n      tag_171\n        /* \"@openzeppelin/contracts/token/ERC1155/ERC1155.sol\":7378:7403  ids.unsafeMemoryAccess(0) */\n      jump\t// in\n    tag_282:\n        /* \"@openzeppelin/contracts/token/ERC1155/ERC1155.sol\":7365:7403  uint256 id = ids.unsafeMemoryAccess(0) */\n      swap1\n      pop\n        /* \"@openzeppelin/contracts/token/ERC1155/ERC1155.sol\":7421:7434  uint256 value */\n      0x00\n        /* \"@openzeppelin/contracts/token/ERC1155/ERC1155.sol\":7437:7465  values.unsafeMemoryAccess(0) */\n      tag_283\n        /* \"@openzeppelin/contracts/token/ERC1155/ERC1155.sol\":7437:7443  values */\n      dup6\n        /* \"@openzeppelin/contracts/token/ERC1155/ERC1155.sol\":7421:7434  uint256 value */\n      dup3\n        /* \"@openzeppelin/contracts/token/ERC1155/ERC1155.sol\":7437:7462  values.unsafeMemoryAccess */\n      tag_171\n        /* \"@openzeppelin/contracts/token/ERC1155/ERC1155.sol\":7437:7465  values.unsafeMemoryAccess(0) */\n      jump\t// in\n    tag_283:\n        /* \"@openzeppelin/contracts/token/ERC1155/ERC1155.sol\":7421:7465  uint256 value = values.unsafeMemoryAccess(0) */\n      swap1\n      pop\n        /* \"@openzeppelin/contracts/token/ERC1155/ERC1155.sol\":7483:7550  _doSafeTransferAcceptanceCheck(operator, from, to, id, value, data) */\n      tag_284\n        /* \"@openzeppelin/contracts/token/ERC1155/ERC1155.sol\":7514:7522  operator */\n      dup4\n        /* \"@openzeppelin/contracts/token/ERC1155/ERC1155.sol\":7524:7528  from */\n      dup10\n        /* \"@openzeppelin/contracts/token/ERC1155/ERC1155.sol\":7530:7532  to */\n      dup10\n        /* \"@openzeppelin/contracts/token/ERC1155/ERC1155.sol\":7534:7536  id */\n      dup6\n        /* \"@openzeppelin/contracts/token/ERC1155/ERC1155.sol\":7538:7543  value */\n      dup6\n        /* \"@openzeppelin/contracts/token/ERC1155/ERC1155.sol\":7545:7549  data */\n      dup10\n        /* \"@openzeppelin/contracts/token/ERC1155/ERC1155.sol\":7483:7513  _doSafeTransferAcceptanceCheck */\n      tag_285\n        /* \"@openzeppelin/contracts/token/ERC1155/ERC1155.sol\":7483:7550  _doSafeTransferAcceptanceCheck(operator, from, to, id, value, data) */\n      jump\t// in\n    tag_284:\n        /* \"@openzeppelin/contracts/token/ERC1155/ERC1155.sol\":7347:7565  {... */\n      pop\n      pop\n        /* \"@openzeppelin/contracts/token/ERC1155/ERC1155.sol\":7326:7678  if (ids.length == 1) {... */\n      jump(tag_157)\n    tag_281:\n        /* \"@openzeppelin/contracts/token/ERC1155/ERC1155.sol\":7589:7663  _doSafeBatchTransferAcceptanceCheck(operator, from, to, ids, values, data) */\n      tag_157\n        /* \"@openzeppelin/contracts/token/ERC1155/ERC1155.sol\":7625:7633  operator */\n      dup2\n        /* \"@openzeppelin/contracts/token/ERC1155/ERC1155.sol\":7635:7639  from */\n      dup8\n        /* \"@openzeppelin/contracts/token/ERC1155/ERC1155.sol\":7641:7643  to */\n      dup8\n        /* \"@openzeppelin/contracts/token/ERC1155/ERC1155.sol\":7645:7648  ids */\n      dup8\n        /* \"@openzeppelin/contracts/token/ERC1155/ERC1155.sol\":7650:7656  values */\n      dup8\n        /* \"@openzeppelin/contracts/token/ERC1155/ERC1155.sol\":7658:7662  data */\n      dup8\n        /* \"@openzeppelin/contracts/token/ERC1155/ERC1155.sol\":7589:7624  _doSafeBatchTransferAcceptanceCheck */\n      tag_288\n        /* \"@openzeppelin/contracts/token/ERC1155/ERC1155.sol\":7589:7663  _doSafeBatchTransferAcceptanceCheck(operator, from, to, ids, values, data) */\n      jump\t// in\n        /* \"@openzeppelin/contracts/token/ERC1155/ERC1155.sol\":5144:6425  function _update(address from, address to, uint256[] memory ids, uint256[] memory values) internal virtual {... */\n    tag_278:\n        /* \"@openzeppelin/contracts/token/ERC1155/ERC1155.sol\":5279:5285  values */\n      dup1\n        /* \"@openzeppelin/contracts/token/ERC1155/ERC1155.sol\":5279:5292  values.length */\n      mload\n        /* \"@openzeppelin/contracts/token/ERC1155/ERC1155.sol\":5265:5268  ids */\n      dup3\n        /* \"@openzeppelin/contracts/token/ERC1155/ERC1155.sol\":5265:5275  ids.length */\n      mload\n        /* \"@openzeppelin/contracts/token/ERC1155/ERC1155.sol\":5265:5292  ids.length != values.length */\n      eq\n        /* \"@openzeppelin/contracts/token/ERC1155/ERC1155.sol\":5261:5378  if (ids.length != values.length) {... */\n      tag_290\n      jumpi\n        /* \"@openzeppelin/contracts/token/ERC1155/ERC1155.sol\":5341:5351  ids.length */\n      dup2\n      mload\n        /* \"@openzeppelin/contracts/token/ERC1155/ERC1155.sol\":5353:5366  values.length */\n      dup2\n      mload\n        /* \"@openzeppelin/contracts/token/ERC1155/ERC1155.sol\":5315:5367  ERC1155InvalidArrayLength(ids.length, values.length) */\n      mload(0x40)\n      shl(0xe0, 0x5b059991)\n      dup2\n      mstore\n      0x04\n      dup2\n      add\n        /* \"#utility.yul\":11000:11025   */\n      swap3\n      swap1\n      swap3\n      mstore\n        /* \"#utility.yul\":11041:11059   */\n      0x24\n      dup3\n      add\n        /* \"#utility.yul\":11034:11068   */\n      mstore\n        /* \"#utility.yul\":10973:10991   */\n      0x44\n      add\n        /* \"@openzeppelin/contracts/token/ERC1155/ERC1155.sol\":5315:5367  ERC1155InvalidArrayLength(ids.length, values.length) */\n      tag_155\n        /* \"#utility.yul\":10826:11074   */\n      jump\n        /* \"@openzeppelin/contracts/token/ERC1155/ERC1155.sol\":5261:5378  if (ids.length != values.length) {... */\n    tag_290:\n        /* \"@openzeppelin/contracts/utils/Context.sol\":735:745  msg.sender */\n      caller\n        /* \"@openzeppelin/contracts/token/ERC1155/ERC1155.sol\":5388:5404  address operator */\n      0x00\n        /* \"@openzeppelin/contracts/token/ERC1155/ERC1155.sol\":5430:6121  for (uint256 i = 0; i < ids.length; ++i) {... */\n    tag_293:\n        /* \"@openzeppelin/contracts/token/ERC1155/ERC1155.sol\":5454:5457  ids */\n      dup4\n        /* \"@openzeppelin/contracts/token/ERC1155/ERC1155.sol\":5454:5464  ids.length */\n      mload\n        /* \"@openzeppelin/contracts/token/ERC1155/ERC1155.sol\":5450:5451  i */\n      dup2\n        /* \"@openzeppelin/contracts/token/ERC1155/ERC1155.sol\":5450:5464  i < ids.length */\n      lt\n        /* \"@openzeppelin/contracts/token/ERC1155/ERC1155.sol\":5430:6121  for (uint256 i = 0; i < ids.length; ++i) {... */\n      iszero\n      tag_294\n      jumpi\n        /* \"@openzeppelin/contracts/token/ERC1155/ERC1155.sol\":5485:5495  uint256 id */\n      0x00\n        /* \"@openzeppelin/contracts/token/ERC1155/ERC1155.sol\":5498:5523  ids.unsafeMemoryAccess(i) */\n      tag_296\n        /* \"@openzeppelin/contracts/token/ERC1155/ERC1155.sol\":5498:5501  ids */\n      dup6\n        /* \"@openzeppelin/contracts/token/ERC1155/ERC1155.sol\":5521:5522  i */\n      dup4\n        /* \"@openzeppelin/contracts/token/ERC1155/ERC1155.sol\":5498:5520  ids.unsafeMemoryAccess */\n      tag_171\n        /* \"@openzeppelin/contracts/token/ERC1155/ERC1155.sol\":5498:5523  ids.unsafeMemoryAccess(i) */\n      jump\t// in\n    tag_296:\n        /* \"@openzeppelin/contracts/token/ERC1155/ERC1155.sol\":5485:5523  uint256 id = ids.unsafeMemoryAccess(i) */\n      swap1\n      pop\n        /* \"@openzeppelin/contracts/token/ERC1155/ERC1155.sol\":5537:5550  uint256 value */\n      0x00\n        /* \"@openzeppelin/contracts/token/ERC1155/ERC1155.sol\":5553:5581  values.unsafeMemoryAccess(i) */\n      tag_297\n        /* \"@openzeppelin/contracts/token/ERC1155/ERC1155.sol\":5553:5559  values */\n      dup6\n        /* \"@openzeppelin/contracts/token/ERC1155/ERC1155.sol\":5579:5580  i */\n      dup5\n        /* \"@openzeppelin/contracts/token/ERC1155/ERC1155.sol\":5553:5578  values.unsafeMemoryAccess */\n      tag_171\n        /* \"@openzeppelin/contracts/token/ERC1155/ERC1155.sol\":5553:5581  values.unsafeMemoryAccess(i) */\n      jump\t// in\n    tag_297:\n        /* \"@openzeppelin/contracts/token/ERC1155/ERC1155.sol\":5537:5581  uint256 value = values.unsafeMemoryAccess(i) */\n      swap1\n      pop\n      sub(shl(0xa0, 0x01), 0x01)\n        /* \"@openzeppelin/contracts/token/ERC1155/ERC1155.sol\":5600:5618  from != address(0) */\n      dup9\n      and\n      iszero\n        /* \"@openzeppelin/contracts/token/ERC1155/ERC1155.sol\":5596:6016  if (from != address(0)) {... */\n      tag_298\n      jumpi\n        /* \"@openzeppelin/contracts/token/ERC1155/ERC1155.sol\":5638:5657  uint256 fromBalance */\n      0x00\n        /* \"@openzeppelin/contracts/token/ERC1155/ERC1155.sol\":5660:5673  _balances[id] */\n      dup3\n      dup2\n      mstore\n      0x20\n      dup2\n      dup2\n      mstore\n      0x40\n      dup1\n      dup4\n      keccak256\n      sub(shl(0xa0, 0x01), 0x01)\n        /* \"@openzeppelin/contracts/token/ERC1155/ERC1155.sol\":5660:5679  _balances[id][from] */\n      dup13\n      and\n      dup5\n      mstore\n      swap1\n      swap2\n      mstore\n      swap1\n      keccak256\n      sload\n        /* \"@openzeppelin/contracts/token/ERC1155/ERC1155.sol\":5701:5720  fromBalance < value */\n      dup2\n      dup2\n      lt\n        /* \"@openzeppelin/contracts/token/ERC1155/ERC1155.sol\":5697:5826  if (fromBalance < value) {... */\n      iszero\n      tag_299\n      jumpi\n        /* \"@openzeppelin/contracts/token/ERC1155/ERC1155.sol\":5751:5807  ERC1155InsufficientBalance(from, fromBalance, value, id) */\n      mload(0x40)\n      shl(0xe0, 0x03dee4c5)\n      dup2\n      mstore\n      sub(shl(0xa0, 0x01), 0x01)\n        /* \"#utility.yul\":13498:13530   */\n      dup11\n      and\n        /* \"@openzeppelin/contracts/token/ERC1155/ERC1155.sol\":5751:5807  ERC1155InsufficientBalance(from, fromBalance, value, id) */\n      0x04\n      dup3\n      add\n        /* \"#utility.yul\":13480:13531   */\n      mstore\n        /* \"#utility.yul\":13547:13565   */\n      0x24\n      dup2\n      add\n        /* \"#utility.yul\":13540:13574   */\n      dup3\n      swap1\n      mstore\n        /* \"#utility.yul\":13590:13608   */\n      0x44\n      dup2\n      add\n        /* \"#utility.yul\":13583:13617   */\n      dup4\n      swap1\n      mstore\n        /* \"#utility.yul\":13633:13651   */\n      0x64\n      dup2\n      add\n        /* \"#utility.yul\":13626:13660   */\n      dup5\n      swap1\n      mstore\n        /* \"#utility.yul\":13452:13471   */\n      0x84\n      add\n        /* \"@openzeppelin/contracts/token/ERC1155/ERC1155.sol\":5751:5807  ERC1155InsufficientBalance(from, fromBalance, value, id) */\n      tag_155\n        /* \"#utility.yul\":13249:13666   */\n      jump\n        /* \"@openzeppelin/contracts/token/ERC1155/ERC1155.sol\":5697:5826  if (fromBalance < value) {... */\n    tag_299:\n        /* \"@openzeppelin/contracts/token/ERC1155/ERC1155.sol\":5942:5951  _balances */\n      0x00\n        /* \"@openzeppelin/contracts/token/ERC1155/ERC1155.sol\":5942:5955  _balances[id] */\n      dup4\n      dup2\n      mstore\n      0x20\n      dup2\n      dup2\n      mstore\n      0x40\n      dup1\n      dup4\n      keccak256\n      sub(shl(0xa0, 0x01), 0x01)\n        /* \"@openzeppelin/contracts/token/ERC1155/ERC1155.sol\":5942:5961  _balances[id][from] */\n      dup14\n      and\n      dup5\n      mstore\n      swap1\n      swap2\n      mstore\n      swap1\n      keccak256\n        /* \"@openzeppelin/contracts/token/ERC1155/ERC1155.sol\":5964:5983  fromBalance - value */\n      swap1\n      dup3\n      swap1\n      sub\n        /* \"@openzeppelin/contracts/token/ERC1155/ERC1155.sol\":5942:5983  _balances[id][from] = fromBalance - value */\n      swap1\n      sstore\n        /* \"@openzeppelin/contracts/token/ERC1155/ERC1155.sol\":5596:6016  if (from != address(0)) {... */\n    tag_298:\n      sub(shl(0xa0, 0x01), 0x01)\n        /* \"@openzeppelin/contracts/token/ERC1155/ERC1155.sol\":6034:6050  to != address(0) */\n      dup8\n      and\n      iszero\n        /* \"@openzeppelin/contracts/token/ERC1155/ERC1155.sol\":6030:6111  if (to != address(0)) {... */\n      tag_302\n      jumpi\n        /* \"@openzeppelin/contracts/token/ERC1155/ERC1155.sol\":6070:6079  _balances */\n      0x00\n        /* \"@openzeppelin/contracts/token/ERC1155/ERC1155.sol\":6070:6083  _balances[id] */\n      dup3\n      dup2\n      mstore\n      0x20\n      dup2\n      dup2\n      mstore\n      0x40\n      dup1\n      dup4\n      keccak256\n      sub(shl(0xa0, 0x01), 0x01)\n        /* \"@openzeppelin/contracts/token/ERC1155/ERC1155.sol\":6070:6087  _balances[id][to] */\n      dup12\n      and\n      dup5\n      mstore\n      swap1\n      swap2\n      mstore\n      dup2\n      keccak256\n        /* \"@openzeppelin/contracts/token/ERC1155/ERC1155.sol\":6070:6096  _balances[id][to] += value */\n      dup1\n      sload\n        /* \"@openzeppelin/contracts/token/ERC1155/ERC1155.sol\":6091:6096  value */\n      dup4\n      swap3\n        /* \"@openzeppelin/contracts/token/ERC1155/ERC1155.sol\":6070:6079  _balances */\n      swap1\n        /* \"@openzeppelin/contracts/token/ERC1155/ERC1155.sol\":6070:6096  _balances[id][to] += value */\n      tag_303\n      swap1\n        /* \"@openzeppelin/contracts/token/ERC1155/ERC1155.sol\":6091:6096  value */\n      dup5\n      swap1\n        /* \"@openzeppelin/contracts/token/ERC1155/ERC1155.sol\":6070:6096  _balances[id][to] += value */\n      tag_304\n      jump\t// in\n    tag_303:\n      swap1\n      swap2\n      sstore\n      pop\n      pop\n        /* \"@openzeppelin/contracts/token/ERC1155/ERC1155.sol\":6030:6111  if (to != address(0)) {... */\n    tag_302:\n      pop\n      pop\n        /* \"@openzeppelin/contracts/token/ERC1155/ERC1155.sol\":5466:5469  ++i */\n      0x01\n      add\n        /* \"@openzeppelin/contracts/token/ERC1155/ERC1155.sol\":5430:6121  for (uint256 i = 0; i < ids.length; ++i) {... */\n      jump(tag_293)\n    tag_294:\n      pop\n        /* \"@openzeppelin/contracts/token/ERC1155/ERC1155.sol\":6135:6138  ids */\n      dup3\n        /* \"@openzeppelin/contracts/token/ERC1155/ERC1155.sol\":6135:6145  ids.length */\n      mload\n        /* \"@openzeppelin/contracts/token/ERC1155/ERC1155.sol\":6149:6150  1 */\n      0x01\n        /* \"@openzeppelin/contracts/token/ERC1155/ERC1155.sol\":6135:6150  ids.length == 1 */\n      sub\n        /* \"@openzeppelin/contracts/token/ERC1155/ERC1155.sol\":6131:6419  if (ids.length == 1) {... */\n      tag_305\n      jumpi\n        /* \"@openzeppelin/contracts/token/ERC1155/ERC1155.sol\":6166:6176  uint256 id */\n      0x00\n        /* \"@openzeppelin/contracts/token/ERC1155/ERC1155.sol\":6179:6204  ids.unsafeMemoryAccess(0) */\n      tag_306\n        /* \"@openzeppelin/contracts/token/ERC1155/ERC1155.sol\":6179:6182  ids */\n      dup5\n        /* \"@openzeppelin/contracts/token/ERC1155/ERC1155.sol\":6166:6176  uint256 id */\n      dup3\n        /* \"@openzeppelin/contracts/token/ERC1155/ERC1155.sol\":6179:6201  ids.unsafeMemoryAccess */\n      tag_171\n        /* \"@openzeppelin/contracts/token/ERC1155/ERC1155.sol\":6179:6204  ids.unsafeMemoryAccess(0) */\n      jump\t// in\n    tag_306:\n        /* \"@openzeppelin/contracts/token/ERC1155/ERC1155.sol\":6166:6204  uint256 id = ids.unsafeMemoryAccess(0) */\n      swap1\n      pop\n        /* \"@openzeppelin/contracts/token/ERC1155/ERC1155.sol\":6218:6231  uint256 value */\n      0x00\n        /* \"@openzeppelin/contracts/token/ERC1155/ERC1155.sol\":6234:6262  values.unsafeMemoryAccess(0) */\n      tag_307\n        /* \"@openzeppelin/contracts/token/ERC1155/ERC1155.sol\":6234:6240  values */\n      dup5\n        /* \"@openzeppelin/contracts/token/ERC1155/ERC1155.sol\":6218:6231  uint256 value */\n      dup3\n        /* \"@openzeppelin/contracts/token/ERC1155/ERC1155.sol\":6234:6259  values.unsafeMemoryAccess */\n      tag_171\n        /* \"@openzeppelin/contracts/token/ERC1155/ERC1155.sol\":6234:6262  values.unsafeMemoryAccess(0) */\n      jump\t// in\n    tag_307:\n        /* \"@openzeppelin/contracts/token/ERC1155/ERC1155.sol\":6218:6262  uint256 value = values.unsafeMemoryAccess(0) */\n      swap1\n      pop\n        /* \"@openzeppelin/contracts/token/ERC1155/ERC1155.sol\":6312:6314  to */\n      dup6\n      sub(shl(0xa0, 0x01), 0x01)\n        /* \"@openzeppelin/contracts/token/ERC1155/ERC1155.sol\":6281:6326  TransferSingle(operator, from, to, id, value) */\n      and\n        /* \"@openzeppelin/contracts/token/ERC1155/ERC1155.sol\":6306:6310  from */\n      dup8\n      sub(shl(0xa0, 0x01), 0x01)\n        /* \"@openzeppelin/contracts/token/ERC1155/ERC1155.sol\":6281:6326  TransferSingle(operator, from, to, id, value) */\n      and\n        /* \"@openzeppelin/contracts/token/ERC1155/ERC1155.sol\":6296:6304  operator */\n      dup5\n      sub(shl(0xa0, 0x01), 0x01)\n        /* \"@openzeppelin/contracts/token/ERC1155/ERC1155.sol\":6281:6326  TransferSingle(operator, from, to, id, value) */\n      and\n      0xc3d58168c5ae7397731d063d5bbf3d657854427343f4c083240f7aacaa2d0f62\n        /* \"@openzeppelin/contracts/token/ERC1155/ERC1155.sol\":6316:6318  id */\n      dup6\n        /* \"@openzeppelin/contracts/token/ERC1155/ERC1155.sol\":6320:6325  value */\n      dup6\n        /* \"@openzeppelin/contracts/token/ERC1155/ERC1155.sol\":6281:6326  TransferSingle(operator, from, to, id, value) */\n      mload(0x40)\n      tag_308\n      swap3\n      swap2\n      swap1\n        /* \"#utility.yul\":11000:11025   */\n      swap2\n      dup3\n      mstore\n        /* \"#utility.yul\":11056:11058   */\n      0x20\n        /* \"#utility.yul\":11041:11059   */\n      dup3\n      add\n        /* \"#utility.yul\":11034:11068   */\n      mstore\n        /* \"#utility.yul\":10988:10990   */\n      0x40\n        /* \"#utility.yul\":10973:10991   */\n      add\n      swap1\n        /* \"#utility.yul\":10826:11074   */\n      jump\n        /* \"@openzeppelin/contracts/token/ERC1155/ERC1155.sol\":6281:6326  TransferSingle(operator, from, to, id, value) */\n    tag_308:\n      mload(0x40)\n      dup1\n      swap2\n      sub\n      swap1\n      log4\n        /* \"@openzeppelin/contracts/token/ERC1155/ERC1155.sol\":6152:6337  {... */\n      pop\n      pop\n        /* \"@openzeppelin/contracts/token/ERC1155/ERC1155.sol\":6131:6419  if (ids.length == 1) {... */\n      jump(tag_260)\n    tag_305:\n        /* \"@openzeppelin/contracts/token/ERC1155/ERC1155.sol\":6392:6394  to */\n      dup4\n      sub(shl(0xa0, 0x01), 0x01)\n        /* \"@openzeppelin/contracts/token/ERC1155/ERC1155.sol\":6362:6408  TransferBatch(operator, from, to, ids, values) */\n      and\n        /* \"@openzeppelin/contracts/token/ERC1155/ERC1155.sol\":6386:6390  from */\n      dup6\n      sub(shl(0xa0, 0x01), 0x01)\n        /* \"@openzeppelin/contracts/token/ERC1155/ERC1155.sol\":6362:6408  TransferBatch(operator, from, to, ids, values) */\n      and\n        /* \"@openzeppelin/contracts/token/ERC1155/ERC1155.sol\":6376:6384  operator */\n      dup3\n      sub(shl(0xa0, 0x01), 0x01)\n        /* \"@openzeppelin/contracts/token/ERC1155/ERC1155.sol\":6362:6408  TransferBatch(operator, from, to, ids, values) */\n      and\n      0x4a39dc06d4c0dbc64b70af90fd698a233a518aa5d07e595d983b8c0526c8f7fb\n        /* \"@openzeppelin/contracts/token/ERC1155/ERC1155.sol\":6396:6399  ids */\n      dup7\n        /* \"@openzeppelin/contracts/token/ERC1155/ERC1155.sol\":6401:6407  values */\n      dup7\n        /* \"@openzeppelin/contracts/token/ERC1155/ERC1155.sol\":6362:6408  TransferBatch(operator, from, to, ids, values) */\n      mload(0x40)\n      tag_310\n      swap3\n      swap2\n      swap1\n      tag_311\n      jump\t// in\n    tag_310:\n      mload(0x40)\n      dup1\n      swap2\n      sub\n      swap1\n      log4\n        /* \"@openzeppelin/contracts/token/ERC1155/ERC1155.sol\":5251:6425  {... */\n      pop\n        /* \"@openzeppelin/contracts/token/ERC1155/ERC1155.sol\":5144:6425  function _update(address from, address to, uint256[] memory ids, uint256[] memory values) internal virtual {... */\n      pop\n      pop\n      pop\n      pop\n      jump\t// out\n        /* \"@openzeppelin/contracts/token/ERC1155/ERC1155.sol\":13761:14735  function _doSafeTransferAcceptanceCheck(... */\n    tag_285:\n      sub(shl(0xa0, 0x01), 0x01)\n        /* \"@openzeppelin/contracts/token/ERC1155/ERC1155.sol\":13967:13981  to.code.length */\n      dup5\n      and\n      extcodesize\n        /* \"@openzeppelin/contracts/token/ERC1155/ERC1155.sol\":13967:13985  to.code.length > 0 */\n      iszero\n        /* \"@openzeppelin/contracts/token/ERC1155/ERC1155.sol\":13963:14729  if (to.code.length > 0) {... */\n      tag_157\n      jumpi\n        /* \"@openzeppelin/contracts/token/ERC1155/ERC1155.sol\":14005:14076  IERC1155Receiver(to).onERC1155Received(operator, from, id, value, data) */\n      mload(0x40)\n      shl(0xe0, 0xf23a6e61)\n      dup2\n      mstore\n      sub(shl(0xa0, 0x01), 0x01)\n        /* \"@openzeppelin/contracts/token/ERC1155/ERC1155.sol\":14005:14043  IERC1155Receiver(to).onERC1155Received */\n      dup6\n      and\n      swap1\n      0xf23a6e61\n      swap1\n        /* \"@openzeppelin/contracts/token/ERC1155/ERC1155.sol\":14005:14076  IERC1155Receiver(to).onERC1155Received(operator, from, id, value, data) */\n      tag_314\n      swap1\n        /* \"@openzeppelin/contracts/token/ERC1155/ERC1155.sol\":14044:14052  operator */\n      dup10\n      swap1\n        /* \"@openzeppelin/contracts/token/ERC1155/ERC1155.sol\":14054:14058  from */\n      dup10\n      swap1\n        /* \"@openzeppelin/contracts/token/ERC1155/ERC1155.sol\":14060:14062  id */\n      dup9\n      swap1\n        /* \"@openzeppelin/contracts/token/ERC1155/ERC1155.sol\":14064:14069  value */\n      dup9\n      swap1\n        /* \"@openzeppelin/contracts/token/ERC1155/ERC1155.sol\":14071:14075  data */\n      dup9\n      swap1\n        /* \"@openzeppelin/contracts/token/ERC1155/ERC1155.sol\":14005:14076  IERC1155Receiver(to).onERC1155Received(operator, from, id, value, data) */\n      0x04\n      add\n      tag_315\n      jump\t// in\n    tag_314:\n      0x20\n      mload(0x40)\n      dup1\n      dup4\n      sub\n      dup2\n      0x00\n      dup8\n      gas\n      call\n      swap3\n      pop\n      pop\n      pop\n      dup1\n      iszero\n      tag_316\n      jumpi\n      pop\n      0x40\n      dup1\n      mload\n      0x1f\n      returndatasize\n      swap1\n      dup2\n      add\n      not(0x1f)\n      and\n      dup3\n      add\n      swap1\n      swap3\n      mstore\n      tag_317\n      swap2\n      dup2\n      add\n      swap1\n      tag_318\n      jump\t// in\n    tag_317:\n      0x01\n    tag_316:\n        /* \"@openzeppelin/contracts/token/ERC1155/ERC1155.sol\":14001:14719  try IERC1155Receiver(to).onERC1155Received(operator, from, id, value, data) returns (bytes4 response) {... */\n      tag_319\n      jumpi\n      returndatasize\n      dup1\n      dup1\n      iszero\n      tag_324\n      jumpi\n      mload(0x40)\n      swap2\n      pop\n      and(add(returndatasize, 0x3f), not(0x1f))\n      dup3\n      add\n      0x40\n      mstore\n      returndatasize\n      dup3\n      mstore\n      returndatasize\n      0x00\n      0x20\n      dup5\n      add\n      returndatacopy\n      jump(tag_323)\n    tag_324:\n      0x60\n      swap2\n      pop\n    tag_323:\n      pop\n        /* \"@openzeppelin/contracts/token/ERC1155/ERC1155.sol\":14360:14366  reason */\n      dup1\n        /* \"@openzeppelin/contracts/token/ERC1155/ERC1155.sol\":14360:14373  reason.length */\n      mload\n        /* \"@openzeppelin/contracts/token/ERC1155/ERC1155.sol\":14377:14378  0 */\n      0x00\n        /* \"@openzeppelin/contracts/token/ERC1155/ERC1155.sol\":14360:14378  reason.length == 0 */\n      sub\n        /* \"@openzeppelin/contracts/token/ERC1155/ERC1155.sol\":14356:14705  if (reason.length == 0) {... */\n      tag_325\n      jumpi\n        /* \"@openzeppelin/contracts/token/ERC1155/ERC1155.sol\":14487:14489  to */\n      dup5\n        /* \"@openzeppelin/contracts/token/ERC1155/ERC1155.sol\":14464:14490  ERC1155InvalidReceiver(to) */\n      mload(0x40)\n      shl(0xe1, 0x2bfa23e7)\n      dup2\n      mstore\n      0x04\n      add\n      tag_155\n      swap2\n      swap1\n      tag_70\n      jump\t// in\n        /* \"@openzeppelin/contracts/token/ERC1155/ERC1155.sol\":14356:14705  if (reason.length == 0) {... */\n    tag_325:\n        /* \"@openzeppelin/contracts/token/ERC1155/ERC1155.sol\":14657:14663  reason */\n      dup1\n        /* \"@openzeppelin/contracts/token/ERC1155/ERC1155.sol\":14651:14664  mload(reason) */\n      mload\n        /* \"@openzeppelin/contracts/token/ERC1155/ERC1155.sol\":14642:14648  reason */\n      dup2\n        /* \"@openzeppelin/contracts/token/ERC1155/ERC1155.sol\":14638:14640  32 */\n      0x20\n        /* \"@openzeppelin/contracts/token/ERC1155/ERC1155.sol\":14634:14649  add(32, reason) */\n      add\n        /* \"@openzeppelin/contracts/token/ERC1155/ERC1155.sol\":14627:14665  revert(add(32, reason), mload(reason)) */\n      revert\n        /* \"@openzeppelin/contracts/token/ERC1155/ERC1155.sol\":14001:14719  try IERC1155Receiver(to).onERC1155Received(operator, from, id, value, data) returns (bytes4 response) {... */\n    tag_319:\n      not(sub(shl(0xe0, 0x01), 0x01))\n        /* \"@openzeppelin/contracts/token/ERC1155/ERC1155.sol\":14125:14180  response != IERC1155Receiver.onERC1155Received.selector */\n      dup2\n      and\n      shl(0xe0, 0xf23a6e61)\n      eq\n        /* \"@openzeppelin/contracts/token/ERC1155/ERC1155.sol\":14121:14295  if (response != IERC1155Receiver.onERC1155Received.selector) {... */\n      tag_274\n      jumpi\n        /* \"@openzeppelin/contracts/token/ERC1155/ERC1155.sol\":14273:14275  to */\n      dup5\n        /* \"@openzeppelin/contracts/token/ERC1155/ERC1155.sol\":14250:14276  ERC1155InvalidReceiver(to) */\n      mload(0x40)\n      shl(0xe1, 0x2bfa23e7)\n      dup2\n      mstore\n      0x04\n      add\n      tag_155\n      swap2\n      swap1\n      tag_70\n      jump\t// in\n        /* \"@openzeppelin/contracts/token/ERC1155/ERC1155.sol\":14923:15964  function _doSafeBatchTransferAcceptanceCheck(... */\n    tag_288:\n      sub(shl(0xa0, 0x01), 0x01)\n        /* \"@openzeppelin/contracts/token/ERC1155/ERC1155.sol\":15154:15168  to.code.length */\n      dup5\n      and\n      extcodesize\n        /* \"@openzeppelin/contracts/token/ERC1155/ERC1155.sol\":15154:15172  to.code.length > 0 */\n      iszero\n        /* \"@openzeppelin/contracts/token/ERC1155/ERC1155.sol\":15150:15958  if (to.code.length > 0) {... */\n      tag_157\n      jumpi\n        /* \"@openzeppelin/contracts/token/ERC1155/ERC1155.sol\":15192:15270  IERC1155Receiver(to).onERC1155BatchReceived(operator, from, ids, values, data) */\n      mload(0x40)\n      shl(0xe0, 0xbc197c81)\n      dup2\n      mstore\n      sub(shl(0xa0, 0x01), 0x01)\n        /* \"@openzeppelin/contracts/token/ERC1155/ERC1155.sol\":15192:15235  IERC1155Receiver(to).onERC1155BatchReceived */\n      dup6\n      and\n      swap1\n      0xbc197c81\n      swap1\n        /* \"@openzeppelin/contracts/token/ERC1155/ERC1155.sol\":15192:15270  IERC1155Receiver(to).onERC1155BatchReceived(operator, from, ids, values, data) */\n      tag_333\n      swap1\n        /* \"@openzeppelin/contracts/token/ERC1155/ERC1155.sol\":15236:15244  operator */\n      dup10\n      swap1\n        /* \"@openzeppelin/contracts/token/ERC1155/ERC1155.sol\":15246:15250  from */\n      dup10\n      swap1\n        /* \"@openzeppelin/contracts/token/ERC1155/ERC1155.sol\":15252:15255  ids */\n      dup9\n      swap1\n        /* \"@openzeppelin/contracts/token/ERC1155/ERC1155.sol\":15257:15263  values */\n      dup9\n      swap1\n        /* \"@openzeppelin/contracts/token/ERC1155/ERC1155.sol\":15265:15269  data */\n      dup9\n      swap1\n        /* \"@openzeppelin/contracts/token/ERC1155/ERC1155.sol\":15192:15270  IERC1155Receiver(to).onERC1155BatchReceived(operator, from, ids, values, data) */\n      0x04\n      add\n      tag_334\n      jump\t// in\n    tag_333:\n      0x20\n      mload(0x40)\n      dup1\n      dup4\n      sub\n      dup2\n      0x00\n      dup8\n      gas\n      call\n      swap3\n      pop\n      pop\n      pop\n      dup1\n      iszero\n      tag_335\n      jumpi\n      pop\n      0x40\n      dup1\n      mload\n      0x1f\n      returndatasize\n      swap1\n      dup2\n      add\n      not(0x1f)\n      and\n      dup3\n      add\n      swap1\n      swap3\n      mstore\n      tag_336\n      swap2\n      dup2\n      add\n      swap1\n      tag_318\n      jump\t// in\n    tag_336:\n      0x01\n    tag_335:\n        /* \"@openzeppelin/contracts/token/ERC1155/ERC1155.sol\":15188:15948  try IERC1155Receiver(to).onERC1155BatchReceived(operator, from, ids, values, data) returns (... */\n      tag_337\n      jumpi\n      returndatasize\n      dup1\n      dup1\n      iszero\n      tag_324\n      jumpi\n      mload(0x40)\n      swap2\n      pop\n      and(add(returndatasize, 0x3f), not(0x1f))\n      dup3\n      add\n      0x40\n      mstore\n      returndatasize\n      dup3\n      mstore\n      returndatasize\n      0x00\n      0x20\n      dup5\n      add\n      returndatacopy\n      jump(tag_323)\n    tag_337:\n      not(sub(shl(0xe0, 0x01), 0x01))\n        /* \"@openzeppelin/contracts/token/ERC1155/ERC1155.sol\":15349:15409  response != IERC1155Receiver.onERC1155BatchReceived.selector */\n      dup2\n      and\n      shl(0xe0, 0xbc197c81)\n      eq\n        /* \"@openzeppelin/contracts/token/ERC1155/ERC1155.sol\":15345:15524  if (response != IERC1155Receiver.onERC1155BatchReceived.selector) {... */\n      tag_274\n      jumpi\n        /* \"@openzeppelin/contracts/token/ERC1155/ERC1155.sol\":15502:15504  to */\n      dup5\n        /* \"@openzeppelin/contracts/token/ERC1155/ERC1155.sol\":15479:15505  ERC1155InvalidReceiver(to) */\n      mload(0x40)\n      shl(0xe1, 0x2bfa23e7)\n      dup2\n      mstore\n      0x04\n      add\n      tag_155\n      swap2\n      swap1\n      tag_70\n      jump\t// in\n        /* \"#utility.yul\":14:187   */\n    tag_349:\n        /* \"#utility.yul\":82:102   */\n      dup1\n      calldataload\n      sub(shl(0xa0, 0x01), 0x01)\n        /* \"#utility.yul\":131:162   */\n      dup2\n      and\n        /* \"#utility.yul\":121:163   */\n      dup2\n      eq\n        /* \"#utility.yul\":111:181   */\n      tag_364\n      jumpi\n        /* \"#utility.yul\":177:178   */\n      0x00\n        /* \"#utility.yul\":174:175   */\n      dup1\n        /* \"#utility.yul\":167:179   */\n      revert\n        /* \"#utility.yul\":111:181   */\n    tag_364:\n        /* \"#utility.yul\":14:187   */\n      swap2\n      swap1\n      pop\n      jump\t// out\n        /* \"#utility.yul\":192:446   */\n    tag_24:\n        /* \"#utility.yul\":260:266   */\n      0x00\n        /* \"#utility.yul\":268:274   */\n      dup1\n        /* \"#utility.yul\":321:323   */\n      0x40\n        /* \"#utility.yul\":309:318   */\n      dup4\n        /* \"#utility.yul\":300:307   */\n      dup6\n        /* \"#utility.yul\":296:319   */\n      sub\n        /* \"#utility.yul\":292:324   */\n      slt\n        /* \"#utility.yul\":289:341   */\n      iszero\n      tag_366\n      jumpi\n        /* \"#utility.yul\":337:338   */\n      0x00\n        /* \"#utility.yul\":334:335   */\n      dup1\n        /* \"#utility.yul\":327:339   */\n      revert\n        /* \"#utility.yul\":289:341   */\n    tag_366:\n        /* \"#utility.yul\":360:389   */\n      tag_367\n        /* \"#utility.yul\":379:388   */\n      dup4\n        /* \"#utility.yul\":360:389   */\n      tag_349\n      jump\t// in\n    tag_367:\n        /* \"#utility.yul\":350:389   */\n      swap5\n        /* \"#utility.yul\":436:438   */\n      0x20\n        /* \"#utility.yul\":421:439   */\n      swap4\n      swap1\n      swap4\n      add\n        /* \"#utility.yul\":408:440   */\n      calldataload\n      swap4\n      pop\n      pop\n      pop\n        /* \"#utility.yul\":192:446   */\n      jump\t// out\n        /* \"#utility.yul\":633:764   */\n    tag_350:\n      not(sub(shl(0xe0, 0x01), 0x01))\n        /* \"#utility.yul\":707:739   */\n      dup2\n      and\n        /* \"#utility.yul\":697:740   */\n      dup2\n      eq\n        /* \"#utility.yul\":687:758   */\n      tag_114\n      jumpi\n        /* \"#utility.yul\":754:755   */\n      0x00\n        /* \"#utility.yul\":751:752   */\n      dup1\n        /* \"#utility.yul\":744:756   */\n      revert\n        /* \"#utility.yul\":769:1014   */\n    tag_30:\n        /* \"#utility.yul\":827:833   */\n      0x00\n        /* \"#utility.yul\":880:882   */\n      0x20\n        /* \"#utility.yul\":868:877   */\n      dup3\n        /* \"#utility.yul\":859:866   */\n      dup5\n        /* \"#utility.yul\":855:878   */\n      sub\n        /* \"#utility.yul\":851:883   */\n      slt\n        /* \"#utility.yul\":848:900   */\n      iszero\n      tag_372\n      jumpi\n        /* \"#utility.yul\":896:897   */\n      0x00\n        /* \"#utility.yul\":893:894   */\n      dup1\n        /* \"#utility.yul\":886:898   */\n      revert\n        /* \"#utility.yul\":848:900   */\n    tag_372:\n        /* \"#utility.yul\":935:944   */\n      dup2\n        /* \"#utility.yul\":922:945   */\n      calldataload\n        /* \"#utility.yul\":954:984   */\n      tag_373\n        /* \"#utility.yul\":978:983   */\n      dup2\n        /* \"#utility.yul\":954:984   */\n      tag_350\n      jump\t// in\n    tag_373:\n        /* \"#utility.yul\":1003:1008   */\n      swap4\n        /* \"#utility.yul\":769:1014   */\n      swap3\n      pop\n      pop\n      pop\n      jump\t// out\n        /* \"#utility.yul\":1211:1338   */\n    tag_128:\n        /* \"#utility.yul\":1272:1282   */\n      0x4e487b71\n        /* \"#utility.yul\":1267:1270   */\n      0xe0\n        /* \"#utility.yul\":1263:1283   */\n      shl\n        /* \"#utility.yul\":1260:1261   */\n      0x00\n        /* \"#utility.yul\":1253:1284   */\n      mstore\n        /* \"#utility.yul\":1303:1307   */\n      0x41\n        /* \"#utility.yul\":1300:1301   */\n      0x04\n        /* \"#utility.yul\":1293:1308   */\n      mstore\n        /* \"#utility.yul\":1327:1331   */\n      0x24\n        /* \"#utility.yul\":1324:1325   */\n      0x00\n        /* \"#utility.yul\":1317:1332   */\n      revert\n        /* \"#utility.yul\":1343:1618   */\n    tag_351:\n        /* \"#utility.yul\":1414:1416   */\n      0x40\n        /* \"#utility.yul\":1408:1417   */\n      mload\n        /* \"#utility.yul\":1479:1481   */\n      0x1f\n        /* \"#utility.yul\":1460:1473   */\n      dup3\n      add\n      not(0x1f)\n        /* \"#utility.yul\":1456:1483   */\n      and\n        /* \"#utility.yul\":1444:1484   */\n      dup2\n      add\n      sub(shl(0x40, 0x01), 0x01)\n        /* \"#utility.yul\":1499:1533   */\n      dup2\n      gt\n        /* \"#utility.yul\":1535:1557   */\n      dup3\n      dup3\n      lt\n        /* \"#utility.yul\":1496:1558   */\n      or\n        /* \"#utility.yul\":1493:1581   */\n      iszero\n      tag_378\n      jumpi\n        /* \"#utility.yul\":1561:1579   */\n      tag_378\n      tag_128\n      jump\t// in\n    tag_378:\n        /* \"#utility.yul\":1597:1599   */\n      0x40\n        /* \"#utility.yul\":1590:1612   */\n      mstore\n        /* \"#utility.yul\":1343:1618   */\n      swap2\n      swap1\n      pop\n      jump\t// out\n        /* \"#utility.yul\":1623:2154   */\n    tag_352:\n        /* \"#utility.yul\":1666:1671   */\n      0x00\n        /* \"#utility.yul\":1719:1722   */\n      dup3\n        /* \"#utility.yul\":1712:1716   */\n      0x1f\n        /* \"#utility.yul\":1704:1710   */\n      dup4\n        /* \"#utility.yul\":1700:1717   */\n      add\n        /* \"#utility.yul\":1696:1723   */\n      slt\n        /* \"#utility.yul\":1686:1741   */\n      tag_380\n      jumpi\n        /* \"#utility.yul\":1737:1738   */\n      0x00\n        /* \"#utility.yul\":1734:1735   */\n      dup1\n        /* \"#utility.yul\":1727:1739   */\n      revert\n        /* \"#utility.yul\":1686:1741   */\n    tag_380:\n        /* \"#utility.yul\":1760:1780   */\n      dup2\n      calldataload\n      sub(shl(0x40, 0x01), 0x01)\n        /* \"#utility.yul\":1792:1818   */\n      dup2\n      gt\n        /* \"#utility.yul\":1789:1841   */\n      iszero\n      tag_382\n      jumpi\n        /* \"#utility.yul\":1821:1839   */\n      tag_382\n      tag_128\n      jump\t// in\n    tag_382:\n        /* \"#utility.yul\":1865:1920   */\n      tag_383\n        /* \"#utility.yul\":1908:1910   */\n      0x1f\n        /* \"#utility.yul\":1889:1902   */\n      dup3\n      add\n      not(0x1f)\n        /* \"#utility.yul\":1885:1912   */\n      and\n        /* \"#utility.yul\":1914:1918   */\n      0x20\n        /* \"#utility.yul\":1881:1919   */\n      add\n        /* \"#utility.yul\":1865:1920   */\n      tag_351\n      jump\t// in\n    tag_383:\n        /* \"#utility.yul\":1945:1947   */\n      dup2\n        /* \"#utility.yul\":1936:1943   */\n      dup2\n        /* \"#utility.yul\":1929:1948   */\n      mstore\n        /* \"#utility.yul\":1991:1994   */\n      dup5\n        /* \"#utility.yul\":1984:1988   */\n      0x20\n        /* \"#utility.yul\":1979:1981   */\n      dup4\n        /* \"#utility.yul\":1971:1977   */\n      dup7\n        /* \"#utility.yul\":1967:1982   */\n      add\n        /* \"#utility.yul\":1963:1989   */\n      add\n        /* \"#utility.yul\":1960:1995   */\n      gt\n        /* \"#utility.yul\":1957:2012   */\n      iszero\n      tag_384\n      jumpi\n        /* \"#utility.yul\":2008:2009   */\n      0x00\n        /* \"#utility.yul\":2005:2006   */\n      dup1\n        /* \"#utility.yul\":1998:2010   */\n      revert\n        /* \"#utility.yul\":1957:2012   */\n    tag_384:\n        /* \"#utility.yul\":2073:2075   */\n      dup2\n        /* \"#utility.yul\":2066:2070   */\n      0x20\n        /* \"#utility.yul\":2058:2064   */\n      dup6\n        /* \"#utility.yul\":2054:2071   */\n      add\n        /* \"#utility.yul\":2047:2051   */\n      0x20\n        /* \"#utility.yul\":2038:2045   */\n      dup4\n        /* \"#utility.yul\":2034:2052   */\n      add\n        /* \"#utility.yul\":2021:2076   */\n      calldatacopy\n        /* \"#utility.yul\":2121:2122   */\n      0x00\n        /* \"#utility.yul\":2096:2112   */\n      swap2\n      dup2\n      add\n        /* \"#utility.yul\":2114:2118   */\n      0x20\n        /* \"#utility.yul\":2092:2119   */\n      add\n        /* \"#utility.yul\":2085:2123   */\n      swap2\n      swap1\n      swap2\n      mstore\n        /* \"#utility.yul\":2100:2107   */\n      swap4\n        /* \"#utility.yul\":1623:2154   */\n      swap3\n      pop\n      pop\n      pop\n      jump\t// out\n        /* \"#utility.yul\":2159:2481   */\n    tag_36:\n        /* \"#utility.yul\":2228:2234   */\n      0x00\n        /* \"#utility.yul\":2281:2283   */\n      0x20\n        /* \"#utility.yul\":2269:2278   */\n      dup3\n        /* \"#utility.yul\":2260:2267   */\n      dup5\n        /* \"#utility.yul\":2256:2279   */\n      sub\n        /* \"#utility.yul\":2252:2284   */\n      slt\n        /* \"#utility.yul\":2249:2301   */\n      iszero\n      tag_386\n      jumpi\n        /* \"#utility.yul\":2297:2298   */\n      0x00\n        /* \"#utility.yul\":2294:2295   */\n      dup1\n        /* \"#utility.yul\":2287:2299   */\n      revert\n        /* \"#utility.yul\":2249:2301   */\n    tag_386:\n        /* \"#utility.yul\":2324:2347   */\n      dup2\n      calldataload\n      sub(shl(0x40, 0x01), 0x01)\n        /* \"#utility.yul\":2359:2389   */\n      dup2\n      gt\n        /* \"#utility.yul\":2356:2406   */\n      iszero\n      tag_387\n      jumpi\n        /* \"#utility.yul\":2402:2403   */\n      0x00\n        /* \"#utility.yul\":2399:2400   */\n      dup1\n        /* \"#utility.yul\":2392:2404   */\n      revert\n        /* \"#utility.yul\":2356:2406   */\n    tag_387:\n        /* \"#utility.yul\":2425:2475   */\n      tag_213\n        /* \"#utility.yul\":2467:2474   */\n      dup5\n        /* \"#utility.yul\":2458:2464   */\n      dup3\n        /* \"#utility.yul\":2447:2456   */\n      dup6\n        /* \"#utility.yul\":2443:2465   */\n      add\n        /* \"#utility.yul\":2425:2475   */\n      tag_352\n      jump\t// in\n        /* \"#utility.yul\":2486:2775   */\n    tag_353:\n        /* \"#utility.yul\":2528:2531   */\n      0x00\n        /* \"#utility.yul\":2566:2571   */\n      dup2\n        /* \"#utility.yul\":2560:2572   */\n      mload\n        /* \"#utility.yul\":2593:2599   */\n      dup1\n        /* \"#utility.yul\":2588:2591   */\n      dup5\n        /* \"#utility.yul\":2581:2600   */\n      mstore\n        /* \"#utility.yul\":2649:2655   */\n      dup1\n        /* \"#utility.yul\":2642:2646   */\n      0x20\n        /* \"#utility.yul\":2635:2640   */\n      dup5\n        /* \"#utility.yul\":2631:2647   */\n      add\n        /* \"#utility.yul\":2624:2628   */\n      0x20\n        /* \"#utility.yul\":2619:2622   */\n      dup7\n        /* \"#utility.yul\":2615:2629   */\n      add\n        /* \"#utility.yul\":2609:2656   */\n      mcopy\n        /* \"#utility.yul\":2701:2702   */\n      0x00\n        /* \"#utility.yul\":2694:2698   */\n      0x20\n        /* \"#utility.yul\":2685:2691   */\n      dup3\n        /* \"#utility.yul\":2680:2683   */\n      dup7\n        /* \"#utility.yul\":2676:2692   */\n      add\n        /* \"#utility.yul\":2672:2699   */\n      add\n        /* \"#utility.yul\":2665:2703   */\n      mstore\n        /* \"#utility.yul\":2764:2768   */\n      0x20\n        /* \"#utility.yul\":2757:2759   */\n      0x1f\n        /* \"#utility.yul\":2753:2760   */\n      not\n        /* \"#utility.yul\":2748:2750   */\n      0x1f\n        /* \"#utility.yul\":2740:2746   */\n      dup4\n        /* \"#utility.yul\":2736:2751   */\n      add\n        /* \"#utility.yul\":2732:2761   */\n      and\n        /* \"#utility.yul\":2727:2730   */\n      dup6\n        /* \"#utility.yul\":2723:2762   */\n      add\n        /* \"#utility.yul\":2719:2769   */\n      add\n        /* \"#utility.yul\":2712:2769   */\n      swap2\n      pop\n      pop\n        /* \"#utility.yul\":2486:2775   */\n      swap3\n      swap2\n      pop\n      pop\n      jump\t// out\n        /* \"#utility.yul\":2780:3000   */\n    tag_41:\n        /* \"#utility.yul\":2929:2931   */\n      0x20\n        /* \"#utility.yul\":2918:2927   */\n      dup2\n        /* \"#utility.yul\":2911:2932   */\n      mstore\n        /* \"#utility.yul\":2892:2896   */\n      0x00\n        /* \"#utility.yul\":2949:2994   */\n      tag_373\n        /* \"#utility.yul\":2990:2992   */\n      0x20\n        /* \"#utility.yul\":2979:2988   */\n      dup4\n        /* \"#utility.yul\":2975:2993   */\n      add\n        /* \"#utility.yul\":2967:2973   */\n      dup5\n        /* \"#utility.yul\":2949:2994   */\n      tag_353\n      jump\t// in\n        /* \"#utility.yul\":3005:3469   */\n    tag_44:\n        /* \"#utility.yul\":3092:3098   */\n      0x00\n        /* \"#utility.yul\":3100:3106   */\n      dup1\n        /* \"#utility.yul\":3108:3114   */\n      0x00\n        /* \"#utility.yul\":3161:3163   */\n      0x60\n        /* \"#utility.yul\":3149:3158   */\n      dup5\n        /* \"#utility.yul\":3140:3147   */\n      dup7\n        /* \"#utility.yul\":3136:3159   */\n      sub\n        /* \"#utility.yul\":3132:3164   */\n      slt\n        /* \"#utility.yul\":3129:3181   */\n      iszero\n      tag_393\n      jumpi\n        /* \"#utility.yul\":3177:3178   */\n      0x00\n        /* \"#utility.yul\":3174:3175   */\n      dup1\n        /* \"#utility.yul\":3167:3179   */\n      revert\n        /* \"#utility.yul\":3129:3181   */\n    tag_393:\n        /* \"#utility.yul\":3200:3229   */\n      tag_394\n        /* \"#utility.yul\":3219:3228   */\n      dup5\n        /* \"#utility.yul\":3200:3229   */\n      tag_349\n      jump\t// in\n    tag_394:\n        /* \"#utility.yul\":3190:3229   */\n      swap3\n      pop\n        /* \"#utility.yul\":3280:3282   */\n      0x20\n        /* \"#utility.yul\":3265:3283   */\n      dup5\n      add\n        /* \"#utility.yul\":3252:3284   */\n      calldataload\n      sub(shl(0x40, 0x01), 0x01)\n        /* \"#utility.yul\":3296:3326   */\n      dup2\n      gt\n        /* \"#utility.yul\":3293:3343   */\n      iszero\n      tag_395\n      jumpi\n        /* \"#utility.yul\":3339:3340   */\n      0x00\n        /* \"#utility.yul\":3336:3337   */\n      dup1\n        /* \"#utility.yul\":3329:3341   */\n      revert\n        /* \"#utility.yul\":3293:3343   */\n    tag_395:\n        /* \"#utility.yul\":3362:3412   */\n      tag_396\n        /* \"#utility.yul\":3404:3411   */\n      dup7\n        /* \"#utility.yul\":3395:3401   */\n      dup3\n        /* \"#utility.yul\":3384:3393   */\n      dup8\n        /* \"#utility.yul\":3380:3402   */\n      add\n        /* \"#utility.yul\":3362:3412   */\n      tag_352\n      jump\t// in\n    tag_396:\n        /* \"#utility.yul\":3352:3412   */\n      swap3\n      pop\n      pop\n        /* \"#utility.yul\":3459:3461   */\n      0x40\n        /* \"#utility.yul\":3448:3457   */\n      dup5\n        /* \"#utility.yul\":3444:3462   */\n      add\n        /* \"#utility.yul\":3431:3463   */\n      calldataload\n        /* \"#utility.yul\":3421:3463   */\n      swap1\n      pop\n        /* \"#utility.yul\":3005:3469   */\n      swap3\n      pop\n      swap3\n      pop\n      swap3\n      jump\t// out\n        /* \"#utility.yul\":3474:3913   */\n    tag_354:\n        /* \"#utility.yul\":3527:3530   */\n      0x00\n        /* \"#utility.yul\":3565:3570   */\n      dup2\n        /* \"#utility.yul\":3559:3571   */\n      mload\n        /* \"#utility.yul\":3592:3598   */\n      dup1\n        /* \"#utility.yul\":3587:3590   */\n      dup5\n        /* \"#utility.yul\":3580:3599   */\n      mstore\n        /* \"#utility.yul\":3618:3622   */\n      0x20\n        /* \"#utility.yul\":3647:3651   */\n      dup1\n        /* \"#utility.yul\":3642:3645   */\n      dup6\n        /* \"#utility.yul\":3638:3652   */\n      add\n        /* \"#utility.yul\":3631:3652   */\n      swap5\n      pop\n        /* \"#utility.yul\":3686:3690   */\n      0x20\n        /* \"#utility.yul\":3679:3684   */\n      dup5\n        /* \"#utility.yul\":3675:3691   */\n      add\n        /* \"#utility.yul\":3709:3710   */\n      0x00\n        /* \"#utility.yul\":3719:3888   */\n    tag_398:\n        /* \"#utility.yul\":3733:3739   */\n      dup4\n        /* \"#utility.yul\":3730:3731   */\n      dup2\n        /* \"#utility.yul\":3727:3740   */\n      lt\n        /* \"#utility.yul\":3719:3888   */\n      iszero\n      tag_400\n      jumpi\n        /* \"#utility.yul\":3794:3807   */\n      dup2\n      mload\n        /* \"#utility.yul\":3782:3808   */\n      dup8\n      mstore\n        /* \"#utility.yul\":3828:3840   */\n      swap6\n      dup3\n      add\n      swap6\n        /* \"#utility.yul\":3863:3878   */\n      swap1\n      dup3\n      add\n      swap1\n        /* \"#utility.yul\":3755:3756   */\n      0x01\n        /* \"#utility.yul\":3748:3757   */\n      add\n        /* \"#utility.yul\":3719:3888   */\n      jump(tag_398)\n    tag_400:\n      pop\n        /* \"#utility.yul\":3904:3907   */\n      swap5\n      swap6\n        /* \"#utility.yul\":3474:3913   */\n      swap5\n      pop\n      pop\n      pop\n      pop\n      pop\n      jump\t// out\n        /* \"#utility.yul\":3918:4179   */\n    tag_47:\n        /* \"#utility.yul\":4097:4099   */\n      0x20\n        /* \"#utility.yul\":4086:4095   */\n      dup2\n        /* \"#utility.yul\":4079:4100   */\n      mstore\n        /* \"#utility.yul\":4060:4064   */\n      0x00\n        /* \"#utility.yul\":4117:4173   */\n      tag_373\n        /* \"#utility.yul\":4169:4171   */\n      0x20\n        /* \"#utility.yul\":4158:4167   */\n      dup4\n        /* \"#utility.yul\":4154:4172   */\n      add\n        /* \"#utility.yul\":4146:4152   */\n      dup5\n        /* \"#utility.yul\":4117:4173   */\n      tag_354\n      jump\t// in\n        /* \"#utility.yul\":4184:4364   */\n    tag_50:\n        /* \"#utility.yul\":4243:4249   */\n      0x00\n        /* \"#utility.yul\":4296:4298   */\n      0x20\n        /* \"#utility.yul\":4284:4293   */\n      dup3\n        /* \"#utility.yul\":4275:4282   */\n      dup5\n        /* \"#utility.yul\":4271:4294   */\n      sub\n        /* \"#utility.yul\":4267:4299   */\n      slt\n        /* \"#utility.yul\":4264:4316   */\n      iszero\n      tag_404\n      jumpi\n        /* \"#utility.yul\":4312:4313   */\n      0x00\n        /* \"#utility.yul\":4309:4310   */\n      dup1\n        /* \"#utility.yul\":4302:4314   */\n      revert\n        /* \"#utility.yul\":4264:4316   */\n    tag_404:\n      pop\n        /* \"#utility.yul\":4335:4358   */\n      calldataload\n      swap2\n        /* \"#utility.yul\":4184:4364   */\n      swap1\n      pop\n      jump\t// out\n        /* \"#utility.yul\":4369:4552   */\n    tag_355:\n        /* \"#utility.yul\":4429:4433   */\n      0x00\n      sub(shl(0x40, 0x01), 0x01)\n        /* \"#utility.yul\":4451:4481   */\n      dup3\n      gt\n        /* \"#utility.yul\":4448:4504   */\n      iszero\n      tag_407\n      jumpi\n        /* \"#utility.yul\":4484:4502   */\n      tag_407\n      tag_128\n      jump\t// in\n    tag_407:\n      pop\n        /* \"#utility.yul\":4529:4530   */\n      0x05\n        /* \"#utility.yul\":4525:4539   */\n      shl\n        /* \"#utility.yul\":4541:4545   */\n      0x20\n        /* \"#utility.yul\":4521:4546   */\n      add\n      swap1\n        /* \"#utility.yul\":4369:4552   */\n      jump\t// out\n        /* \"#utility.yul\":4557:5225   */\n    tag_356:\n        /* \"#utility.yul\":4611:4616   */\n      0x00\n        /* \"#utility.yul\":4664:4667   */\n      dup3\n        /* \"#utility.yul\":4657:4661   */\n      0x1f\n        /* \"#utility.yul\":4649:4655   */\n      dup4\n        /* \"#utility.yul\":4645:4662   */\n      add\n        /* \"#utility.yul\":4641:4668   */\n      slt\n        /* \"#utility.yul\":4631:4686   */\n      tag_409\n      jumpi\n        /* \"#utility.yul\":4682:4683   */\n      0x00\n        /* \"#utility.yul\":4679:4680   */\n      dup1\n        /* \"#utility.yul\":4672:4684   */\n      revert\n        /* \"#utility.yul\":4631:4686   */\n    tag_409:\n        /* \"#utility.yul\":4718:4724   */\n      dup2\n        /* \"#utility.yul\":4705:4725   */\n      calldataload\n        /* \"#utility.yul\":4744:4748   */\n      0x20\n        /* \"#utility.yul\":4768:4828   */\n      tag_410\n        /* \"#utility.yul\":4784:4827   */\n      tag_411\n        /* \"#utility.yul\":4824:4826   */\n      dup4\n        /* \"#utility.yul\":4784:4827   */\n      tag_355\n      jump\t// in\n    tag_411:\n        /* \"#utility.yul\":4768:4828   */\n      tag_351\n      jump\t// in\n    tag_410:\n        /* \"#utility.yul\":4850:4853   */\n      dup1\n        /* \"#utility.yul\":4874:4876   */\n      dup4\n        /* \"#utility.yul\":4869:4872   */\n      dup3\n        /* \"#utility.yul\":4862:4877   */\n      mstore\n        /* \"#utility.yul\":4902:4906   */\n      0x20\n        /* \"#utility.yul\":4897:4900   */\n      dup3\n        /* \"#utility.yul\":4893:4907   */\n      add\n        /* \"#utility.yul\":4886:4907   */\n      swap2\n      pop\n        /* \"#utility.yul\":4959:4963   */\n      0x20\n        /* \"#utility.yul\":4953:4955   */\n      dup5\n        /* \"#utility.yul\":4950:4951   */\n      0x05\n        /* \"#utility.yul\":4946:4956   */\n      shl\n        /* \"#utility.yul\":4938:4944   */\n      dup8\n        /* \"#utility.yul\":4934:4957   */\n      add\n        /* \"#utility.yul\":4930:4964   */\n      add\n        /* \"#utility.yul\":4916:4964   */\n      swap4\n      pop\n        /* \"#utility.yul\":4987:4990   */\n      dup7\n        /* \"#utility.yul\":4979:4985   */\n      dup5\n        /* \"#utility.yul\":4976:4991   */\n      gt\n        /* \"#utility.yul\":4973:5008   */\n      iszero\n      tag_412\n      jumpi\n        /* \"#utility.yul\":5004:5005   */\n      0x00\n        /* \"#utility.yul\":5001:5002   */\n      dup1\n        /* \"#utility.yul\":4994:5006   */\n      revert\n        /* \"#utility.yul\":4973:5008   */\n    tag_412:\n        /* \"#utility.yul\":5040:5044   */\n      0x20\n        /* \"#utility.yul\":5032:5038   */\n      dup7\n        /* \"#utility.yul\":5028:5045   */\n      add\n        /* \"#utility.yul\":5054:5196   */\n    tag_413:\n        /* \"#utility.yul\":5070:5076   */\n      dup5\n        /* \"#utility.yul\":5065:5068   */\n      dup2\n        /* \"#utility.yul\":5062:5077   */\n      lt\n        /* \"#utility.yul\":5054:5196   */\n      iszero\n      tag_415\n      jumpi\n        /* \"#utility.yul\":5136:5153   */\n      dup1\n      calldataload\n        /* \"#utility.yul\":5124:5154   */\n      dup4\n      mstore\n        /* \"#utility.yul\":5174:5186   */\n      swap2\n      dup4\n      add\n      swap2\n        /* \"#utility.yul\":5087:5099   */\n      dup4\n      add\n        /* \"#utility.yul\":5054:5196   */\n      jump(tag_413)\n    tag_415:\n      pop\n        /* \"#utility.yul\":5214:5219   */\n      swap7\n        /* \"#utility.yul\":4557:5225   */\n      swap6\n      pop\n      pop\n      pop\n      pop\n      pop\n      pop\n      jump\t// out\n        /* \"#utility.yul\":5230:6174   */\n    tag_58:\n        /* \"#utility.yul\":5384:5390   */\n      0x00\n        /* \"#utility.yul\":5392:5398   */\n      dup1\n        /* \"#utility.yul\":5400:5406   */\n      0x00\n        /* \"#utility.yul\":5408:5414   */\n      dup1\n        /* \"#utility.yul\":5416:5422   */\n      0x00\n        /* \"#utility.yul\":5469:5472   */\n      0xa0\n        /* \"#utility.yul\":5457:5466   */\n      dup7\n        /* \"#utility.yul\":5448:5455   */\n      dup9\n        /* \"#utility.yul\":5444:5467   */\n      sub\n        /* \"#utility.yul\":5440:5473   */\n      slt\n        /* \"#utility.yul\":5437:5490   */\n      iszero\n      tag_417\n      jumpi\n        /* \"#utility.yul\":5486:5487   */\n      0x00\n        /* \"#utility.yul\":5483:5484   */\n      dup1\n        /* \"#utility.yul\":5476:5488   */\n      revert\n        /* \"#utility.yul\":5437:5490   */\n    tag_417:\n        /* \"#utility.yul\":5509:5538   */\n      tag_418\n        /* \"#utility.yul\":5528:5537   */\n      dup7\n        /* \"#utility.yul\":5509:5538   */\n      tag_349\n      jump\t// in\n    tag_418:\n        /* \"#utility.yul\":5499:5538   */\n      swap5\n      pop\n        /* \"#utility.yul\":5557:5595   */\n      tag_419\n        /* \"#utility.yul\":5591:5593   */\n      0x20\n        /* \"#utility.yul\":5580:5589   */\n      dup8\n        /* \"#utility.yul\":5576:5594   */\n      add\n        /* \"#utility.yul\":5557:5595   */\n      tag_349\n      jump\t// in\n    tag_419:\n        /* \"#utility.yul\":5547:5595   */\n      swap4\n      pop\n        /* \"#utility.yul\":5646:5648   */\n      0x40\n        /* \"#utility.yul\":5631:5649   */\n      dup7\n      add\n        /* \"#utility.yul\":5618:5650   */\n      calldataload\n      sub(shl(0x40, 0x01), 0x01)\n        /* \"#utility.yul\":5699:5713   */\n      dup1\n      dup3\n      gt\n        /* \"#utility.yul\":5696:5730   */\n      iszero\n      tag_420\n      jumpi\n        /* \"#utility.yul\":5726:5727   */\n      0x00\n        /* \"#utility.yul\":5723:5724   */\n      dup1\n        /* \"#utility.yul\":5716:5728   */\n      revert\n        /* \"#utility.yul\":5696:5730   */\n    tag_420:\n        /* \"#utility.yul\":5749:5810   */\n      tag_421\n        /* \"#utility.yul\":5802:5809   */\n      dup10\n        /* \"#utility.yul\":5793:5799   */\n      dup4\n        /* \"#utility.yul\":5782:5791   */\n      dup11\n        /* \"#utility.yul\":5778:5800   */\n      add\n        /* \"#utility.yul\":5749:5810   */\n      tag_356\n      jump\t// in\n    tag_421:\n        /* \"#utility.yul\":5739:5810   */\n      swap5\n      pop\n        /* \"#utility.yul\":5863:5865   */\n      0x60\n        /* \"#utility.yul\":5852:5861   */\n      dup9\n        /* \"#utility.yul\":5848:5866   */\n      add\n        /* \"#utility.yul\":5835:5867   */\n      calldataload\n        /* \"#utility.yul\":5819:5867   */\n      swap2\n      pop\n        /* \"#utility.yul\":5892:5894   */\n      dup1\n        /* \"#utility.yul\":5882:5890   */\n      dup3\n        /* \"#utility.yul\":5879:5895   */\n      gt\n        /* \"#utility.yul\":5876:5912   */\n      iszero\n      tag_422\n      jumpi\n        /* \"#utility.yul\":5908:5909   */\n      0x00\n        /* \"#utility.yul\":5905:5906   */\n      dup1\n        /* \"#utility.yul\":5898:5910   */\n      revert\n        /* \"#utility.yul\":5876:5912   */\n    tag_422:\n        /* \"#utility.yul\":5931:5994   */\n      tag_423\n        /* \"#utility.yul\":5986:5993   */\n      dup10\n        /* \"#utility.yul\":5975:5983   */\n      dup4\n        /* \"#utility.yul\":5964:5973   */\n      dup11\n        /* \"#utility.yul\":5960:5984   */\n      add\n        /* \"#utility.yul\":5931:5994   */\n      tag_356\n      jump\t// in\n    tag_423:\n        /* \"#utility.yul\":5921:5994   */\n      swap4\n      pop\n        /* \"#utility.yul\":6047:6050   */\n      0x80\n        /* \"#utility.yul\":6036:6045   */\n      dup9\n        /* \"#utility.yul\":6032:6051   */\n      add\n        /* \"#utility.yul\":6019:6052   */\n      calldataload\n        /* \"#utility.yul\":6003:6052   */\n      swap2\n      pop\n        /* \"#utility.yul\":6077:6079   */\n      dup1\n        /* \"#utility.yul\":6067:6075   */\n      dup3\n        /* \"#utility.yul\":6064:6080   */\n      gt\n        /* \"#utility.yul\":6061:6097   */\n      iszero\n      tag_424\n      jumpi\n        /* \"#utility.yul\":6093:6094   */\n      0x00\n        /* \"#utility.yul\":6090:6091   */\n      dup1\n        /* \"#utility.yul\":6083:6095   */\n      revert\n        /* \"#utility.yul\":6061:6097   */\n    tag_424:\n      pop\n        /* \"#utility.yul\":6116:6168   */\n      tag_425\n        /* \"#utility.yul\":6160:6167   */\n      dup9\n        /* \"#utility.yul\":6149:6157   */\n      dup3\n        /* \"#utility.yul\":6138:6147   */\n      dup10\n        /* \"#utility.yul\":6134:6158   */\n      add\n        /* \"#utility.yul\":6116:6168   */\n      tag_352\n      jump\t// in\n    tag_425:\n        /* \"#utility.yul\":6106:6168   */\n      swap2\n      pop\n      pop\n        /* \"#utility.yul\":5230:6174   */\n      swap3\n      swap6\n      pop\n      swap3\n      swap6\n      swap1\n      swap4\n      pop\n      jump\t// out\n        /* \"#utility.yul\":6179:6853   */\n    tag_357:\n        /* \"#utility.yul\":6233:6238   */\n      0x00\n        /* \"#utility.yul\":6286:6289   */\n      dup3\n        /* \"#utility.yul\":6279:6283   */\n      0x1f\n        /* \"#utility.yul\":6271:6277   */\n      dup4\n        /* \"#utility.yul\":6267:6284   */\n      add\n        /* \"#utility.yul\":6263:6290   */\n      slt\n        /* \"#utility.yul\":6253:6308   */\n      tag_427\n      jumpi\n        /* \"#utility.yul\":6304:6305   */\n      0x00\n        /* \"#utility.yul\":6301:6302   */\n      dup1\n        /* \"#utility.yul\":6294:6306   */\n      revert\n        /* \"#utility.yul\":6253:6308   */\n    tag_427:\n        /* \"#utility.yul\":6340:6346   */\n      dup2\n        /* \"#utility.yul\":6327:6347   */\n      calldataload\n        /* \"#utility.yul\":6366:6370   */\n      0x20\n        /* \"#utility.yul\":6390:6450   */\n      tag_428\n        /* \"#utility.yul\":6406:6449   */\n      tag_411\n        /* \"#utility.yul\":6446:6448   */\n      dup4\n        /* \"#utility.yul\":6406:6449   */\n      tag_355\n      jump\t// in\n        /* \"#utility.yul\":6390:6450   */\n    tag_428:\n        /* \"#utility.yul\":6472:6475   */\n      dup1\n        /* \"#utility.yul\":6496:6498   */\n      dup4\n        /* \"#utility.yul\":6491:6494   */\n      dup3\n        /* \"#utility.yul\":6484:6499   */\n      mstore\n        /* \"#utility.yul\":6524:6528   */\n      0x20\n        /* \"#utility.yul\":6519:6522   */\n      dup3\n        /* \"#utility.yul\":6515:6529   */\n      add\n        /* \"#utility.yul\":6508:6529   */\n      swap2\n      pop\n        /* \"#utility.yul\":6581:6585   */\n      0x20\n        /* \"#utility.yul\":6575:6577   */\n      dup5\n        /* \"#utility.yul\":6572:6573   */\n      0x05\n        /* \"#utility.yul\":6568:6578   */\n      shl\n        /* \"#utility.yul\":6560:6566   */\n      dup8\n        /* \"#utility.yul\":6556:6579   */\n      add\n        /* \"#utility.yul\":6552:6586   */\n      add\n        /* \"#utility.yul\":6538:6586   */\n      swap4\n      pop\n        /* \"#utility.yul\":6609:6612   */\n      dup7\n        /* \"#utility.yul\":6601:6607   */\n      dup5\n        /* \"#utility.yul\":6598:6613   */\n      gt\n        /* \"#utility.yul\":6595:6630   */\n      iszero\n      tag_430\n      jumpi\n        /* \"#utility.yul\":6626:6627   */\n      0x00\n        /* \"#utility.yul\":6623:6624   */\n      dup1\n        /* \"#utility.yul\":6616:6628   */\n      revert\n        /* \"#utility.yul\":6595:6630   */\n    tag_430:\n        /* \"#utility.yul\":6662:6666   */\n      0x20\n        /* \"#utility.yul\":6654:6660   */\n      dup7\n        /* \"#utility.yul\":6650:6667   */\n      add\n        /* \"#utility.yul\":6676:6824   */\n    tag_431:\n        /* \"#utility.yul\":6692:6698   */\n      dup5\n        /* \"#utility.yul\":6687:6690   */\n      dup2\n        /* \"#utility.yul\":6684:6699   */\n      lt\n        /* \"#utility.yul\":6676:6824   */\n      iszero\n      tag_415\n      jumpi\n        /* \"#utility.yul\":6758:6781   */\n      tag_434\n        /* \"#utility.yul\":6777:6780   */\n      dup2\n        /* \"#utility.yul\":6758:6781   */\n      tag_349\n      jump\t// in\n    tag_434:\n        /* \"#utility.yul\":6746:6782   */\n      dup4\n      mstore\n        /* \"#utility.yul\":6802:6814   */\n      swap2\n      dup4\n      add\n      swap2\n        /* \"#utility.yul\":6709:6721   */\n      dup4\n      add\n        /* \"#utility.yul\":6676:6824   */\n      jump(tag_431)\n        /* \"#utility.yul\":6858:7453   */\n    tag_62:\n        /* \"#utility.yul\":6976:6982   */\n      0x00\n        /* \"#utility.yul\":6984:6990   */\n      dup1\n        /* \"#utility.yul\":7037:7039   */\n      0x40\n        /* \"#utility.yul\":7025:7034   */\n      dup4\n        /* \"#utility.yul\":7016:7023   */\n      dup6\n        /* \"#utility.yul\":7012:7035   */\n      sub\n        /* \"#utility.yul\":7008:7040   */\n      slt\n        /* \"#utility.yul\":7005:7057   */\n      iszero\n      tag_436\n      jumpi\n        /* \"#utility.yul\":7053:7054   */\n      0x00\n        /* \"#utility.yul\":7050:7051   */\n      dup1\n        /* \"#utility.yul\":7043:7055   */\n      revert\n        /* \"#utility.yul\":7005:7057   */\n    tag_436:\n        /* \"#utility.yul\":7080:7103   */\n      dup3\n      calldataload\n      sub(shl(0x40, 0x01), 0x01)\n        /* \"#utility.yul\":7152:7166   */\n      dup1\n      dup3\n      gt\n        /* \"#utility.yul\":7149:7183   */\n      iszero\n      tag_437\n      jumpi\n        /* \"#utility.yul\":7179:7180   */\n      0x00\n        /* \"#utility.yul\":7176:7177   */\n      dup1\n        /* \"#utility.yul\":7169:7181   */\n      revert\n        /* \"#utility.yul\":7149:7183   */\n    tag_437:\n        /* \"#utility.yul\":7202:7263   */\n      tag_438\n        /* \"#utility.yul\":7255:7262   */\n      dup7\n        /* \"#utility.yul\":7246:7252   */\n      dup4\n        /* \"#utility.yul\":7235:7244   */\n      dup8\n        /* \"#utility.yul\":7231:7253   */\n      add\n        /* \"#utility.yul\":7202:7263   */\n      tag_357\n      jump\t// in\n    tag_438:\n        /* \"#utility.yul\":7192:7263   */\n      swap4\n      pop\n        /* \"#utility.yul\":7316:7318   */\n      0x20\n        /* \"#utility.yul\":7305:7314   */\n      dup6\n        /* \"#utility.yul\":7301:7319   */\n      add\n        /* \"#utility.yul\":7288:7320   */\n      calldataload\n        /* \"#utility.yul\":7272:7320   */\n      swap2\n      pop\n        /* \"#utility.yul\":7345:7347   */\n      dup1\n        /* \"#utility.yul\":7335:7343   */\n      dup3\n        /* \"#utility.yul\":7332:7348   */\n      gt\n        /* \"#utility.yul\":7329:7365   */\n      iszero\n      tag_439\n      jumpi\n        /* \"#utility.yul\":7361:7362   */\n      0x00\n        /* \"#utility.yul\":7358:7359   */\n      dup1\n        /* \"#utility.yul\":7351:7363   */\n      revert\n        /* \"#utility.yul\":7329:7365   */\n    tag_439:\n      pop\n        /* \"#utility.yul\":7384:7447   */\n      tag_440\n        /* \"#utility.yul\":7439:7446   */\n      dup6\n        /* \"#utility.yul\":7428:7436   */\n      dup3\n        /* \"#utility.yul\":7417:7426   */\n      dup7\n        /* \"#utility.yul\":7413:7437   */\n      add\n        /* \"#utility.yul\":7384:7447   */\n      tag_356\n      jump\t// in\n    tag_440:\n        /* \"#utility.yul\":7374:7447   */\n      swap2\n      pop\n      pop\n        /* \"#utility.yul\":6858:7453   */\n      swap3\n      pop\n      swap3\n      swap1\n      pop\n      jump\t// out\n        /* \"#utility.yul\":7458:7661   */\n    tag_70:\n      sub(shl(0xa0, 0x01), 0x01)\n        /* \"#utility.yul\":7622:7654   */\n      swap2\n      swap1\n      swap2\n      and\n        /* \"#utility.yul\":7604:7655   */\n      dup2\n      mstore\n        /* \"#utility.yul\":7592:7594   */\n      0x20\n        /* \"#utility.yul\":7577:7595   */\n      add\n      swap1\n        /* \"#utility.yul\":7458:7661   */\n      jump\t// out\n        /* \"#utility.yul\":7666:8013   */\n    tag_76:\n        /* \"#utility.yul\":7731:7737   */\n      0x00\n        /* \"#utility.yul\":7739:7745   */\n      dup1\n        /* \"#utility.yul\":7792:7794   */\n      0x40\n        /* \"#utility.yul\":7780:7789   */\n      dup4\n        /* \"#utility.yul\":7771:7778   */\n      dup6\n        /* \"#utility.yul\":7767:7790   */\n      sub\n        /* \"#utility.yul\":7763:7795   */\n      slt\n        /* \"#utility.yul\":7760:7812   */\n      iszero\n      tag_443\n      jumpi\n        /* \"#utility.yul\":7808:7809   */\n      0x00\n        /* \"#utility.yul\":7805:7806   */\n      dup1\n        /* \"#utility.yul\":7798:7810   */\n      revert\n        /* \"#utility.yul\":7760:7812   */\n    tag_443:\n        /* \"#utility.yul\":7831:7860   */\n      tag_444\n        /* \"#utility.yul\":7850:7859   */\n      dup4\n        /* \"#utility.yul\":7831:7860   */\n      tag_349\n      jump\t// in\n    tag_444:\n        /* \"#utility.yul\":7821:7860   */\n      swap2\n      pop\n        /* \"#utility.yul\":7910:7912   */\n      0x20\n        /* \"#utility.yul\":7899:7908   */\n      dup4\n        /* \"#utility.yul\":7895:7913   */\n      add\n        /* \"#utility.yul\":7882:7914   */\n      calldataload\n        /* \"#utility.yul\":7957:7962   */\n      dup1\n        /* \"#utility.yul\":7950:7963   */\n      iszero\n        /* \"#utility.yul\":7943:7964   */\n      iszero\n        /* \"#utility.yul\":7936:7941   */\n      dup2\n        /* \"#utility.yul\":7933:7965   */\n      eq\n        /* \"#utility.yul\":7923:7983   */\n      tag_445\n      jumpi\n        /* \"#utility.yul\":7979:7980   */\n      0x00\n        /* \"#utility.yul\":7976:7977   */\n      dup1\n        /* \"#utility.yul\":7969:7981   */\n      revert\n        /* \"#utility.yul\":7923:7983   */\n    tag_445:\n        /* \"#utility.yul\":8002:8007   */\n      dup1\n        /* \"#utility.yul\":7992:8007   */\n      swap2\n      pop\n      pop\n        /* \"#utility.yul\":7666:8013   */\n      swap3\n      pop\n      swap3\n      swap1\n      pop\n      jump\t// out\n        /* \"#utility.yul\":8018:8655   */\n    tag_80:\n        /* \"#utility.yul\":8130:8136   */\n      0x00\n        /* \"#utility.yul\":8138:8144   */\n      dup1\n        /* \"#utility.yul\":8146:8152   */\n      0x00\n        /* \"#utility.yul\":8199:8201   */\n      0x60\n        /* \"#utility.yul\":8187:8196   */\n      dup5\n        /* \"#utility.yul\":8178:8185   */\n      dup7\n        /* \"#utility.yul\":8174:8197   */\n      sub\n        /* \"#utility.yul\":8170:8202   */\n      slt\n        /* \"#utility.yul\":8167:8219   */\n      iszero\n      tag_447\n      jumpi\n        /* \"#utility.yul\":8215:8216   */\n      0x00\n        /* \"#utility.yul\":8212:8213   */\n      dup1\n        /* \"#utility.yul\":8205:8217   */\n      revert\n        /* \"#utility.yul\":8167:8219   */\n    tag_447:\n        /* \"#utility.yul\":8242:8265   */\n      dup4\n      calldataload\n      sub(shl(0x40, 0x01), 0x01)\n        /* \"#utility.yul\":8314:8328   */\n      dup1\n      dup3\n      gt\n        /* \"#utility.yul\":8311:8345   */\n      iszero\n      tag_448\n      jumpi\n        /* \"#utility.yul\":8341:8342   */\n      0x00\n        /* \"#utility.yul\":8338:8339   */\n      dup1\n        /* \"#utility.yul\":8331:8343   */\n      revert\n        /* \"#utility.yul\":8311:8345   */\n    tag_448:\n        /* \"#utility.yul\":8364:8425   */\n      tag_449\n        /* \"#utility.yul\":8417:8424   */\n      dup8\n        /* \"#utility.yul\":8408:8414   */\n      dup4\n        /* \"#utility.yul\":8397:8406   */\n      dup9\n        /* \"#utility.yul\":8393:8415   */\n      add\n        /* \"#utility.yul\":8364:8425   */\n      tag_357\n      jump\t// in\n    tag_449:\n        /* \"#utility.yul\":8354:8425   */\n      swap5\n      pop\n        /* \"#utility.yul\":8478:8480   */\n      0x20\n        /* \"#utility.yul\":8467:8476   */\n      dup7\n        /* \"#utility.yul\":8463:8481   */\n      add\n        /* \"#utility.yul\":8450:8482   */\n      calldataload\n        /* \"#utility.yul\":8434:8482   */\n      swap2\n      pop\n        /* \"#utility.yul\":8507:8509   */\n      dup1\n        /* \"#utility.yul\":8497:8505   */\n      dup3\n        /* \"#utility.yul\":8494:8510   */\n      gt\n        /* \"#utility.yul\":8491:8527   */\n      iszero\n      tag_450\n      jumpi\n        /* \"#utility.yul\":8523:8524   */\n      0x00\n        /* \"#utility.yul\":8520:8521   */\n      dup1\n        /* \"#utility.yul\":8513:8525   */\n      revert\n        /* \"#utility.yul\":8491:8527   */\n    tag_450:\n      pop\n        /* \"#utility.yul\":8546:8598   */\n      tag_396\n        /* \"#utility.yul\":8590:8597   */\n      dup7\n        /* \"#utility.yul\":8579:8587   */\n      dup3\n        /* \"#utility.yul\":8568:8577   */\n      dup8\n        /* \"#utility.yul\":8564:8588   */\n      add\n        /* \"#utility.yul\":8546:8598   */\n      tag_352\n      jump\t// in\n        /* \"#utility.yul\":8660:8920   */\n    tag_93:\n        /* \"#utility.yul\":8728:8734   */\n      0x00\n        /* \"#utility.yul\":8736:8742   */\n      dup1\n        /* \"#utility.yul\":8789:8791   */\n      0x40\n        /* \"#utility.yul\":8777:8786   */\n      dup4\n        /* \"#utility.yul\":8768:8775   */\n      dup6\n        /* \"#utility.yul\":8764:8787   */\n      sub\n        /* \"#utility.yul\":8760:8792   */\n      slt\n        /* \"#utility.yul\":8757:8809   */\n      iszero\n      tag_453\n      jumpi\n        /* \"#utility.yul\":8805:8806   */\n      0x00\n        /* \"#utility.yul\":8802:8803   */\n      dup1\n        /* \"#utility.yul\":8795:8807   */\n      revert\n        /* \"#utility.yul\":8757:8809   */\n    tag_453:\n        /* \"#utility.yul\":8828:8857   */\n      tag_454\n        /* \"#utility.yul\":8847:8856   */\n      dup4\n        /* \"#utility.yul\":8828:8857   */\n      tag_349\n      jump\t// in\n    tag_454:\n        /* \"#utility.yul\":8818:8857   */\n      swap2\n      pop\n        /* \"#utility.yul\":8876:8914   */\n      tag_455\n        /* \"#utility.yul\":8910:8912   */\n      0x20\n        /* \"#utility.yul\":8899:8908   */\n      dup5\n        /* \"#utility.yul\":8895:8913   */\n      add\n        /* \"#utility.yul\":8876:8914   */\n      tag_349\n      jump\t// in\n    tag_455:\n        /* \"#utility.yul\":8866:8914   */\n      swap1\n      pop\n        /* \"#utility.yul\":8660:8920   */\n      swap3\n      pop\n      swap3\n      swap1\n      pop\n      jump\t// out\n        /* \"#utility.yul\":8925:9532   */\n    tag_98:\n        /* \"#utility.yul\":9029:9035   */\n      0x00\n        /* \"#utility.yul\":9037:9043   */\n      dup1\n        /* \"#utility.yul\":9045:9051   */\n      0x00\n        /* \"#utility.yul\":9053:9059   */\n      dup1\n        /* \"#utility.yul\":9061:9067   */\n      0x00\n        /* \"#utility.yul\":9114:9117   */\n      0xa0\n        /* \"#utility.yul\":9102:9111   */\n      dup7\n        /* \"#utility.yul\":9093:9100   */\n      dup9\n        /* \"#utility.yul\":9089:9112   */\n      sub\n        /* \"#utility.yul\":9085:9118   */\n      slt\n        /* \"#utility.yul\":9082:9135   */\n      iszero\n      tag_457\n      jumpi\n        /* \"#utility.yul\":9131:9132   */\n      0x00\n        /* \"#utility.yul\":9128:9129   */\n      dup1\n        /* \"#utility.yul\":9121:9133   */\n      revert\n        /* \"#utility.yul\":9082:9135   */\n    tag_457:\n        /* \"#utility.yul\":9154:9183   */\n      tag_458\n        /* \"#utility.yul\":9173:9182   */\n      dup7\n        /* \"#utility.yul\":9154:9183   */\n      tag_349\n      jump\t// in\n    tag_458:\n        /* \"#utility.yul\":9144:9183   */\n      swap5\n      pop\n        /* \"#utility.yul\":9202:9240   */\n      tag_459\n        /* \"#utility.yul\":9236:9238   */\n      0x20\n        /* \"#utility.yul\":9225:9234   */\n      dup8\n        /* \"#utility.yul\":9221:9239   */\n      add\n        /* \"#utility.yul\":9202:9240   */\n      tag_349\n      jump\t// in\n    tag_459:\n        /* \"#utility.yul\":9192:9240   */\n      swap4\n      pop\n        /* \"#utility.yul\":9287:9289   */\n      0x40\n        /* \"#utility.yul\":9272:9290   */\n      dup7\n      add\n        /* \"#utility.yul\":9259:9291   */\n      calldataload\n      swap3\n      pop\n        /* \"#utility.yul\":9338:9340   */\n      0x60\n        /* \"#utility.yul\":9323:9341   */\n      dup7\n      add\n        /* \"#utility.yul\":9310:9342   */\n      calldataload\n      swap2\n      pop\n        /* \"#utility.yul\":9393:9396   */\n      0x80\n        /* \"#utility.yul\":9378:9397   */\n      dup7\n      add\n        /* \"#utility.yul\":9365:9398   */\n      calldataload\n      sub(shl(0x40, 0x01), 0x01)\n        /* \"#utility.yul\":9410:9440   */\n      dup2\n      gt\n        /* \"#utility.yul\":9407:9457   */\n      iszero\n      tag_460\n      jumpi\n        /* \"#utility.yul\":9453:9454   */\n      0x00\n        /* \"#utility.yul\":9450:9451   */\n      dup1\n        /* \"#utility.yul\":9443:9455   */\n      revert\n        /* \"#utility.yul\":9407:9457   */\n    tag_460:\n        /* \"#utility.yul\":9476:9526   */\n      tag_425\n        /* \"#utility.yul\":9518:9525   */\n      dup9\n        /* \"#utility.yul\":9509:9515   */\n      dup3\n        /* \"#utility.yul\":9498:9507   */\n      dup10\n        /* \"#utility.yul\":9494:9516   */\n      add\n        /* \"#utility.yul\":9476:9526   */\n      tag_352\n      jump\t// in\n        /* \"#utility.yul\":9537:9723   */\n    tag_102:\n        /* \"#utility.yul\":9596:9602   */\n      0x00\n        /* \"#utility.yul\":9649:9651   */\n      0x20\n        /* \"#utility.yul\":9637:9646   */\n      dup3\n        /* \"#utility.yul\":9628:9635   */\n      dup5\n        /* \"#utility.yul\":9624:9647   */\n      sub\n        /* \"#utility.yul\":9620:9652   */\n      slt\n        /* \"#utility.yul\":9617:9669   */\n      iszero\n      tag_463\n      jumpi\n        /* \"#utility.yul\":9665:9666   */\n      0x00\n        /* \"#utility.yul\":9662:9663   */\n      dup1\n        /* \"#utility.yul\":9655:9667   */\n      revert\n        /* \"#utility.yul\":9617:9669   */\n    tag_463:\n        /* \"#utility.yul\":9688:9717   */\n      tag_373\n        /* \"#utility.yul\":9707:9716   */\n      dup3\n        /* \"#utility.yul\":9688:9717   */\n      tag_349\n      jump\t// in\n        /* \"#utility.yul\":9728:10108   */\n    tag_118:\n        /* \"#utility.yul\":9807:9808   */\n      0x01\n        /* \"#utility.yul\":9803:9815   */\n      dup2\n      dup2\n      shr\n      swap1\n        /* \"#utility.yul\":9850:9862   */\n      dup3\n      and\n      dup1\n        /* \"#utility.yul\":9871:9932   */\n      tag_466\n      jumpi\n        /* \"#utility.yul\":9925:9929   */\n      0x7f\n        /* \"#utility.yul\":9917:9923   */\n      dup3\n        /* \"#utility.yul\":9913:9930   */\n      and\n        /* \"#utility.yul\":9903:9930   */\n      swap2\n      pop\n        /* \"#utility.yul\":9871:9932   */\n    tag_466:\n        /* \"#utility.yul\":9978:9980   */\n      0x20\n        /* \"#utility.yul\":9970:9976   */\n      dup3\n        /* \"#utility.yul\":9967:9981   */\n      lt\n        /* \"#utility.yul\":9947:9965   */\n      dup2\n        /* \"#utility.yul\":9944:9982   */\n      sub\n        /* \"#utility.yul\":9941:10102   */\n      tag_467\n      jumpi\n        /* \"#utility.yul\":10024:10034   */\n      0x4e487b71\n        /* \"#utility.yul\":10019:10022   */\n      0xe0\n        /* \"#utility.yul\":10015:10035   */\n      shl\n        /* \"#utility.yul\":10012:10013   */\n      0x00\n        /* \"#utility.yul\":10005:10036   */\n      mstore\n        /* \"#utility.yul\":10059:10063   */\n      0x22\n        /* \"#utility.yul\":10056:10057   */\n      0x04\n        /* \"#utility.yul\":10049:10064   */\n      mstore\n        /* \"#utility.yul\":10087:10091   */\n      0x24\n        /* \"#utility.yul\":10084:10085   */\n      0x00\n        /* \"#utility.yul\":10077:10092   */\n      revert\n        /* \"#utility.yul\":9941:10102   */\n    tag_467:\n      pop\n        /* \"#utility.yul\":9728:10108   */\n      swap2\n      swap1\n      pop\n      jump\t// out\n        /* \"#utility.yul\":10113:10240   */\n    tag_358:\n        /* \"#utility.yul\":10174:10184   */\n      0x4e487b71\n        /* \"#utility.yul\":10169:10172   */\n      0xe0\n        /* \"#utility.yul\":10165:10185   */\n      shl\n        /* \"#utility.yul\":10162:10163   */\n      0x00\n        /* \"#utility.yul\":10155:10186   */\n      mstore\n        /* \"#utility.yul\":10205:10209   */\n      0x11\n        /* \"#utility.yul\":10202:10203   */\n      0x04\n        /* \"#utility.yul\":10195:10210   */\n      mstore\n        /* \"#utility.yul\":10229:10233   */\n      0x24\n        /* \"#utility.yul\":10226:10227   */\n      0x00\n        /* \"#utility.yul\":10219:10234   */\n      revert\n        /* \"#utility.yul\":10245:10380   */\n    tag_134:\n        /* \"#utility.yul\":10284:10287   */\n      0x00\n        /* \"#utility.yul\":10305:10322   */\n      0x01\n      dup3\n      add\n        /* \"#utility.yul\":10302:10345   */\n      tag_471\n      jumpi\n        /* \"#utility.yul\":10325:10343   */\n      tag_471\n      tag_358\n      jump\t// in\n    tag_471:\n      pop\n        /* \"#utility.yul\":10372:10373   */\n      0x01\n        /* \"#utility.yul\":10361:10374   */\n      add\n      swap1\n        /* \"#utility.yul\":10245:10380   */\n      jump\t// out\n        /* \"#utility.yul\":10385:10512   */\n    tag_141:\n        /* \"#utility.yul\":10446:10456   */\n      0x4e487b71\n        /* \"#utility.yul\":10441:10444   */\n      0xe0\n        /* \"#utility.yul\":10437:10457   */\n      shl\n        /* \"#utility.yul\":10434:10435   */\n      0x00\n        /* \"#utility.yul\":10427:10458   */\n      mstore\n        /* \"#utility.yul\":10477:10481   */\n      0x32\n        /* \"#utility.yul\":10474:10475   */\n      0x04\n        /* \"#utility.yul\":10467:10482   */\n      mstore\n        /* \"#utility.yul\":10501:10505   */\n      0x24\n        /* \"#utility.yul\":10498:10499   */\n      0x00\n        /* \"#utility.yul\":10491:10506   */\n      revert\n        /* \"#utility.yul\":10517:10821   */\n    tag_156:\n      sub(shl(0xa0, 0x01), 0x01)\n        /* \"#utility.yul\":10747:10762   */\n      swap3\n      dup4\n      and\n        /* \"#utility.yul\":10729:10763   */\n      dup2\n      mstore\n        /* \"#utility.yul\":10799:10814   */\n      swap2\n      and\n        /* \"#utility.yul\":10794:10796   */\n      0x20\n        /* \"#utility.yul\":10779:10797   */\n      dup3\n      add\n        /* \"#utility.yul\":10772:10815   */\n      mstore\n        /* \"#utility.yul\":10679:10681   */\n      0x40\n        /* \"#utility.yul\":10664:10682   */\n      add\n      swap1\n        /* \"#utility.yul\":10517:10821   */\n      jump\t// out\n        /* \"#utility.yul\":11205:11723   */\n    tag_360:\n        /* \"#utility.yul\":11307:11309   */\n      0x1f\n        /* \"#utility.yul\":11302:11305   */\n      dup3\n        /* \"#utility.yul\":11299:11310   */\n      gt\n        /* \"#utility.yul\":11296:11717   */\n      iszero\n      tag_253\n      jumpi\n        /* \"#utility.yul\":11343:11348   */\n      dup1\n        /* \"#utility.yul\":11340:11341   */\n      0x00\n        /* \"#utility.yul\":11333:11349   */\n      mstore\n        /* \"#utility.yul\":11387:11391   */\n      0x20\n        /* \"#utility.yul\":11384:11385   */\n      0x00\n        /* \"#utility.yul\":11374:11392   */\n      keccak256\n        /* \"#utility.yul\":11457:11459   */\n      0x1f\n        /* \"#utility.yul\":11445:11455   */\n      dup5\n        /* \"#utility.yul\":11441:11460   */\n      add\n        /* \"#utility.yul\":11438:11439   */\n      0x05\n        /* \"#utility.yul\":11434:11461   */\n      shr\n        /* \"#utility.yul\":11428:11432   */\n      dup2\n        /* \"#utility.yul\":11424:11462   */\n      add\n        /* \"#utility.yul\":11493:11497   */\n      0x20\n        /* \"#utility.yul\":11481:11491   */\n      dup6\n        /* \"#utility.yul\":11478:11498   */\n      lt\n        /* \"#utility.yul\":11475:11522   */\n      iszero\n      tag_478\n      jumpi\n      pop\n        /* \"#utility.yul\":11516:11520   */\n      dup1\n        /* \"#utility.yul\":11475:11522   */\n    tag_478:\n        /* \"#utility.yul\":11571:11573   */\n      0x1f\n        /* \"#utility.yul\":11566:11569   */\n      dup5\n        /* \"#utility.yul\":11562:11574   */\n      add\n        /* \"#utility.yul\":11559:11560   */\n      0x05\n        /* \"#utility.yul\":11555:11575   */\n      shr\n        /* \"#utility.yul\":11549:11553   */\n      dup3\n        /* \"#utility.yul\":11545:11576   */\n      add\n        /* \"#utility.yul\":11535:11576   */\n      swap2\n      pop\n        /* \"#utility.yul\":11626:11707   */\n    tag_479:\n        /* \"#utility.yul\":11644:11646   */\n      dup2\n        /* \"#utility.yul\":11637:11642   */\n      dup2\n        /* \"#utility.yul\":11634:11647   */\n      lt\n        /* \"#utility.yul\":11626:11707   */\n      iszero\n      tag_260\n      jumpi\n        /* \"#utility.yul\":11703:11704   */\n      0x00\n        /* \"#utility.yul\":11689:11705   */\n      dup2\n      sstore\n        /* \"#utility.yul\":11670:11671   */\n      0x01\n        /* \"#utility.yul\":11659:11672   */\n      add\n        /* \"#utility.yul\":11626:11707   */\n      jump(tag_479)\n        /* \"#utility.yul\":11899:13244   */\n    tag_244:\n        /* \"#utility.yul\":12019:12029   */\n      dup2\n      mload\n      sub(shl(0x40, 0x01), 0x01)\n        /* \"#utility.yul\":12041:12071   */\n      dup2\n      gt\n        /* \"#utility.yul\":12038:12094   */\n      iszero\n      tag_485\n      jumpi\n        /* \"#utility.yul\":12074:12092   */\n      tag_485\n      tag_128\n      jump\t// in\n    tag_485:\n        /* \"#utility.yul\":12103:12200   */\n      tag_486\n        /* \"#utility.yul\":12193:12199   */\n      dup2\n        /* \"#utility.yul\":12153:12191   */\n      tag_487\n        /* \"#utility.yul\":12185:12189   */\n      dup5\n        /* \"#utility.yul\":12179:12190   */\n      sload\n        /* \"#utility.yul\":12153:12191   */\n      tag_118\n      jump\t// in\n    tag_487:\n        /* \"#utility.yul\":12147:12151   */\n      dup5\n        /* \"#utility.yul\":12103:12200   */\n      tag_360\n      jump\t// in\n    tag_486:\n        /* \"#utility.yul\":12255:12259   */\n      0x20\n      dup1\n        /* \"#utility.yul\":12312:12314   */\n      0x1f\n        /* \"#utility.yul\":12301:12315   */\n      dup4\n      gt\n        /* \"#utility.yul\":12329:12330   */\n      0x01\n        /* \"#utility.yul\":12324:12987   */\n      dup2\n      eq\n      tag_489\n      jumpi\n        /* \"#utility.yul\":13031:13032   */\n      0x00\n        /* \"#utility.yul\":13048:13054   */\n      dup5\n        /* \"#utility.yul\":13045:13134   */\n      iszero\n      tag_490\n      jumpi\n      pop\n        /* \"#utility.yul\":13100:13119   */\n      dup6\n      dup4\n      add\n        /* \"#utility.yul\":13094:13120   */\n      mload\n        /* \"#utility.yul\":13045:13134   */\n    tag_490:\n      not(0x00)\n        /* \"#utility.yul\":11856:11857   */\n      0x03\n        /* \"#utility.yul\":11852:11863   */\n      dup7\n      swap1\n      shl\n        /* \"#utility.yul\":11848:11872   */\n      shr\n        /* \"#utility.yul\":11844:11873   */\n      not\n        /* \"#utility.yul\":11834:11874   */\n      and\n        /* \"#utility.yul\":11880:11881   */\n      0x01\n        /* \"#utility.yul\":11876:11887   */\n      dup6\n      swap1\n      shl\n        /* \"#utility.yul\":11831:11888   */\n      or\n        /* \"#utility.yul\":13147:13228   */\n      dup6\n      sstore\n        /* \"#utility.yul\":12294:13238   */\n      jump(tag_157)\n        /* \"#utility.yul\":12324:12987   */\n    tag_489:\n        /* \"#utility.yul\":11152:11153   */\n      0x00\n        /* \"#utility.yul\":11145:11159   */\n      dup6\n      dup2\n      mstore\n        /* \"#utility.yul\":11189:11193   */\n      0x20\n        /* \"#utility.yul\":11176:11194   */\n      dup2\n      keccak256\n      not(0x1f)\n        /* \"#utility.yul\":12360:12380   */\n      dup7\n      and\n      swap2\n        /* \"#utility.yul\":12478:12714   */\n    tag_493:\n        /* \"#utility.yul\":12492:12499   */\n      dup3\n        /* \"#utility.yul\":12489:12490   */\n      dup2\n        /* \"#utility.yul\":12486:12500   */\n      lt\n        /* \"#utility.yul\":12478:12714   */\n      iszero\n      tag_495\n      jumpi\n        /* \"#utility.yul\":12581:12600   */\n      dup9\n      dup7\n      add\n        /* \"#utility.yul\":12575:12601   */\n      mload\n        /* \"#utility.yul\":12560:12602   */\n      dup3\n      sstore\n        /* \"#utility.yul\":12673:12700   */\n      swap5\n      dup5\n      add\n      swap5\n        /* \"#utility.yul\":12641:12642   */\n      0x01\n        /* \"#utility.yul\":12629:12643   */\n      swap1\n      swap2\n      add\n      swap1\n        /* \"#utility.yul\":12508:12527   */\n      dup5\n      add\n        /* \"#utility.yul\":12478:12714   */\n      jump(tag_493)\n    tag_495:\n        /* \"#utility.yul\":12482:12485   */\n      pop\n        /* \"#utility.yul\":12742:12748   */\n      dup6\n        /* \"#utility.yul\":12733:12740   */\n      dup3\n        /* \"#utility.yul\":12730:12749   */\n      lt\n        /* \"#utility.yul\":12727:12928   */\n      iszero\n      tag_496\n      jumpi\n        /* \"#utility.yul\":12803:12822   */\n      dup8\n      dup6\n      add\n        /* \"#utility.yul\":12797:12823   */\n      mload\n      not(0x00)\n        /* \"#utility.yul\":12886:12887   */\n      0x03\n        /* \"#utility.yul\":12882:12896   */\n      dup9\n      swap1\n      shl\n        /* \"#utility.yul\":12898:12901   */\n      0xf8\n        /* \"#utility.yul\":12878:12902   */\n      and\n        /* \"#utility.yul\":12874:12911   */\n      shr\n        /* \"#utility.yul\":12870:12912   */\n      not\n        /* \"#utility.yul\":12855:12913   */\n      and\n        /* \"#utility.yul\":12840:12914   */\n      dup2\n      sstore\n        /* \"#utility.yul\":12727:12928   */\n    tag_496:\n      pop\n      pop\n      pop\n      pop\n      pop\n        /* \"#utility.yul\":12974:12975   */\n      0x01\n        /* \"#utility.yul\":12958:12972   */\n      swap1\n      dup2\n      shl\n        /* \"#utility.yul\":12954:12976   */\n      add\n        /* \"#utility.yul\":12941:12977   */\n      swap1\n      sstore\n      pop\n        /* \"#utility.yul\":11899:13244   */\n      jump\t// out\n        /* \"#utility.yul\":13671:13796   */\n    tag_304:\n        /* \"#utility.yul\":13736:13745   */\n      dup1\n      dup3\n      add\n        /* \"#utility.yul\":13757:13767   */\n      dup1\n      dup3\n      gt\n        /* \"#utility.yul\":13754:13790   */\n      iszero\n      tag_104\n      jumpi\n        /* \"#utility.yul\":13770:13788   */\n      tag_104\n      tag_358\n      jump\t// in\n        /* \"#utility.yul\":13801:14266   */\n    tag_311:\n        /* \"#utility.yul\":14058:14060   */\n      0x40\n        /* \"#utility.yul\":14047:14056   */\n      dup2\n        /* \"#utility.yul\":14040:14061   */\n      mstore\n        /* \"#utility.yul\":14021:14025   */\n      0x00\n        /* \"#utility.yul\":14084:14140   */\n      tag_502\n        /* \"#utility.yul\":14136:14138   */\n      0x40\n        /* \"#utility.yul\":14125:14134   */\n      dup4\n        /* \"#utility.yul\":14121:14139   */\n      add\n        /* \"#utility.yul\":14113:14119   */\n      dup6\n        /* \"#utility.yul\":14084:14140   */\n      tag_354\n      jump\t// in\n    tag_502:\n        /* \"#utility.yul\":14188:14197   */\n      dup3\n        /* \"#utility.yul\":14180:14186   */\n      dup2\n        /* \"#utility.yul\":14176:14198   */\n      sub\n        /* \"#utility.yul\":14171:14173   */\n      0x20\n        /* \"#utility.yul\":14160:14169   */\n      dup5\n        /* \"#utility.yul\":14156:14174   */\n      add\n        /* \"#utility.yul\":14149:14199   */\n      mstore\n        /* \"#utility.yul\":14216:14260   */\n      tag_503\n        /* \"#utility.yul\":14253:14259   */\n      dup2\n        /* \"#utility.yul\":14245:14251   */\n      dup6\n        /* \"#utility.yul\":14216:14260   */\n      tag_354\n      jump\t// in\n    tag_503:\n        /* \"#utility.yul\":14208:14260   */\n      swap6\n        /* \"#utility.yul\":13801:14266   */\n      swap5\n      pop\n      pop\n      pop\n      pop\n      pop\n      jump\t// out\n        /* \"#utility.yul\":14271:14832   */\n    tag_315:\n      sub(shl(0xa0, 0x01), 0x01)\n        /* \"#utility.yul\":14568:14583   */\n      dup7\n      dup2\n      and\n        /* \"#utility.yul\":14550:14584   */\n      dup3\n      mstore\n        /* \"#utility.yul\":14620:14635   */\n      dup6\n      and\n        /* \"#utility.yul\":14615:14617   */\n      0x20\n        /* \"#utility.yul\":14600:14618   */\n      dup3\n      add\n        /* \"#utility.yul\":14593:14636   */\n      mstore\n        /* \"#utility.yul\":14667:14669   */\n      0x40\n        /* \"#utility.yul\":14652:14670   */\n      dup2\n      add\n        /* \"#utility.yul\":14645:14679   */\n      dup5\n      swap1\n      mstore\n        /* \"#utility.yul\":14710:14712   */\n      0x60\n        /* \"#utility.yul\":14695:14713   */\n      dup2\n      add\n        /* \"#utility.yul\":14688:14722   */\n      dup4\n      swap1\n      mstore\n        /* \"#utility.yul\":14530:14533   */\n      0xa0\n        /* \"#utility.yul\":14753:14756   */\n      0x80\n        /* \"#utility.yul\":14738:14757   */\n      dup3\n      add\n        /* \"#utility.yul\":14731:14763   */\n      dup2\n      swap1\n      mstore\n        /* \"#utility.yul\":14493:14497   */\n      0x00\n      swap1\n        /* \"#utility.yul\":14780:14826   */\n      tag_505\n      swap1\n        /* \"#utility.yul\":14806:14825   */\n      dup4\n      add\n        /* \"#utility.yul\":14798:14804   */\n      dup5\n        /* \"#utility.yul\":14780:14826   */\n      tag_353\n      jump\t// in\n    tag_505:\n        /* \"#utility.yul\":14772:14826   */\n      swap8\n        /* \"#utility.yul\":14271:14832   */\n      swap7\n      pop\n      pop\n      pop\n      pop\n      pop\n      pop\n      pop\n      jump\t// out\n        /* \"#utility.yul\":14837:15086   */\n    tag_318:\n        /* \"#utility.yul\":14906:14912   */\n      0x00\n        /* \"#utility.yul\":14959:14961   */\n      0x20\n        /* \"#utility.yul\":14947:14956   */\n      dup3\n        /* \"#utility.yul\":14938:14945   */\n      dup5\n        /* \"#utility.yul\":14934:14957   */\n      sub\n        /* \"#utility.yul\":14930:14962   */\n      slt\n        /* \"#utility.yul\":14927:14979   */\n      iszero\n      tag_507\n      jumpi\n        /* \"#utility.yul\":14975:14976   */\n      0x00\n        /* \"#utility.yul\":14972:14973   */\n      dup1\n        /* \"#utility.yul\":14965:14977   */\n      revert\n        /* \"#utility.yul\":14927:14979   */\n    tag_507:\n        /* \"#utility.yul\":15007:15016   */\n      dup2\n        /* \"#utility.yul\":15001:15017   */\n      mload\n        /* \"#utility.yul\":15026:15056   */\n      tag_373\n        /* \"#utility.yul\":15050:15055   */\n      dup2\n        /* \"#utility.yul\":15026:15056   */\n      tag_350\n      jump\t// in\n        /* \"#utility.yul\":15091:15918   */\n    tag_334:\n      sub(shl(0xa0, 0x01), 0x01)\n        /* \"#utility.yul\":15488:15503   */\n      dup7\n      dup2\n      and\n        /* \"#utility.yul\":15470:15504   */\n      dup3\n      mstore\n        /* \"#utility.yul\":15540:15555   */\n      dup6\n      and\n        /* \"#utility.yul\":15535:15537   */\n      0x20\n        /* \"#utility.yul\":15520:15538   */\n      dup3\n      add\n        /* \"#utility.yul\":15513:15556   */\n      mstore\n        /* \"#utility.yul\":15450:15453   */\n      0xa0\n        /* \"#utility.yul\":15587:15589   */\n      0x40\n        /* \"#utility.yul\":15572:15590   */\n      dup3\n      add\n        /* \"#utility.yul\":15565:15596   */\n      dup2\n      swap1\n      mstore\n        /* \"#utility.yul\":15413:15417   */\n      0x00\n      swap1\n        /* \"#utility.yul\":15619:15676   */\n      tag_510\n      swap1\n        /* \"#utility.yul\":15656:15675   */\n      dup4\n      add\n        /* \"#utility.yul\":15648:15654   */\n      dup7\n        /* \"#utility.yul\":15619:15676   */\n      tag_354\n      jump\t// in\n    tag_510:\n        /* \"#utility.yul\":15724:15733   */\n      dup3\n        /* \"#utility.yul\":15716:15722   */\n      dup2\n        /* \"#utility.yul\":15712:15734   */\n      sub\n        /* \"#utility.yul\":15707:15709   */\n      0x60\n        /* \"#utility.yul\":15696:15705   */\n      dup5\n        /* \"#utility.yul\":15692:15710   */\n      add\n        /* \"#utility.yul\":15685:15735   */\n      mstore\n        /* \"#utility.yul\":15758:15802   */\n      tag_511\n        /* \"#utility.yul\":15795:15801   */\n      dup2\n        /* \"#utility.yul\":15787:15793   */\n      dup7\n        /* \"#utility.yul\":15758:15802   */\n      tag_354\n      jump\t// in\n    tag_511:\n        /* \"#utility.yul\":15744:15802   */\n      swap1\n      pop\n        /* \"#utility.yul\":15851:15860   */\n      dup3\n        /* \"#utility.yul\":15843:15849   */\n      dup2\n        /* \"#utility.yul\":15839:15861   */\n      sub\n        /* \"#utility.yul\":15833:15836   */\n      0x80\n        /* \"#utility.yul\":15822:15831   */\n      dup5\n        /* \"#utility.yul\":15818:15837   */\n      add\n        /* \"#utility.yul\":15811:15862   */\n      mstore\n        /* \"#utility.yul\":15879:15912   */\n      tag_512\n        /* \"#utility.yul\":15905:15911   */\n      dup2\n        /* \"#utility.yul\":15897:15903   */\n      dup6\n        /* \"#utility.yul\":15879:15912   */\n      tag_353\n      jump\t// in\n    tag_512:\n        /* \"#utility.yul\":15871:15912   */\n      swap9\n        /* \"#utility.yul\":15091:15918   */\n      swap8\n      pop\n      pop\n      pop\n      pop\n      pop\n      pop\n      pop\n      pop\n      jump\t// out\n\n    auxdata: 0xa2646970667358221220c16ce25c1fc7aa4bc1065d5ba2a04c0d27e9a3767e90f4645f81764f28ded85964736f6c63430008190033\n}\n",
				"bytecode": {
					"linkReferences": {},
					"object": "60806040525f600455348015610013575f80fd5b50604051611b00380380611b00833981016040819052610032916101a2565b60408051602081019091525f8152839061004b816100a5565b506001600160a01b03811661007957604051631e4fbdf760e01b81525f600482015260240160405180910390fd5b610082816100b5565b50600561008f83826102a2565b50600661009c82826102a2565b50505050610361565b60026100b182826102a2565b5050565b600380546001600160a01b038381166001600160a01b0319831681179093556040519116919082907f8be0079c531659141344cd1fd0a4f28419497f9722a3daafe3b4186f6b6457e0905f90a35050565b634e487b7160e01b5f52604160045260245ffd5b5f82601f830112610129575f80fd5b81516001600160401b038082111561014357610143610106565b604051601f8301601f19908116603f0116810190828211818310171561016b5761016b610106565b81604052838152866020858801011115610183575f80fd5b8360208701602083015e5f602085830101528094505050505092915050565b5f805f606084860312156101b4575f80fd5b83516001600160a01b03811681146101ca575f80fd5b60208501519093506001600160401b03808211156101e6575f80fd5b6101f28783880161011a565b93506040860151915080821115610207575f80fd5b506102148682870161011a565b9150509250925092565b600181811c9082168061023257607f821691505b60208210810361025057634e487b7160e01b5f52602260045260245ffd5b50919050565b601f82111561029d57805f5260205f20601f840160051c8101602085101561027b5750805b601f840160051c820191505b8181101561029a575f8155600101610287565b50505b505050565b81516001600160401b038111156102bb576102bb610106565b6102cf816102c9845461021e565b84610256565b602080601f831160018114610302575f84156102eb5750858301515b5f19600386901b1c1916600185901b178555610359565b5f85815260208120601f198616915b8281101561033057888601518255948401946001909101908401610311565b508582101561034d57878501515f19600388901b60f8161c191681555b505060018460011b0185555b505050505050565b6117928061036e5f395ff3fe608060405234801561000f575f80fd5b50600436106100ee575f3560e01c8062fdd58e146100f257806301ffc9a71461011857806302fe53051461013b57806306fdde03146101505780630a1e88d1146101655780630e89341c1461018557806317d70f7c146101985780632eb2c2d6146101a05780634e1273f4146101b3578063715018a6146101c65780638da5cb5b146101ce57806395d89b41146101e3578063a22cb465146101eb578063a7fd4a02146101fe578063ba7aef4314610211578063c87b56dd14610224578063e985e9c514610237578063f242432a1461024a578063f2fde38b1461025d575b5f80fd5b610105610100366004610f5d565b610270565b6040519081526020015b60405180910390f35b61012b610126366004610f9a565b610297565b604051901515815260200161010f565b61014e61014936600461106b565b6102e6565b005b6101586102fa565b60405161010f91906110ca565b6101786101733660046110dc565b61038a565b60405161010f9190611168565b61015861019336600461117a565b61044e565b600454610105565b61014e6101ae36600461121f565b6104e0565b6101786101c1366004611324565b610541565b61014e610607565b6101d661061a565b60405161010f9190611383565b610158610629565b61014e6101f9366004611397565b610638565b61017861020c3660046113d0565b610647565b61010561021f3660046110dc565b61071b565b61015861023236600461117a565b610766565b61012b610245366004611426565b610782565b61014e610258366004611457565b6107af565b61014e61026b3660046114b6565b6107ff565b5f818152602081815260408083206001600160a01b03861684529091529020545b92915050565b5f6001600160e01b03198216636cdb3d1360e11b14806102c757506001600160e01b031982166303a24d0760e21b145b8061029157506301ffc9a760e01b6001600160e01b0319831614610291565b6102ee610839565b6102f78161086b565b50565b606060058054610309906114cf565b80601f0160208091040260200160405190810160405280929190818152602001828054610335906114cf565b80156103805780601f1061035757610100808354040283529160200191610380565b820191905f5260205f20905b81548152906001019060200180831161036357829003601f168201915b5050505050905090565b6060610394610839565b5f826001600160401b038111156103ad576103ad610fbc565b6040519080825280602002602001820160405280156103d6578160200160208202803683370190505b5090505f5b8381101561044557600480545f91826103f38361151b565b9190505590506104148782600160405180602001604052805f815250610877565b61041e81876108bd565b8083838151811061043157610431611533565b6020908102919091010152506001016103db565b50949350505050565b60606002805461045d906114cf565b80601f0160208091040260200160405190810160405280929190818152602001828054610489906114cf565b80156104d45780601f106104ab576101008083540402835291602001916104d4565b820191905f5260205f20905b8154815290600101906020018083116104b757829003601f168201915b50505050509050919050565b336001600160a01b038616811480159061050157506104ff8682610782565b155b1561052c57808660405163711bec9160e11b8152600401610523929190611547565b60405180910390fd5b61053986868686866108d9565b505050505050565b606081518351146105725781518351604051635b05999160e01b815260048101929092526024820152604401610523565b5f83516001600160401b0381111561058c5761058c610fbc565b6040519080825280602002602001820160405280156105b5578160200160208202803683370190505b5090505f5b84518110156105ff576105da6105d0868361093e565b610100868461093e565b8282815181106105ec576105ec611533565b60209081029190910101526001016105ba565b509392505050565b61060f610839565b6106185f61094c565b565b6003546001600160a01b031690565b606060068054610309906114cf565b61064333838361099d565b5050565b6060610651610839565b5f826001600160401b0381111561066a5761066a610fbc565b604051908082528060200260200182016040528015610693578160200160208202803683370190505b5090505f5b8381101561044557600480545f91826106b08361151b565b9190505590506106ea8783815181106106cb576106cb611533565b602002602001015182600160405180602001604052805f815250610877565b6106f481876108bd565b8083838151811061070757610707611533565b602090810291909101015250600101610698565b5f610724610839565b600480545f91826107348361151b565b91905055905061075485828560405180602001604052805f815250610877565b61075e81856108bd565b949350505050565b5f81815260076020526040902080546060919061045d906114cf565b6001600160a01b039182165f90815260016020908152604080832093909416825291909152205460ff1690565b336001600160a01b03861681148015906107d057506107ce8682610782565b155b156107f257808660405163711bec9160e11b8152600401610523929190611547565b6105398686868686610a31565b610807610839565b6001600160a01b038116610830575f604051631e4fbdf760e01b81526004016105239190611383565b6102f78161094c565b3361084261061a565b6001600160a01b031614610618573360405163118cdaa760e01b81526004016105239190611383565b600261064382826115a5565b6001600160a01b0384166108a0575f604051632bfa23e760e11b81526004016105239190611383565b5f806108ac8585610aa8565b915091506105395f87848487610ad0565b5f8281526007602052604090206108d482826115a5565b505050565b6001600160a01b038416610902575f604051632bfa23e760e11b81526004016105239190611383565b6001600160a01b03851661092a575f604051626a0d4560e21b81526004016105239190611383565b6109378585858585610ad0565b5050505050565b602090810291909101015190565b600380546001600160a01b038381166001600160a01b0319831681179093556040519116919082907f8be0079c531659141344cd1fd0a4f28419497f9722a3daafe3b4186f6b6457e0905f90a35050565b6001600160a01b0382166109c5575f60405162ced3e160e81b81526004016105239190611383565b6001600160a01b038381165f81815260016020908152604080832094871680845294825291829020805460ff191686151590811790915591519182527f17307eab39ab6107e8899845ad3d59bd9653f200f220920489ca2b5937696c31910160405180910390a3505050565b6001600160a01b038416610a5a575f604051632bfa23e760e11b81526004016105239190611383565b6001600160a01b038516610a82575f604051626a0d4560e21b81526004016105239190611383565b5f80610a8e8585610aa8565b91509150610a9f8787848487610ad0565b50505050505050565b6040805160018082526020820194909452808201938452606081019290925260808201905291565b610adc85858585610b33565b6001600160a01b038416156109375782513390600103610b25575f610b01858261093e565b90505f610b0e858261093e565b9050610b1e838989858589610d55565b5050610539565b610539818787878787610e64565b8051825114610b625781518151604051635b05999160e01b815260048101929092526024820152604401610523565b335f5b8351811015610c6c575f610b79858361093e565b90505f610b86858461093e565b90506001600160a01b03881615610c1e575f828152602081815260408083206001600160a01b038c16845290915290205481811015610bf8576040516303dee4c560e01b81526001600160a01b038a166004820152602481018290526044810183905260648101849052608401610523565b5f838152602081815260408083206001600160a01b038d16845290915290209082900390555b6001600160a01b03871615610c62575f828152602081815260408083206001600160a01b038b16845290915281208054839290610c5c908490611660565b90915550505b5050600101610b65565b508251600103610cf7575f610c81848261093e565b90505f610c8e848261093e565b9050856001600160a01b0316876001600160a01b0316846001600160a01b03167fc3d58168c5ae7397731d063d5bbf3d657854427343f4c083240f7aacaa2d0f628585604051610ce8929190918252602082015260400190565b60405180910390a45050610937565b836001600160a01b0316856001600160a01b0316826001600160a01b03167f4a39dc06d4c0dbc64b70af90fd698a233a518aa5d07e595d983b8c0526c8f7fb8686604051610d46929190611673565b60405180910390a45050505050565b6001600160a01b0384163b156105395760405163f23a6e6160e01b81526001600160a01b0385169063f23a6e6190610d9990899089908890889088906004016116a0565b6020604051808303815f875af1925050508015610dd3575060408051601f3d908101601f19168201909252610dd0918101906116e4565b60015b610e31573d808015610e00576040519150601f19603f3d011682016040523d82523d5f602084013e610e05565b606091505b5080515f03610e295784604051632bfa23e760e11b81526004016105239190611383565b805181602001fd5b6001600160e01b0319811663f23a6e6160e01b14610a9f5784604051632bfa23e760e11b81526004016105239190611383565b6001600160a01b0384163b156105395760405163bc197c8160e01b81526001600160a01b0385169063bc197c8190610ea890899089908890889088906004016116ff565b6020604051808303815f875af1925050508015610ee2575060408051601f3d908101601f19168201909252610edf918101906116e4565b60015b610f0f573d808015610e00576040519150601f19603f3d011682016040523d82523d5f602084013e610e05565b6001600160e01b0319811663bc197c8160e01b14610a9f5784604051632bfa23e760e11b81526004016105239190611383565b80356001600160a01b0381168114610f58575f80fd5b919050565b5f8060408385031215610f6e575f80fd5b610f7783610f42565b946020939093013593505050565b6001600160e01b0319811681146102f7575f80fd5b5f60208284031215610faa575f80fd5b8135610fb581610f85565b9392505050565b634e487b7160e01b5f52604160045260245ffd5b604051601f8201601f191681016001600160401b0381118282101715610ff857610ff8610fbc565b604052919050565b5f82601f83011261100f575f80fd5b81356001600160401b0381111561102857611028610fbc565b61103b601f8201601f1916602001610fd0565b81815284602083860101111561104f575f80fd5b816020850160208301375f918101602001919091529392505050565b5f6020828403121561107b575f80fd5b81356001600160401b03811115611090575f80fd5b61075e84828501611000565b5f81518084528060208401602086015e5f602082860101526020601f19601f83011685010191505092915050565b602081525f610fb5602083018461109c565b5f805f606084860312156110ee575f80fd5b6110f784610f42565b925060208401356001600160401b03811115611111575f80fd5b61111d86828701611000565b925050604084013590509250925092565b5f815180845260208085019450602084015f5b8381101561115d57815187529582019590820190600101611141565b509495945050505050565b602081525f610fb5602083018461112e565b5f6020828403121561118a575f80fd5b5035919050565b5f6001600160401b038211156111a9576111a9610fbc565b5060051b60200190565b5f82601f8301126111c2575f80fd5b813560206111d76111d283611191565b610fd0565b8083825260208201915060208460051b8701019350868411156111f8575f80fd5b602086015b8481101561121457803583529183019183016111fd565b509695505050505050565b5f805f805f60a08688031215611233575f80fd5b61123c86610f42565b945061124a60208701610f42565b935060408601356001600160401b0380821115611265575f80fd5b61127189838a016111b3565b94506060880135915080821115611286575f80fd5b61129289838a016111b3565b935060808801359150808211156112a7575f80fd5b506112b488828901611000565b9150509295509295909350565b5f82601f8301126112d0575f80fd5b813560206112e06111d283611191565b8083825260208201915060208460051b870101935086841115611301575f80fd5b602086015b848110156112145761131781610f42565b8352918301918301611306565b5f8060408385031215611335575f80fd5b82356001600160401b038082111561134b575f80fd5b611357868387016112c1565b9350602085013591508082111561136c575f80fd5b50611379858286016111b3565b9150509250929050565b6001600160a01b0391909116815260200190565b5f80604083850312156113a8575f80fd5b6113b183610f42565b9150602083013580151581146113c5575f80fd5b809150509250929050565b5f805f606084860312156113e2575f80fd5b83356001600160401b03808211156113f8575f80fd5b611404878388016112c1565b94506020860135915080821115611419575f80fd5b5061111d86828701611000565b5f8060408385031215611437575f80fd5b61144083610f42565b915061144e60208401610f42565b90509250929050565b5f805f805f60a0868803121561146b575f80fd5b61147486610f42565b945061148260208701610f42565b9350604086013592506060860135915060808601356001600160401b038111156114aa575f80fd5b6112b488828901611000565b5f602082840312156114c6575f80fd5b610fb582610f42565b600181811c908216806114e357607f821691505b60208210810361150157634e487b7160e01b5f52602260045260245ffd5b50919050565b634e487b7160e01b5f52601160045260245ffd5b5f6001820161152c5761152c611507565b5060010190565b634e487b7160e01b5f52603260045260245ffd5b6001600160a01b0392831681529116602082015260400190565b601f8211156108d457805f5260205f20601f840160051c810160208510156115865750805b601f840160051c820191505b81811015610937575f8155600101611592565b81516001600160401b038111156115be576115be610fbc565b6115d2816115cc84546114cf565b84611561565b602080601f831160018114611605575f84156115ee5750858301515b5f19600386901b1c1916600185901b178555610539565b5f85815260208120601f198616915b8281101561163357888601518255948401946001909101908401611614565b508582101561165057878501515f19600388901b60f8161c191681555b5050505050600190811b01905550565b8082018082111561029157610291611507565b604081525f611685604083018561112e565b8281036020840152611697818561112e565b95945050505050565b6001600160a01b03868116825285166020820152604081018490526060810183905260a0608082018190525f906116d99083018461109c565b979650505050505050565b5f602082840312156116f4575f80fd5b8151610fb581610f85565b6001600160a01b0386811682528516602082015260a0604082018190525f9061172a9083018661112e565b828103606084015261173c818661112e565b90508281036080840152611750818561109c565b9897505050505050505056fea2646970667358221220c16ce25c1fc7aa4bc1065d5ba2a04c0d27e9a3767e90f4645f81764f28ded85964736f6c63430008190033",
					"opcodes": "PUSH1 0x80 PUSH1 0x40 MSTORE PUSH0 PUSH1 0x4 SSTORE CALLVALUE DUP1 ISZERO PUSH2 0x13 JUMPI PUSH0 DUP1 REVERT JUMPDEST POP PUSH1 0x40 MLOAD PUSH2 0x1B00 CODESIZE SUB DUP1 PUSH2 0x1B00 DUP4 CODECOPY DUP2 ADD PUSH1 0x40 DUP2 SWAP1 MSTORE PUSH2 0x32 SWAP2 PUSH2 0x1A2 JUMP JUMPDEST PUSH1 0x40 DUP1 MLOAD PUSH1 0x20 DUP2 ADD SWAP1 SWAP2 MSTORE PUSH0 DUP2 MSTORE DUP4 SWAP1 PUSH2 0x4B DUP2 PUSH2 0xA5 JUMP JUMPDEST POP PUSH1 0x1 PUSH1 0x1 PUSH1 0xA0 SHL SUB DUP2 AND PUSH2 0x79 JUMPI PUSH1 0x40 MLOAD PUSH4 0x1E4FBDF7 PUSH1 0xE0 SHL DUP2 MSTORE PUSH0 PUSH1 0x4 DUP3 ADD MSTORE PUSH1 0x24 ADD PUSH1 0x40 MLOAD DUP1 SWAP2 SUB SWAP1 REVERT JUMPDEST PUSH2 0x82 DUP2 PUSH2 0xB5 JUMP JUMPDEST POP PUSH1 0x5 PUSH2 0x8F DUP4 DUP3 PUSH2 0x2A2 JUMP JUMPDEST POP PUSH1 0x6 PUSH2 0x9C DUP3 DUP3 PUSH2 0x2A2 JUMP JUMPDEST POP POP POP POP PUSH2 0x361 JUMP JUMPDEST PUSH1 0x2 PUSH2 0xB1 DUP3 DUP3 PUSH2 0x2A2 JUMP JUMPDEST POP POP JUMP JUMPDEST PUSH1 0x3 DUP1 SLOAD PUSH1 0x1 PUSH1 0x1 PUSH1 0xA0 SHL SUB DUP4 DUP2 AND PUSH1 0x1 PUSH1 0x1 PUSH1 0xA0 SHL SUB NOT DUP4 AND DUP2 OR SWAP1 SWAP4 SSTORE PUSH1 0x40 MLOAD SWAP2 AND SWAP2 SWAP1 DUP3 SWAP1 PUSH32 0x8BE0079C531659141344CD1FD0A4F28419497F9722A3DAAFE3B4186F6B6457E0 SWAP1 PUSH0 SWAP1 LOG3 POP POP JUMP JUMPDEST PUSH4 0x4E487B71 PUSH1 0xE0 SHL PUSH0 MSTORE PUSH1 0x41 PUSH1 0x4 MSTORE PUSH1 0x24 PUSH0 REVERT JUMPDEST PUSH0 DUP3 PUSH1 0x1F DUP4 ADD SLT PUSH2 0x129 JUMPI PUSH0 DUP1 REVERT JUMPDEST DUP2 MLOAD PUSH1 0x1 PUSH1 0x1 PUSH1 0x40 SHL SUB DUP1 DUP3 GT ISZERO PUSH2 0x143 JUMPI PUSH2 0x143 PUSH2 0x106 JUMP JUMPDEST PUSH1 0x40 MLOAD PUSH1 0x1F DUP4 ADD PUSH1 0x1F NOT SWAP1 DUP2 AND PUSH1 0x3F ADD AND DUP2 ADD SWAP1 DUP3 DUP3 GT DUP2 DUP4 LT OR ISZERO PUSH2 0x16B JUMPI PUSH2 0x16B PUSH2 0x106 JUMP JUMPDEST DUP2 PUSH1 0x40 MSTORE DUP4 DUP2 MSTORE DUP7 PUSH1 0x20 DUP6 DUP9 ADD ADD GT ISZERO PUSH2 0x183 JUMPI PUSH0 DUP1 REVERT JUMPDEST DUP4 PUSH1 0x20 DUP8 ADD PUSH1 0x20 DUP4 ADD MCOPY PUSH0 PUSH1 0x20 DUP6 DUP4 ADD ADD MSTORE DUP1 SWAP5 POP POP POP POP POP SWAP3 SWAP2 POP POP JUMP JUMPDEST PUSH0 DUP1 PUSH0 PUSH1 0x60 DUP5 DUP7 SUB SLT ISZERO PUSH2 0x1B4 JUMPI PUSH0 DUP1 REVERT JUMPDEST DUP4 MLOAD PUSH1 0x1 PUSH1 0x1 PUSH1 0xA0 SHL SUB DUP2 AND DUP2 EQ PUSH2 0x1CA JUMPI PUSH0 DUP1 REVERT JUMPDEST PUSH1 0x20 DUP6 ADD MLOAD SWAP1 SWAP4 POP PUSH1 0x1 PUSH1 0x1 PUSH1 0x40 SHL SUB DUP1 DUP3 GT ISZERO PUSH2 0x1E6 JUMPI PUSH0 DUP1 REVERT JUMPDEST PUSH2 0x1F2 DUP8 DUP4 DUP9 ADD PUSH2 0x11A JUMP JUMPDEST SWAP4 POP PUSH1 0x40 DUP7 ADD MLOAD SWAP2 POP DUP1 DUP3 GT ISZERO PUSH2 0x207 JUMPI PUSH0 DUP1 REVERT JUMPDEST POP PUSH2 0x214 DUP7 DUP3 DUP8 ADD PUSH2 0x11A JUMP JUMPDEST SWAP2 POP POP SWAP3 POP SWAP3 POP SWAP3 JUMP JUMPDEST PUSH1 0x1 DUP2 DUP2 SHR SWAP1 DUP3 AND DUP1 PUSH2 0x232 JUMPI PUSH1 0x7F DUP3 AND SWAP2 POP JUMPDEST PUSH1 0x20 DUP3 LT DUP2 SUB PUSH2 0x250 JUMPI PUSH4 0x4E487B71 PUSH1 0xE0 SHL PUSH0 MSTORE PUSH1 0x22 PUSH1 0x4 MSTORE PUSH1 0x24 PUSH0 REVERT JUMPDEST POP SWAP2 SWAP1 POP JUMP JUMPDEST PUSH1 0x1F DUP3 GT ISZERO PUSH2 0x29D JUMPI DUP1 PUSH0 MSTORE PUSH1 0x20 PUSH0 KECCAK256 PUSH1 0x1F DUP5 ADD PUSH1 0x5 SHR DUP2 ADD PUSH1 0x20 DUP6 LT ISZERO PUSH2 0x27B JUMPI POP DUP1 JUMPDEST PUSH1 0x1F DUP5 ADD PUSH1 0x5 SHR DUP3 ADD SWAP2 POP JUMPDEST DUP2 DUP2 LT ISZERO PUSH2 0x29A JUMPI PUSH0 DUP2 SSTORE PUSH1 0x1 ADD PUSH2 0x287 JUMP JUMPDEST POP POP JUMPDEST POP POP POP JUMP JUMPDEST DUP2 MLOAD PUSH1 0x1 PUSH1 0x1 PUSH1 0x40 SHL SUB DUP2 GT ISZERO PUSH2 0x2BB JUMPI PUSH2 0x2BB PUSH2 0x106 JUMP JUMPDEST PUSH2 0x2CF DUP2 PUSH2 0x2C9 DUP5 SLOAD PUSH2 0x21E JUMP JUMPDEST DUP5 PUSH2 0x256 JUMP JUMPDEST PUSH1 0x20 DUP1 PUSH1 0x1F DUP4 GT PUSH1 0x1 DUP2 EQ PUSH2 0x302 JUMPI PUSH0 DUP5 ISZERO PUSH2 0x2EB JUMPI POP DUP6 DUP4 ADD MLOAD JUMPDEST PUSH0 NOT PUSH1 0x3 DUP7 SWAP1 SHL SHR NOT AND PUSH1 0x1 DUP6 SWAP1 SHL OR DUP6 SSTORE PUSH2 0x359 JUMP JUMPDEST PUSH0 DUP6 DUP2 MSTORE PUSH1 0x20 DUP2 KECCAK256 PUSH1 0x1F NOT DUP7 AND SWAP2 JUMPDEST DUP3 DUP2 LT ISZERO PUSH2 0x330 JUMPI DUP9 DUP7 ADD MLOAD DUP3 SSTORE SWAP5 DUP5 ADD SWAP5 PUSH1 0x1 SWAP1 SWAP2 ADD SWAP1 DUP5 ADD PUSH2 0x311 JUMP JUMPDEST POP DUP6 DUP3 LT ISZERO PUSH2 0x34D JUMPI DUP8 DUP6 ADD MLOAD PUSH0 NOT PUSH1 0x3 DUP9 SWAP1 SHL PUSH1 0xF8 AND SHR NOT AND DUP2 SSTORE JUMPDEST POP POP PUSH1 0x1 DUP5 PUSH1 0x1 SHL ADD DUP6 SSTORE JUMPDEST POP POP POP POP POP POP JUMP JUMPDEST PUSH2 0x1792 DUP1 PUSH2 0x36E PUSH0 CODECOPY PUSH0 RETURN INVALID PUSH1 0x80 PUSH1 0x40 MSTORE CALLVALUE DUP1 ISZERO PUSH2 0xF JUMPI PUSH0 DUP1 REVERT JUMPDEST POP PUSH1 0x4 CALLDATASIZE LT PUSH2 0xEE JUMPI PUSH0 CALLDATALOAD PUSH1 0xE0 SHR DUP1 PUSH3 0xFDD58E EQ PUSH2 0xF2 JUMPI DUP1 PUSH4 0x1FFC9A7 EQ PUSH2 0x118 JUMPI DUP1 PUSH4 0x2FE5305 EQ PUSH2 0x13B JUMPI DUP1 PUSH4 0x6FDDE03 EQ PUSH2 0x150 JUMPI DUP1 PUSH4 0xA1E88D1 EQ PUSH2 0x165 JUMPI DUP1 PUSH4 0xE89341C EQ PUSH2 0x185 JUMPI DUP1 PUSH4 0x17D70F7C EQ PUSH2 0x198 JUMPI DUP1 PUSH4 0x2EB2C2D6 EQ PUSH2 0x1A0 JUMPI DUP1 PUSH4 0x4E1273F4 EQ PUSH2 0x1B3 JUMPI DUP1 PUSH4 0x715018A6 EQ PUSH2 0x1C6 JUMPI DUP1 PUSH4 0x8DA5CB5B EQ PUSH2 0x1CE JUMPI DUP1 PUSH4 0x95D89B41 EQ PUSH2 0x1E3 JUMPI DUP1 PUSH4 0xA22CB465 EQ PUSH2 0x1EB JUMPI DUP1 PUSH4 0xA7FD4A02 EQ PUSH2 0x1FE JUMPI DUP1 PUSH4 0xBA7AEF43 EQ PUSH2 0x211 JUMPI DUP1 PUSH4 0xC87B56DD EQ PUSH2 0x224 JUMPI DUP1 PUSH4 0xE985E9C5 EQ PUSH2 0x237 JUMPI DUP1 PUSH4 0xF242432A EQ PUSH2 0x24A JUMPI DUP1 PUSH4 0xF2FDE38B EQ PUSH2 0x25D JUMPI JUMPDEST PUSH0 DUP1 REVERT JUMPDEST PUSH2 0x105 PUSH2 0x100 CALLDATASIZE PUSH1 0x4 PUSH2 0xF5D JUMP JUMPDEST PUSH2 0x270 JUMP JUMPDEST PUSH1 0x40 MLOAD SWAP1 DUP2 MSTORE PUSH1 0x20 ADD JUMPDEST PUSH1 0x40 MLOAD DUP1 SWAP2 SUB SWAP1 RETURN JUMPDEST PUSH2 0x12B PUSH2 0x126 CALLDATASIZE PUSH1 0x4 PUSH2 0xF9A JUMP JUMPDEST PUSH2 0x297 JUMP JUMPDEST PUSH1 0x40 MLOAD SWAP1 ISZERO ISZERO DUP2 MSTORE PUSH1 0x20 ADD PUSH2 0x10F JUMP JUMPDEST PUSH2 0x14E PUSH2 0x149 CALLDATASIZE PUSH1 0x4 PUSH2 0x106B JUMP JUMPDEST PUSH2 0x2E6 JUMP JUMPDEST STOP JUMPDEST PUSH2 0x158 PUSH2 0x2FA JUMP JUMPDEST PUSH1 0x40 MLOAD PUSH2 0x10F SWAP2 SWAP1 PUSH2 0x10CA JUMP JUMPDEST PUSH2 0x178 PUSH2 0x173 CALLDATASIZE PUSH1 0x4 PUSH2 0x10DC JUMP JUMPDEST PUSH2 0x38A JUMP JUMPDEST PUSH1 0x40 MLOAD PUSH2 0x10F SWAP2 SWAP1 PUSH2 0x1168 JUMP JUMPDEST PUSH2 0x158 PUSH2 0x193 CALLDATASIZE PUSH1 0x4 PUSH2 0x117A JUMP JUMPDEST PUSH2 0x44E JUMP JUMPDEST PUSH1 0x4 SLOAD PUSH2 0x105 JUMP JUMPDEST PUSH2 0x14E PUSH2 0x1AE CALLDATASIZE PUSH1 0x4 PUSH2 0x121F JUMP JUMPDEST PUSH2 0x4E0 JUMP JUMPDEST PUSH2 0x178 PUSH2 0x1C1 CALLDATASIZE PUSH1 0x4 PUSH2 0x1324 JUMP JUMPDEST PUSH2 0x541 JUMP JUMPDEST PUSH2 0x14E PUSH2 0x607 JUMP JUMPDEST PUSH2 0x1D6 PUSH2 0x61A JUMP JUMPDEST PUSH1 0x40 MLOAD PUSH2 0x10F SWAP2 SWAP1 PUSH2 0x1383 JUMP JUMPDEST PUSH2 0x158 PUSH2 0x629 JUMP JUMPDEST PUSH2 0x14E PUSH2 0x1F9 CALLDATASIZE PUSH1 0x4 PUSH2 0x1397 JUMP JUMPDEST PUSH2 0x638 JUMP JUMPDEST PUSH2 0x178 PUSH2 0x20C CALLDATASIZE PUSH1 0x4 PUSH2 0x13D0 JUMP JUMPDEST PUSH2 0x647 JUMP JUMPDEST PUSH2 0x105 PUSH2 0x21F CALLDATASIZE PUSH1 0x4 PUSH2 0x10DC JUMP JUMPDEST PUSH2 0x71B JUMP JUMPDEST PUSH2 0x158 PUSH2 0x232 CALLDATASIZE PUSH1 0x4 PUSH2 0x117A JUMP JUMPDEST PUSH2 0x766 JUMP JUMPDEST PUSH2 0x12B PUSH2 0x245 CALLDATASIZE PUSH1 0x4 PUSH2 0x1426 JUMP JUMPDEST PUSH2 0x782 JUMP JUMPDEST PUSH2 0x14E PUSH2 0x258 CALLDATASIZE PUSH1 0x4 PUSH2 0x1457 JUMP JUMPDEST PUSH2 0x7AF JUMP JUMPDEST PUSH2 0x14E PUSH2 0x26B CALLDATASIZE PUSH1 0x4 PUSH2 0x14B6 JUMP JUMPDEST PUSH2 0x7FF JUMP JUMPDEST PUSH0 DUP2 DUP2 MSTORE PUSH1 0x20 DUP2 DUP2 MSTORE PUSH1 0x40 DUP1 DUP4 KECCAK256 PUSH1 0x1 PUSH1 0x1 PUSH1 0xA0 SHL SUB DUP7 AND DUP5 MSTORE SWAP1 SWAP2 MSTORE SWAP1 KECCAK256 SLOAD JUMPDEST SWAP3 SWAP2 POP POP JUMP JUMPDEST PUSH0 PUSH1 0x1 PUSH1 0x1 PUSH1 0xE0 SHL SUB NOT DUP3 AND PUSH4 0x6CDB3D13 PUSH1 0xE1 SHL EQ DUP1 PUSH2 0x2C7 JUMPI POP PUSH1 0x1 PUSH1 0x1 PUSH1 0xE0 SHL SUB NOT DUP3 AND PUSH4 0x3A24D07 PUSH1 0xE2 SHL EQ JUMPDEST DUP1 PUSH2 0x291 JUMPI POP PUSH4 0x1FFC9A7 PUSH1 0xE0 SHL PUSH1 0x1 PUSH1 0x1 PUSH1 0xE0 SHL SUB NOT DUP4 AND EQ PUSH2 0x291 JUMP JUMPDEST PUSH2 0x2EE PUSH2 0x839 JUMP JUMPDEST PUSH2 0x2F7 DUP2 PUSH2 0x86B JUMP JUMPDEST POP JUMP JUMPDEST PUSH1 0x60 PUSH1 0x5 DUP1 SLOAD PUSH2 0x309 SWAP1 PUSH2 0x14CF JUMP JUMPDEST DUP1 PUSH1 0x1F ADD PUSH1 0x20 DUP1 SWAP2 DIV MUL PUSH1 0x20 ADD PUSH1 0x40 MLOAD SWAP1 DUP2 ADD PUSH1 0x40 MSTORE DUP1 SWAP3 SWAP2 SWAP1 DUP2 DUP2 MSTORE PUSH1 0x20 ADD DUP3 DUP1 SLOAD PUSH2 0x335 SWAP1 PUSH2 0x14CF JUMP JUMPDEST DUP1 ISZERO PUSH2 0x380 JUMPI DUP1 PUSH1 0x1F LT PUSH2 0x357 JUMPI PUSH2 0x100 DUP1 DUP4 SLOAD DIV MUL DUP4 MSTORE SWAP2 PUSH1 0x20 ADD SWAP2 PUSH2 0x380 JUMP JUMPDEST DUP3 ADD SWAP2 SWAP1 PUSH0 MSTORE PUSH1 0x20 PUSH0 KECCAK256 SWAP1 JUMPDEST DUP2 SLOAD DUP2 MSTORE SWAP1 PUSH1 0x1 ADD SWAP1 PUSH1 0x20 ADD DUP1 DUP4 GT PUSH2 0x363 JUMPI DUP3 SWAP1 SUB PUSH1 0x1F AND DUP3 ADD SWAP2 JUMPDEST POP POP POP POP POP SWAP1 POP SWAP1 JUMP JUMPDEST PUSH1 0x60 PUSH2 0x394 PUSH2 0x839 JUMP JUMPDEST PUSH0 DUP3 PUSH1 0x1 PUSH1 0x1 PUSH1 0x40 SHL SUB DUP2 GT ISZERO PUSH2 0x3AD JUMPI PUSH2 0x3AD PUSH2 0xFBC JUMP JUMPDEST PUSH1 0x40 MLOAD SWAP1 DUP1 DUP3 MSTORE DUP1 PUSH1 0x20 MUL PUSH1 0x20 ADD DUP3 ADD PUSH1 0x40 MSTORE DUP1 ISZERO PUSH2 0x3D6 JUMPI DUP2 PUSH1 0x20 ADD PUSH1 0x20 DUP3 MUL DUP1 CALLDATASIZE DUP4 CALLDATACOPY ADD SWAP1 POP JUMPDEST POP SWAP1 POP PUSH0 JUMPDEST DUP4 DUP2 LT ISZERO PUSH2 0x445 JUMPI PUSH1 0x4 DUP1 SLOAD PUSH0 SWAP2 DUP3 PUSH2 0x3F3 DUP4 PUSH2 0x151B JUMP JUMPDEST SWAP2 SWAP1 POP SSTORE SWAP1 POP PUSH2 0x414 DUP8 DUP3 PUSH1 0x1 PUSH1 0x40 MLOAD DUP1 PUSH1 0x20 ADD PUSH1 0x40 MSTORE DUP1 PUSH0 DUP2 MSTORE POP PUSH2 0x877 JUMP JUMPDEST PUSH2 0x41E DUP2 DUP8 PUSH2 0x8BD JUMP JUMPDEST DUP1 DUP4 DUP4 DUP2 MLOAD DUP2 LT PUSH2 0x431 JUMPI PUSH2 0x431 PUSH2 0x1533 JUMP JUMPDEST PUSH1 0x20 SWAP1 DUP2 MUL SWAP2 SWAP1 SWAP2 ADD ADD MSTORE POP PUSH1 0x1 ADD PUSH2 0x3DB JUMP JUMPDEST POP SWAP5 SWAP4 POP POP POP POP JUMP JUMPDEST PUSH1 0x60 PUSH1 0x2 DUP1 SLOAD PUSH2 0x45D SWAP1 PUSH2 0x14CF JUMP JUMPDEST DUP1 PUSH1 0x1F ADD PUSH1 0x20 DUP1 SWAP2 DIV MUL PUSH1 0x20 ADD PUSH1 0x40 MLOAD SWAP1 DUP2 ADD PUSH1 0x40 MSTORE DUP1 SWAP3 SWAP2 SWAP1 DUP2 DUP2 MSTORE PUSH1 0x20 ADD DUP3 DUP1 SLOAD PUSH2 0x489 SWAP1 PUSH2 0x14CF JUMP JUMPDEST DUP1 ISZERO PUSH2 0x4D4 JUMPI DUP1 PUSH1 0x1F LT PUSH2 0x4AB JUMPI PUSH2 0x100 DUP1 DUP4 SLOAD DIV MUL DUP4 MSTORE SWAP2 PUSH1 0x20 ADD SWAP2 PUSH2 0x4D4 JUMP JUMPDEST DUP3 ADD SWAP2 SWAP1 PUSH0 MSTORE PUSH1 0x20 PUSH0 KECCAK256 SWAP1 JUMPDEST DUP2 SLOAD DUP2 MSTORE SWAP1 PUSH1 0x1 ADD SWAP1 PUSH1 0x20 ADD DUP1 DUP4 GT PUSH2 0x4B7 JUMPI DUP3 SWAP1 SUB PUSH1 0x1F AND DUP3 ADD SWAP2 JUMPDEST POP POP POP POP POP SWAP1 POP SWAP2 SWAP1 POP JUMP JUMPDEST CALLER PUSH1 0x1 PUSH1 0x1 PUSH1 0xA0 SHL SUB DUP7 AND DUP2 EQ DUP1 ISZERO SWAP1 PUSH2 0x501 JUMPI POP PUSH2 0x4FF DUP7 DUP3 PUSH2 0x782 JUMP JUMPDEST ISZERO JUMPDEST ISZERO PUSH2 0x52C JUMPI DUP1 DUP7 PUSH1 0x40 MLOAD PUSH4 0x711BEC91 PUSH1 0xE1 SHL DUP2 MSTORE PUSH1 0x4 ADD PUSH2 0x523 SWAP3 SWAP2 SWAP1 PUSH2 0x1547 JUMP JUMPDEST PUSH1 0x40 MLOAD DUP1 SWAP2 SUB SWAP1 REVERT JUMPDEST PUSH2 0x539 DUP7 DUP7 DUP7 DUP7 DUP7 PUSH2 0x8D9 JUMP JUMPDEST POP POP POP POP POP POP JUMP JUMPDEST PUSH1 0x60 DUP2 MLOAD DUP4 MLOAD EQ PUSH2 0x572 JUMPI DUP2 MLOAD DUP4 MLOAD PUSH1 0x40 MLOAD PUSH4 0x5B059991 PUSH1 0xE0 SHL DUP2 MSTORE PUSH1 0x4 DUP2 ADD SWAP3 SWAP1 SWAP3 MSTORE PUSH1 0x24 DUP3 ADD MSTORE PUSH1 0x44 ADD PUSH2 0x523 JUMP JUMPDEST PUSH0 DUP4 MLOAD PUSH1 0x1 PUSH1 0x1 PUSH1 0x40 SHL SUB DUP2 GT ISZERO PUSH2 0x58C JUMPI PUSH2 0x58C PUSH2 0xFBC JUMP JUMPDEST PUSH1 0x40 MLOAD SWAP1 DUP1 DUP3 MSTORE DUP1 PUSH1 0x20 MUL PUSH1 0x20 ADD DUP3 ADD PUSH1 0x40 MSTORE DUP1 ISZERO PUSH2 0x5B5 JUMPI DUP2 PUSH1 0x20 ADD PUSH1 0x20 DUP3 MUL DUP1 CALLDATASIZE DUP4 CALLDATACOPY ADD SWAP1 POP JUMPDEST POP SWAP1 POP PUSH0 JUMPDEST DUP5 MLOAD DUP2 LT ISZERO PUSH2 0x5FF JUMPI PUSH2 0x5DA PUSH2 0x5D0 DUP7 DUP4 PUSH2 0x93E JUMP JUMPDEST PUSH2 0x100 DUP7 DUP5 PUSH2 0x93E JUMP JUMPDEST DUP3 DUP3 DUP2 MLOAD DUP2 LT PUSH2 0x5EC JUMPI PUSH2 0x5EC PUSH2 0x1533 JUMP JUMPDEST PUSH1 0x20 SWAP1 DUP2 MUL SWAP2 SWAP1 SWAP2 ADD ADD MSTORE PUSH1 0x1 ADD PUSH2 0x5BA JUMP JUMPDEST POP SWAP4 SWAP3 POP POP POP JUMP JUMPDEST PUSH2 0x60F PUSH2 0x839 JUMP JUMPDEST PUSH2 0x618 PUSH0 PUSH2 0x94C JUMP JUMPDEST JUMP JUMPDEST PUSH1 0x3 SLOAD PUSH1 0x1 PUSH1 0x1 PUSH1 0xA0 SHL SUB AND SWAP1 JUMP JUMPDEST PUSH1 0x60 PUSH1 0x6 DUP1 SLOAD PUSH2 0x309 SWAP1 PUSH2 0x14CF JUMP JUMPDEST PUSH2 0x643 CALLER DUP4 DUP4 PUSH2 0x99D JUMP JUMPDEST POP POP JUMP JUMPDEST PUSH1 0x60 PUSH2 0x651 PUSH2 0x839 JUMP JUMPDEST PUSH0 DUP3 PUSH1 0x1 PUSH1 0x1 PUSH1 0x40 SHL SUB DUP2 GT ISZERO PUSH2 0x66A JUMPI PUSH2 0x66A PUSH2 0xFBC JUMP JUMPDEST PUSH1 0x40 MLOAD SWAP1 DUP1 DUP3 MSTORE DUP1 PUSH1 0x20 MUL PUSH1 0x20 ADD DUP3 ADD PUSH1 0x40 MSTORE DUP1 ISZERO PUSH2 0x693 JUMPI DUP2 PUSH1 0x20 ADD PUSH1 0x20 DUP3 MUL DUP1 CALLDATASIZE DUP4 CALLDATACOPY ADD SWAP1 POP JUMPDEST POP SWAP1 POP PUSH0 JUMPDEST DUP4 DUP2 LT ISZERO PUSH2 0x445 JUMPI PUSH1 0x4 DUP1 SLOAD PUSH0 SWAP2 DUP3 PUSH2 0x6B0 DUP4 PUSH2 0x151B JUMP JUMPDEST SWAP2 SWAP1 POP SSTORE SWAP1 POP PUSH2 0x6EA DUP8 DUP4 DUP2 MLOAD DUP2 LT PUSH2 0x6CB JUMPI PUSH2 0x6CB PUSH2 0x1533 JUMP JUMPDEST PUSH1 0x20 MUL PUSH1 0x20 ADD ADD MLOAD DUP3 PUSH1 0x1 PUSH1 0x40 MLOAD DUP1 PUSH1 0x20 ADD PUSH1 0x40 MSTORE DUP1 PUSH0 DUP2 MSTORE POP PUSH2 0x877 JUMP JUMPDEST PUSH2 0x6F4 DUP2 DUP8 PUSH2 0x8BD JUMP JUMPDEST DUP1 DUP4 DUP4 DUP2 MLOAD DUP2 LT PUSH2 0x707 JUMPI PUSH2 0x707 PUSH2 0x1533 JUMP JUMPDEST PUSH1 0x20 SWAP1 DUP2 MUL SWAP2 SWAP1 SWAP2 ADD ADD MSTORE POP PUSH1 0x1 ADD PUSH2 0x698 JUMP JUMPDEST PUSH0 PUSH2 0x724 PUSH2 0x839 JUMP JUMPDEST PUSH1 0x4 DUP1 SLOAD PUSH0 SWAP2 DUP3 PUSH2 0x734 DUP4 PUSH2 0x151B JUMP JUMPDEST SWAP2 SWAP1 POP SSTORE SWAP1 POP PUSH2 0x754 DUP6 DUP3 DUP6 PUSH1 0x40 MLOAD DUP1 PUSH1 0x20 ADD PUSH1 0x40 MSTORE DUP1 PUSH0 DUP2 MSTORE POP PUSH2 0x877 JUMP JUMPDEST PUSH2 0x75E DUP2 DUP6 PUSH2 0x8BD JUMP JUMPDEST SWAP5 SWAP4 POP POP POP POP JUMP JUMPDEST PUSH0 DUP2 DUP2 MSTORE PUSH1 0x7 PUSH1 0x20 MSTORE PUSH1 0x40 SWAP1 KECCAK256 DUP1 SLOAD PUSH1 0x60 SWAP2 SWAP1 PUSH2 0x45D SWAP1 PUSH2 0x14CF JUMP JUMPDEST PUSH1 0x1 PUSH1 0x1 PUSH1 0xA0 SHL SUB SWAP2 DUP3 AND PUSH0 SWAP1 DUP2 MSTORE PUSH1 0x1 PUSH1 0x20 SWAP1 DUP2 MSTORE PUSH1 0x40 DUP1 DUP4 KECCAK256 SWAP4 SWAP1 SWAP5 AND DUP3 MSTORE SWAP2 SWAP1 SWAP2 MSTORE KECCAK256 SLOAD PUSH1 0xFF AND SWAP1 JUMP JUMPDEST CALLER PUSH1 0x1 PUSH1 0x1 PUSH1 0xA0 SHL SUB DUP7 AND DUP2 EQ DUP1 ISZERO SWAP1 PUSH2 0x7D0 JUMPI POP PUSH2 0x7CE DUP7 DUP3 PUSH2 0x782 JUMP JUMPDEST ISZERO JUMPDEST ISZERO PUSH2 0x7F2 JUMPI DUP1 DUP7 PUSH1 0x40 MLOAD PUSH4 0x711BEC91 PUSH1 0xE1 SHL DUP2 MSTORE PUSH1 0x4 ADD PUSH2 0x523 SWAP3 SWAP2 SWAP1 PUSH2 0x1547 JUMP JUMPDEST PUSH2 0x539 DUP7 DUP7 DUP7 DUP7 DUP7 PUSH2 0xA31 JUMP JUMPDEST PUSH2 0x807 PUSH2 0x839 JUMP JUMPDEST PUSH1 0x1 PUSH1 0x1 PUSH1 0xA0 SHL SUB DUP2 AND PUSH2 0x830 JUMPI PUSH0 PUSH1 0x40 MLOAD PUSH4 0x1E4FBDF7 PUSH1 0xE0 SHL DUP2 MSTORE PUSH1 0x4 ADD PUSH2 0x523 SWAP2 SWAP1 PUSH2 0x1383 JUMP JUMPDEST PUSH2 0x2F7 DUP2 PUSH2 0x94C JUMP JUMPDEST CALLER PUSH2 0x842 PUSH2 0x61A JUMP JUMPDEST PUSH1 0x1 PUSH1 0x1 PUSH1 0xA0 SHL SUB AND EQ PUSH2 0x618 JUMPI CALLER PUSH1 0x40 MLOAD PUSH4 0x118CDAA7 PUSH1 0xE0 SHL DUP2 MSTORE PUSH1 0x4 ADD PUSH2 0x523 SWAP2 SWAP1 PUSH2 0x1383 JUMP JUMPDEST PUSH1 0x2 PUSH2 0x643 DUP3 DUP3 PUSH2 0x15A5 JUMP JUMPDEST PUSH1 0x1 PUSH1 0x1 PUSH1 0xA0 SHL SUB DUP5 AND PUSH2 0x8A0 JUMPI PUSH0 PUSH1 0x40 MLOAD PUSH4 0x2BFA23E7 PUSH1 0xE1 SHL DUP2 MSTORE PUSH1 0x4 ADD PUSH2 0x523 SWAP2 SWAP1 PUSH2 0x1383 JUMP JUMPDEST PUSH0 DUP1 PUSH2 0x8AC DUP6 DUP6 PUSH2 0xAA8 JUMP JUMPDEST SWAP2 POP SWAP2 POP PUSH2 0x539 PUSH0 DUP8 DUP5 DUP5 DUP8 PUSH2 0xAD0 JUMP JUMPDEST PUSH0 DUP3 DUP2 MSTORE PUSH1 0x7 PUSH1 0x20 MSTORE PUSH1 0x40 SWAP1 KECCAK256 PUSH2 0x8D4 DUP3 DUP3 PUSH2 0x15A5 JUMP JUMPDEST POP POP POP JUMP JUMPDEST PUSH1 0x1 PUSH1 0x1 PUSH1 0xA0 SHL SUB DUP5 AND PUSH2 0x902 JUMPI PUSH0 PUSH1 0x40 MLOAD PUSH4 0x2BFA23E7 PUSH1 0xE1 SHL DUP2 MSTORE PUSH1 0x4 ADD PUSH2 0x523 SWAP2 SWAP1 PUSH2 0x1383 JUMP JUMPDEST PUSH1 0x1 PUSH1 0x1 PUSH1 0xA0 SHL SUB DUP6 AND PUSH2 0x92A JUMPI PUSH0 PUSH1 0x40 MLOAD PUSH3 0x6A0D45 PUSH1 0xE2 SHL DUP2 MSTORE PUSH1 0x4 ADD PUSH2 0x523 SWAP2 SWAP1 PUSH2 0x1383 JUMP JUMPDEST PUSH2 0x937 DUP6 DUP6 DUP6 DUP6 DUP6 PUSH2 0xAD0 JUMP JUMPDEST POP POP POP POP POP JUMP JUMPDEST PUSH1 0x20 SWAP1 DUP2 MUL SWAP2 SWAP1 SWAP2 ADD ADD MLOAD SWAP1 JUMP JUMPDEST PUSH1 0x3 DUP1 SLOAD PUSH1 0x1 PUSH1 0x1 PUSH1 0xA0 SHL SUB DUP4 DUP2 AND PUSH1 0x1 PUSH1 0x1 PUSH1 0xA0 SHL SUB NOT DUP4 AND DUP2 OR SWAP1 SWAP4 SSTORE PUSH1 0x40 MLOAD SWAP2 AND SWAP2 SWAP1 DUP3 SWAP1 PUSH32 0x8BE0079C531659141344CD1FD0A4F28419497F9722A3DAAFE3B4186F6B6457E0 SWAP1 PUSH0 SWAP1 LOG3 POP POP JUMP JUMPDEST PUSH1 0x1 PUSH1 0x1 PUSH1 0xA0 SHL SUB DUP3 AND PUSH2 0x9C5 JUMPI PUSH0 PUSH1 0x40 MLOAD PUSH3 0xCED3E1 PUSH1 0xE8 SHL DUP2 MSTORE PUSH1 0x4 ADD PUSH2 0x523 SWAP2 SWAP1 PUSH2 0x1383 JUMP JUMPDEST PUSH1 0x1 PUSH1 0x1 PUSH1 0xA0 SHL SUB DUP4 DUP2 AND PUSH0 DUP2 DUP2 MSTORE PUSH1 0x1 PUSH1 0x20 SWAP1 DUP2 MSTORE PUSH1 0x40 DUP1 DUP4 KECCAK256 SWAP5 DUP8 AND DUP1 DUP5 MSTORE SWAP5 DUP3 MSTORE SWAP2 DUP3 SWAP1 KECCAK256 DUP1 SLOAD PUSH1 0xFF NOT AND DUP7 ISZERO ISZERO SWAP1 DUP2 OR SWAP1 SWAP2 SSTORE SWAP2 MLOAD SWAP2 DUP3 MSTORE PUSH32 0x17307EAB39AB6107E8899845AD3D59BD9653F200F220920489CA2B5937696C31 SWAP2 ADD PUSH1 0x40 MLOAD DUP1 SWAP2 SUB SWAP1 LOG3 POP POP POP JUMP JUMPDEST PUSH1 0x1 PUSH1 0x1 PUSH1 0xA0 SHL SUB DUP5 AND PUSH2 0xA5A JUMPI PUSH0 PUSH1 0x40 MLOAD PUSH4 0x2BFA23E7 PUSH1 0xE1 SHL DUP2 MSTORE PUSH1 0x4 ADD PUSH2 0x523 SWAP2 SWAP1 PUSH2 0x1383 JUMP JUMPDEST PUSH1 0x1 PUSH1 0x1 PUSH1 0xA0 SHL SUB DUP6 AND PUSH2 0xA82 JUMPI PUSH0 PUSH1 0x40 MLOAD PUSH3 0x6A0D45 PUSH1 0xE2 SHL DUP2 MSTORE PUSH1 0x4 ADD PUSH2 0x523 SWAP2 SWAP1 PUSH2 0x1383 JUMP JUMPDEST PUSH0 DUP1 PUSH2 0xA8E DUP6 DUP6 PUSH2 0xAA8 JUMP JUMPDEST SWAP2 POP SWAP2 POP PUSH2 0xA9F DUP8 DUP8 DUP5 DUP5 DUP8 PUSH2 0xAD0 JUMP JUMPDEST POP POP POP POP POP POP POP JUMP JUMPDEST PUSH1 0x40 DUP1 MLOAD PUSH1 0x1 DUP1 DUP3 MSTORE PUSH1 0x20 DUP3 ADD SWAP5 SWAP1 SWAP5 MSTORE DUP1 DUP3 ADD SWAP4 DUP5 MSTORE PUSH1 0x60 DUP2 ADD SWAP3 SWAP1 SWAP3 MSTORE PUSH1 0x80 DUP3 ADD SWAP1 MSTORE SWAP2 JUMP JUMPDEST PUSH2 0xADC DUP6 DUP6 DUP6 DUP6 PUSH2 0xB33 JUMP JUMPDEST PUSH1 0x1 PUSH1 0x1 PUSH1 0xA0 SHL SUB DUP5 AND ISZERO PUSH2 0x937 JUMPI DUP3 MLOAD CALLER SWAP1 PUSH1 0x1 SUB PUSH2 0xB25 JUMPI PUSH0 PUSH2 0xB01 DUP6 DUP3 PUSH2 0x93E JUMP JUMPDEST SWAP1 POP PUSH0 PUSH2 0xB0E DUP6 DUP3 PUSH2 0x93E JUMP JUMPDEST SWAP1 POP PUSH2 0xB1E DUP4 DUP10 DUP10 DUP6 DUP6 DUP10 PUSH2 0xD55 JUMP JUMPDEST POP POP PUSH2 0x539 JUMP JUMPDEST PUSH2 0x539 DUP2 DUP8 DUP8 DUP8 DUP8 DUP8 PUSH2 0xE64 JUMP JUMPDEST DUP1 MLOAD DUP3 MLOAD EQ PUSH2 0xB62 JUMPI DUP2 MLOAD DUP2 MLOAD PUSH1 0x40 MLOAD PUSH4 0x5B059991 PUSH1 0xE0 SHL DUP2 MSTORE PUSH1 0x4 DUP2 ADD SWAP3 SWAP1 SWAP3 MSTORE PUSH1 0x24 DUP3 ADD MSTORE PUSH1 0x44 ADD PUSH2 0x523 JUMP JUMPDEST CALLER PUSH0 JUMPDEST DUP4 MLOAD DUP2 LT ISZERO PUSH2 0xC6C JUMPI PUSH0 PUSH2 0xB79 DUP6 DUP4 PUSH2 0x93E JUMP JUMPDEST SWAP1 POP PUSH0 PUSH2 0xB86 DUP6 DUP5 PUSH2 0x93E JUMP JUMPDEST SWAP1 POP PUSH1 0x1 PUSH1 0x1 PUSH1 0xA0 SHL SUB DUP9 AND ISZERO PUSH2 0xC1E JUMPI PUSH0 DUP3 DUP2 MSTORE PUSH1 0x20 DUP2 DUP2 MSTORE PUSH1 0x40 DUP1 DUP4 KECCAK256 PUSH1 0x1 PUSH1 0x1 PUSH1 0xA0 SHL SUB DUP13 AND DUP5 MSTORE SWAP1 SWAP2 MSTORE SWAP1 KECCAK256 SLOAD DUP2 DUP2 LT ISZERO PUSH2 0xBF8 JUMPI PUSH1 0x40 MLOAD PUSH4 0x3DEE4C5 PUSH1 0xE0 SHL DUP2 MSTORE PUSH1 0x1 PUSH1 0x1 PUSH1 0xA0 SHL SUB DUP11 AND PUSH1 0x4 DUP3 ADD MSTORE PUSH1 0x24 DUP2 ADD DUP3 SWAP1 MSTORE PUSH1 0x44 DUP2 ADD DUP4 SWAP1 MSTORE PUSH1 0x64 DUP2 ADD DUP5 SWAP1 MSTORE PUSH1 0x84 ADD PUSH2 0x523 JUMP JUMPDEST PUSH0 DUP4 DUP2 MSTORE PUSH1 0x20 DUP2 DUP2 MSTORE PUSH1 0x40 DUP1 DUP4 KECCAK256 PUSH1 0x1 PUSH1 0x1 PUSH1 0xA0 SHL SUB DUP14 AND DUP5 MSTORE SWAP1 SWAP2 MSTORE SWAP1 KECCAK256 SWAP1 DUP3 SWAP1 SUB SWAP1 SSTORE JUMPDEST PUSH1 0x1 PUSH1 0x1 PUSH1 0xA0 SHL SUB DUP8 AND ISZERO PUSH2 0xC62 JUMPI PUSH0 DUP3 DUP2 MSTORE PUSH1 0x20 DUP2 DUP2 MSTORE PUSH1 0x40 DUP1 DUP4 KECCAK256 PUSH1 0x1 PUSH1 0x1 PUSH1 0xA0 SHL SUB DUP12 AND DUP5 MSTORE SWAP1 SWAP2 MSTORE DUP2 KECCAK256 DUP1 SLOAD DUP4 SWAP3 SWAP1 PUSH2 0xC5C SWAP1 DUP5 SWAP1 PUSH2 0x1660 JUMP JUMPDEST SWAP1 SWAP2 SSTORE POP POP JUMPDEST POP POP PUSH1 0x1 ADD PUSH2 0xB65 JUMP JUMPDEST POP DUP3 MLOAD PUSH1 0x1 SUB PUSH2 0xCF7 JUMPI PUSH0 PUSH2 0xC81 DUP5 DUP3 PUSH2 0x93E JUMP JUMPDEST SWAP1 POP PUSH0 PUSH2 0xC8E DUP5 DUP3 PUSH2 0x93E JUMP JUMPDEST SWAP1 POP DUP6 PUSH1 0x1 PUSH1 0x1 PUSH1 0xA0 SHL SUB AND DUP8 PUSH1 0x1 PUSH1 0x1 PUSH1 0xA0 SHL SUB AND DUP5 PUSH1 0x1 PUSH1 0x1 PUSH1 0xA0 SHL SUB AND PUSH32 0xC3D58168C5AE7397731D063D5BBF3D657854427343F4C083240F7AACAA2D0F62 DUP6 DUP6 PUSH1 0x40 MLOAD PUSH2 0xCE8 SWAP3 SWAP2 SWAP1 SWAP2 DUP3 MSTORE PUSH1 0x20 DUP3 ADD MSTORE PUSH1 0x40 ADD SWAP1 JUMP JUMPDEST PUSH1 0x40 MLOAD DUP1 SWAP2 SUB SWAP1 LOG4 POP POP PUSH2 0x937 JUMP JUMPDEST DUP4 PUSH1 0x1 PUSH1 0x1 PUSH1 0xA0 SHL SUB AND DUP6 PUSH1 0x1 PUSH1 0x1 PUSH1 0xA0 SHL SUB AND DUP3 PUSH1 0x1 PUSH1 0x1 PUSH1 0xA0 SHL SUB AND PUSH32 0x4A39DC06D4C0DBC64B70AF90FD698A233A518AA5D07E595D983B8C0526C8F7FB DUP7 DUP7 PUSH1 0x40 MLOAD PUSH2 0xD46 SWAP3 SWAP2 SWAP1 PUSH2 0x1673 JUMP JUMPDEST PUSH1 0x40 MLOAD DUP1 SWAP2 SUB SWAP1 LOG4 POP POP POP POP POP JUMP JUMPDEST PUSH1 0x1 PUSH1 0x1 PUSH1 0xA0 SHL SUB DUP5 AND EXTCODESIZE ISZERO PUSH2 0x539 JUMPI PUSH1 0x40 MLOAD PUSH4 0xF23A6E61 PUSH1 0xE0 SHL DUP2 MSTORE PUSH1 0x1 PUSH1 0x1 PUSH1 0xA0 SHL SUB DUP6 AND SWAP1 PUSH4 0xF23A6E61 SWAP1 PUSH2 0xD99 SWAP1 DUP10 SWAP1 DUP10 SWAP1 DUP9 SWAP1 DUP9 SWAP1 DUP9 SWAP1 PUSH1 0x4 ADD PUSH2 0x16A0 JUMP JUMPDEST PUSH1 0x20 PUSH1 0x40 MLOAD DUP1 DUP4 SUB DUP2 PUSH0 DUP8 GAS CALL SWAP3 POP POP POP DUP1 ISZERO PUSH2 0xDD3 JUMPI POP PUSH1 0x40 DUP1 MLOAD PUSH1 0x1F RETURNDATASIZE SWAP1 DUP2 ADD PUSH1 0x1F NOT AND DUP3 ADD SWAP1 SWAP3 MSTORE PUSH2 0xDD0 SWAP2 DUP2 ADD SWAP1 PUSH2 0x16E4 JUMP JUMPDEST PUSH1 0x1 JUMPDEST PUSH2 0xE31 JUMPI RETURNDATASIZE DUP1 DUP1 ISZERO PUSH2 0xE00 JUMPI PUSH1 0x40 MLOAD SWAP2 POP PUSH1 0x1F NOT PUSH1 0x3F RETURNDATASIZE ADD AND DUP3 ADD PUSH1 0x40 MSTORE RETURNDATASIZE DUP3 MSTORE RETURNDATASIZE PUSH0 PUSH1 0x20 DUP5 ADD RETURNDATACOPY PUSH2 0xE05 JUMP JUMPDEST PUSH1 0x60 SWAP2 POP JUMPDEST POP DUP1 MLOAD PUSH0 SUB PUSH2 0xE29 JUMPI DUP5 PUSH1 0x40 MLOAD PUSH4 0x2BFA23E7 PUSH1 0xE1 SHL DUP2 MSTORE PUSH1 0x4 ADD PUSH2 0x523 SWAP2 SWAP1 PUSH2 0x1383 JUMP JUMPDEST DUP1 MLOAD DUP2 PUSH1 0x20 ADD REVERT JUMPDEST PUSH1 0x1 PUSH1 0x1 PUSH1 0xE0 SHL SUB NOT DUP2 AND PUSH4 0xF23A6E61 PUSH1 0xE0 SHL EQ PUSH2 0xA9F JUMPI DUP5 PUSH1 0x40 MLOAD PUSH4 0x2BFA23E7 PUSH1 0xE1 SHL DUP2 MSTORE PUSH1 0x4 ADD PUSH2 0x523 SWAP2 SWAP1 PUSH2 0x1383 JUMP JUMPDEST PUSH1 0x1 PUSH1 0x1 PUSH1 0xA0 SHL SUB DUP5 AND EXTCODESIZE ISZERO PUSH2 0x539 JUMPI PUSH1 0x40 MLOAD PUSH4 0xBC197C81 PUSH1 0xE0 SHL DUP2 MSTORE PUSH1 0x1 PUSH1 0x1 PUSH1 0xA0 SHL SUB DUP6 AND SWAP1 PUSH4 0xBC197C81 SWAP1 PUSH2 0xEA8 SWAP1 DUP10 SWAP1 DUP10 SWAP1 DUP9 SWAP1 DUP9 SWAP1 DUP9 SWAP1 PUSH1 0x4 ADD PUSH2 0x16FF JUMP JUMPDEST PUSH1 0x20 PUSH1 0x40 MLOAD DUP1 DUP4 SUB DUP2 PUSH0 DUP8 GAS CALL SWAP3 POP POP POP DUP1 ISZERO PUSH2 0xEE2 JUMPI POP PUSH1 0x40 DUP1 MLOAD PUSH1 0x1F RETURNDATASIZE SWAP1 DUP2 ADD PUSH1 0x1F NOT AND DUP3 ADD SWAP1 SWAP3 MSTORE PUSH2 0xEDF SWAP2 DUP2 ADD SWAP1 PUSH2 0x16E4 JUMP JUMPDEST PUSH1 0x1 JUMPDEST PUSH2 0xF0F JUMPI RETURNDATASIZE DUP1 DUP1 ISZERO PUSH2 0xE00 JUMPI PUSH1 0x40 MLOAD SWAP2 POP PUSH1 0x1F NOT PUSH1 0x3F RETURNDATASIZE ADD AND DUP3 ADD PUSH1 0x40 MSTORE RETURNDATASIZE DUP3 MSTORE RETURNDATASIZE PUSH0 PUSH1 0x20 DUP5 ADD RETURNDATACOPY PUSH2 0xE05 JUMP JUMPDEST PUSH1 0x1 PUSH1 0x1 PUSH1 0xE0 SHL SUB NOT DUP2 AND PUSH4 0xBC197C81 PUSH1 0xE0 SHL EQ PUSH2 0xA9F JUMPI DUP5 PUSH1 0x40 MLOAD PUSH4 0x2BFA23E7 PUSH1 0xE1 SHL DUP2 MSTORE PUSH1 0x4 ADD PUSH2 0x523 SWAP2 SWAP1 PUSH2 0x1383 JUMP JUMPDEST DUP1 CALLDATALOAD PUSH1 0x1 PUSH1 0x1 PUSH1 0xA0 SHL SUB DUP2 AND DUP2 EQ PUSH2 0xF58 JUMPI PUSH0 DUP1 REVERT JUMPDEST SWAP2 SWAP1 POP JUMP JUMPDEST PUSH0 DUP1 PUSH1 0x40 DUP4 DUP6 SUB SLT ISZERO PUSH2 0xF6E JUMPI PUSH0 DUP1 REVERT JUMPDEST PUSH2 0xF77 DUP4 PUSH2 0xF42 JUMP JUMPDEST SWAP5 PUSH1 0x20 SWAP4 SWAP1 SWAP4 ADD CALLDATALOAD SWAP4 POP POP POP JUMP JUMPDEST PUSH1 0x1 PUSH1 0x1 PUSH1 0xE0 SHL SUB NOT DUP2 AND DUP2 EQ PUSH2 0x2F7 JUMPI PUSH0 DUP1 REVERT JUMPDEST PUSH0 PUSH1 0x20 DUP3 DUP5 SUB SLT ISZERO PUSH2 0xFAA JUMPI PUSH0 DUP1 REVERT JUMPDEST DUP2 CALLDATALOAD PUSH2 0xFB5 DUP2 PUSH2 0xF85 JUMP JUMPDEST SWAP4 SWAP3 POP POP POP JUMP JUMPDEST PUSH4 0x4E487B71 PUSH1 0xE0 SHL PUSH0 MSTORE PUSH1 0x41 PUSH1 0x4 MSTORE PUSH1 0x24 PUSH0 REVERT JUMPDEST PUSH1 0x40 MLOAD PUSH1 0x1F DUP3 ADD PUSH1 0x1F NOT AND DUP2 ADD PUSH1 0x1 PUSH1 0x1 PUSH1 0x40 SHL SUB DUP2 GT DUP3 DUP3 LT OR ISZERO PUSH2 0xFF8 JUMPI PUSH2 0xFF8 PUSH2 0xFBC JUMP JUMPDEST PUSH1 0x40 MSTORE SWAP2 SWAP1 POP JUMP JUMPDEST PUSH0 DUP3 PUSH1 0x1F DUP4 ADD SLT PUSH2 0x100F JUMPI PUSH0 DUP1 REVERT JUMPDEST DUP2 CALLDATALOAD PUSH1 0x1 PUSH1 0x1 PUSH1 0x40 SHL SUB DUP2 GT ISZERO PUSH2 0x1028 JUMPI PUSH2 0x1028 PUSH2 0xFBC JUMP JUMPDEST PUSH2 0x103B PUSH1 0x1F DUP3 ADD PUSH1 0x1F NOT AND PUSH1 0x20 ADD PUSH2 0xFD0 JUMP JUMPDEST DUP2 DUP2 MSTORE DUP5 PUSH1 0x20 DUP4 DUP7 ADD ADD GT ISZERO PUSH2 0x104F JUMPI PUSH0 DUP1 REVERT JUMPDEST DUP2 PUSH1 0x20 DUP6 ADD PUSH1 0x20 DUP4 ADD CALLDATACOPY PUSH0 SWAP2 DUP2 ADD PUSH1 0x20 ADD SWAP2 SWAP1 SWAP2 MSTORE SWAP4 SWAP3 POP POP POP JUMP JUMPDEST PUSH0 PUSH1 0x20 DUP3 DUP5 SUB SLT ISZERO PUSH2 0x107B JUMPI PUSH0 DUP1 REVERT JUMPDEST DUP2 CALLDATALOAD PUSH1 0x1 PUSH1 0x1 PUSH1 0x40 SHL SUB DUP2 GT ISZERO PUSH2 0x1090 JUMPI PUSH0 DUP1 REVERT JUMPDEST PUSH2 0x75E DUP5 DUP3 DUP6 ADD PUSH2 0x1000 JUMP JUMPDEST PUSH0 DUP2 MLOAD DUP1 DUP5 MSTORE DUP1 PUSH1 0x20 DUP5 ADD PUSH1 0x20 DUP7 ADD MCOPY PUSH0 PUSH1 0x20 DUP3 DUP7 ADD ADD MSTORE PUSH1 0x20 PUSH1 0x1F NOT PUSH1 0x1F DUP4 ADD AND DUP6 ADD ADD SWAP2 POP POP SWAP3 SWAP2 POP POP JUMP JUMPDEST PUSH1 0x20 DUP2 MSTORE PUSH0 PUSH2 0xFB5 PUSH1 0x20 DUP4 ADD DUP5 PUSH2 0x109C JUMP JUMPDEST PUSH0 DUP1 PUSH0 PUSH1 0x60 DUP5 DUP7 SUB SLT ISZERO PUSH2 0x10EE JUMPI PUSH0 DUP1 REVERT JUMPDEST PUSH2 0x10F7 DUP5 PUSH2 0xF42 JUMP JUMPDEST SWAP3 POP PUSH1 0x20 DUP5 ADD CALLDATALOAD PUSH1 0x1 PUSH1 0x1 PUSH1 0x40 SHL SUB DUP2 GT ISZERO PUSH2 0x1111 JUMPI PUSH0 DUP1 REVERT JUMPDEST PUSH2 0x111D DUP7 DUP3 DUP8 ADD PUSH2 0x1000 JUMP JUMPDEST SWAP3 POP POP PUSH1 0x40 DUP5 ADD CALLDATALOAD SWAP1 POP SWAP3 POP SWAP3 POP SWAP3 JUMP JUMPDEST PUSH0 DUP2 MLOAD DUP1 DUP5 MSTORE PUSH1 0x20 DUP1 DUP6 ADD SWAP5 POP PUSH1 0x20 DUP5 ADD PUSH0 JUMPDEST DUP4 DUP2 LT ISZERO PUSH2 0x115D JUMPI DUP2 MLOAD DUP8 MSTORE SWAP6 DUP3 ADD SWAP6 SWAP1 DUP3 ADD SWAP1 PUSH1 0x1 ADD PUSH2 0x1141 JUMP JUMPDEST POP SWAP5 SWAP6 SWAP5 POP POP POP POP POP JUMP JUMPDEST PUSH1 0x20 DUP2 MSTORE PUSH0 PUSH2 0xFB5 PUSH1 0x20 DUP4 ADD DUP5 PUSH2 0x112E JUMP JUMPDEST PUSH0 PUSH1 0x20 DUP3 DUP5 SUB SLT ISZERO PUSH2 0x118A JUMPI PUSH0 DUP1 REVERT JUMPDEST POP CALLDATALOAD SWAP2 SWAP1 POP JUMP JUMPDEST PUSH0 PUSH1 0x1 PUSH1 0x1 PUSH1 0x40 SHL SUB DUP3 GT ISZERO PUSH2 0x11A9 JUMPI PUSH2 0x11A9 PUSH2 0xFBC JUMP JUMPDEST POP PUSH1 0x5 SHL PUSH1 0x20 ADD SWAP1 JUMP JUMPDEST PUSH0 DUP3 PUSH1 0x1F DUP4 ADD SLT PUSH2 0x11C2 JUMPI PUSH0 DUP1 REVERT JUMPDEST DUP2 CALLDATALOAD PUSH1 0x20 PUSH2 0x11D7 PUSH2 0x11D2 DUP4 PUSH2 0x1191 JUMP JUMPDEST PUSH2 0xFD0 JUMP JUMPDEST DUP1 DUP4 DUP3 MSTORE PUSH1 0x20 DUP3 ADD SWAP2 POP PUSH1 0x20 DUP5 PUSH1 0x5 SHL DUP8 ADD ADD SWAP4 POP DUP7 DUP5 GT ISZERO PUSH2 0x11F8 JUMPI PUSH0 DUP1 REVERT JUMPDEST PUSH1 0x20 DUP7 ADD JUMPDEST DUP5 DUP2 LT ISZERO PUSH2 0x1214 JUMPI DUP1 CALLDATALOAD DUP4 MSTORE SWAP2 DUP4 ADD SWAP2 DUP4 ADD PUSH2 0x11FD JUMP JUMPDEST POP SWAP7 SWAP6 POP POP POP POP POP POP JUMP JUMPDEST PUSH0 DUP1 PUSH0 DUP1 PUSH0 PUSH1 0xA0 DUP7 DUP9 SUB SLT ISZERO PUSH2 0x1233 JUMPI PUSH0 DUP1 REVERT JUMPDEST PUSH2 0x123C DUP7 PUSH2 0xF42 JUMP JUMPDEST SWAP5 POP PUSH2 0x124A PUSH1 0x20 DUP8 ADD PUSH2 0xF42 JUMP JUMPDEST SWAP4 POP PUSH1 0x40 DUP7 ADD CALLDATALOAD PUSH1 0x1 PUSH1 0x1 PUSH1 0x40 SHL SUB DUP1 DUP3 GT ISZERO PUSH2 0x1265 JUMPI PUSH0 DUP1 REVERT JUMPDEST PUSH2 0x1271 DUP10 DUP4 DUP11 ADD PUSH2 0x11B3 JUMP JUMPDEST SWAP5 POP PUSH1 0x60 DUP9 ADD CALLDATALOAD SWAP2 POP DUP1 DUP3 GT ISZERO PUSH2 0x1286 JUMPI PUSH0 DUP1 REVERT JUMPDEST PUSH2 0x1292 DUP10 DUP4 DUP11 ADD PUSH2 0x11B3 JUMP JUMPDEST SWAP4 POP PUSH1 0x80 DUP9 ADD CALLDATALOAD SWAP2 POP DUP1 DUP3 GT ISZERO PUSH2 0x12A7 JUMPI PUSH0 DUP1 REVERT JUMPDEST POP PUSH2 0x12B4 DUP9 DUP3 DUP10 ADD PUSH2 0x1000 JUMP JUMPDEST SWAP2 POP POP SWAP3 SWAP6 POP SWAP3 SWAP6 SWAP1 SWAP4 POP JUMP JUMPDEST PUSH0 DUP3 PUSH1 0x1F DUP4 ADD SLT PUSH2 0x12D0 JUMPI PUSH0 DUP1 REVERT JUMPDEST DUP2 CALLDATALOAD PUSH1 0x20 PUSH2 0x12E0 PUSH2 0x11D2 DUP4 PUSH2 0x1191 JUMP JUMPDEST DUP1 DUP4 DUP3 MSTORE PUSH1 0x20 DUP3 ADD SWAP2 POP PUSH1 0x20 DUP5 PUSH1 0x5 SHL DUP8 ADD ADD SWAP4 POP DUP7 DUP5 GT ISZERO PUSH2 0x1301 JUMPI PUSH0 DUP1 REVERT JUMPDEST PUSH1 0x20 DUP7 ADD JUMPDEST DUP5 DUP2 LT ISZERO PUSH2 0x1214 JUMPI PUSH2 0x1317 DUP2 PUSH2 0xF42 JUMP JUMPDEST DUP4 MSTORE SWAP2 DUP4 ADD SWAP2 DUP4 ADD PUSH2 0x1306 JUMP JUMPDEST PUSH0 DUP1 PUSH1 0x40 DUP4 DUP6 SUB SLT ISZERO PUSH2 0x1335 JUMPI PUSH0 DUP1 REVERT JUMPDEST DUP3 CALLDATALOAD PUSH1 0x1 PUSH1 0x1 PUSH1 0x40 SHL SUB DUP1 DUP3 GT ISZERO PUSH2 0x134B JUMPI PUSH0 DUP1 REVERT JUMPDEST PUSH2 0x1357 DUP7 DUP4 DUP8 ADD PUSH2 0x12C1 JUMP JUMPDEST SWAP4 POP PUSH1 0x20 DUP6 ADD CALLDATALOAD SWAP2 POP DUP1 DUP3 GT ISZERO PUSH2 0x136C JUMPI PUSH0 DUP1 REVERT JUMPDEST POP PUSH2 0x1379 DUP6 DUP3 DUP7 ADD PUSH2 0x11B3 JUMP JUMPDEST SWAP2 POP POP SWAP3 POP SWAP3 SWAP1 POP JUMP JUMPDEST PUSH1 0x1 PUSH1 0x1 PUSH1 0xA0 SHL SUB SWAP2 SWAP1 SWAP2 AND DUP2 MSTORE PUSH1 0x20 ADD SWAP1 JUMP JUMPDEST PUSH0 DUP1 PUSH1 0x40 DUP4 DUP6 SUB SLT ISZERO PUSH2 0x13A8 JUMPI PUSH0 DUP1 REVERT JUMPDEST PUSH2 0x13B1 DUP4 PUSH2 0xF42 JUMP JUMPDEST SWAP2 POP PUSH1 0x20 DUP4 ADD CALLDATALOAD DUP1 ISZERO ISZERO DUP2 EQ PUSH2 0x13C5 JUMPI PUSH0 DUP1 REVERT JUMPDEST DUP1 SWAP2 POP POP SWAP3 POP SWAP3 SWAP1 POP JUMP JUMPDEST PUSH0 DUP1 PUSH0 PUSH1 0x60 DUP5 DUP7 SUB SLT ISZERO PUSH2 0x13E2 JUMPI PUSH0 DUP1 REVERT JUMPDEST DUP4 CALLDATALOAD PUSH1 0x1 PUSH1 0x1 PUSH1 0x40 SHL SUB DUP1 DUP3 GT ISZERO PUSH2 0x13F8 JUMPI PUSH0 DUP1 REVERT JUMPDEST PUSH2 0x1404 DUP8 DUP4 DUP9 ADD PUSH2 0x12C1 JUMP JUMPDEST SWAP5 POP PUSH1 0x20 DUP7 ADD CALLDATALOAD SWAP2 POP DUP1 DUP3 GT ISZERO PUSH2 0x1419 JUMPI PUSH0 DUP1 REVERT JUMPDEST POP PUSH2 0x111D DUP7 DUP3 DUP8 ADD PUSH2 0x1000 JUMP JUMPDEST PUSH0 DUP1 PUSH1 0x40 DUP4 DUP6 SUB SLT ISZERO PUSH2 0x1437 JUMPI PUSH0 DUP1 REVERT JUMPDEST PUSH2 0x1440 DUP4 PUSH2 0xF42 JUMP JUMPDEST SWAP2 POP PUSH2 0x144E PUSH1 0x20 DUP5 ADD PUSH2 0xF42 JUMP JUMPDEST SWAP1 POP SWAP3 POP SWAP3 SWAP1 POP JUMP JUMPDEST PUSH0 DUP1 PUSH0 DUP1 PUSH0 PUSH1 0xA0 DUP7 DUP9 SUB SLT ISZERO PUSH2 0x146B JUMPI PUSH0 DUP1 REVERT JUMPDEST PUSH2 0x1474 DUP7 PUSH2 0xF42 JUMP JUMPDEST SWAP5 POP PUSH2 0x1482 PUSH1 0x20 DUP8 ADD PUSH2 0xF42 JUMP JUMPDEST SWAP4 POP PUSH1 0x40 DUP7 ADD CALLDATALOAD SWAP3 POP PUSH1 0x60 DUP7 ADD CALLDATALOAD SWAP2 POP PUSH1 0x80 DUP7 ADD CALLDATALOAD PUSH1 0x1 PUSH1 0x1 PUSH1 0x40 SHL SUB DUP2 GT ISZERO PUSH2 0x14AA JUMPI PUSH0 DUP1 REVERT JUMPDEST PUSH2 0x12B4 DUP9 DUP3 DUP10 ADD PUSH2 0x1000 JUMP JUMPDEST PUSH0 PUSH1 0x20 DUP3 DUP5 SUB SLT ISZERO PUSH2 0x14C6 JUMPI PUSH0 DUP1 REVERT JUMPDEST PUSH2 0xFB5 DUP3 PUSH2 0xF42 JUMP JUMPDEST PUSH1 0x1 DUP2 DUP2 SHR SWAP1 DUP3 AND DUP1 PUSH2 0x14E3 JUMPI PUSH1 0x7F DUP3 AND SWAP2 POP JUMPDEST PUSH1 0x20 DUP3 LT DUP2 SUB PUSH2 0x1501 JUMPI PUSH4 0x4E487B71 PUSH1 0xE0 SHL PUSH0 MSTORE PUSH1 0x22 PUSH1 0x4 MSTORE PUSH1 0x24 PUSH0 REVERT JUMPDEST POP SWAP2 SWAP1 POP JUMP JUMPDEST PUSH4 0x4E487B71 PUSH1 0xE0 SHL PUSH0 MSTORE PUSH1 0x11 PUSH1 0x4 MSTORE PUSH1 0x24 PUSH0 REVERT JUMPDEST PUSH0 PUSH1 0x1 DUP3 ADD PUSH2 0x152C JUMPI PUSH2 0x152C PUSH2 0x1507 JUMP JUMPDEST POP PUSH1 0x1 ADD SWAP1 JUMP JUMPDEST PUSH4 0x4E487B71 PUSH1 0xE0 SHL PUSH0 MSTORE PUSH1 0x32 PUSH1 0x4 MSTORE PUSH1 0x24 PUSH0 REVERT JUMPDEST PUSH1 0x1 PUSH1 0x1 PUSH1 0xA0 SHL SUB SWAP3 DUP4 AND DUP2 MSTORE SWAP2 AND PUSH1 0x20 DUP3 ADD MSTORE PUSH1 0x40 ADD SWAP1 JUMP JUMPDEST PUSH1 0x1F DUP3 GT ISZERO PUSH2 0x8D4 JUMPI DUP1 PUSH0 MSTORE PUSH1 0x20 PUSH0 KECCAK256 PUSH1 0x1F DUP5 ADD PUSH1 0x5 SHR DUP2 ADD PUSH1 0x20 DUP6 LT ISZERO PUSH2 0x1586 JUMPI POP DUP1 JUMPDEST PUSH1 0x1F DUP5 ADD PUSH1 0x5 SHR DUP3 ADD SWAP2 POP JUMPDEST DUP2 DUP2 LT ISZERO PUSH2 0x937 JUMPI PUSH0 DUP2 SSTORE PUSH1 0x1 ADD PUSH2 0x1592 JUMP JUMPDEST DUP2 MLOAD PUSH1 0x1 PUSH1 0x1 PUSH1 0x40 SHL SUB DUP2 GT ISZERO PUSH2 0x15BE JUMPI PUSH2 0x15BE PUSH2 0xFBC JUMP JUMPDEST PUSH2 0x15D2 DUP2 PUSH2 0x15CC DUP5 SLOAD PUSH2 0x14CF JUMP JUMPDEST DUP5 PUSH2 0x1561 JUMP JUMPDEST PUSH1 0x20 DUP1 PUSH1 0x1F DUP4 GT PUSH1 0x1 DUP2 EQ PUSH2 0x1605 JUMPI PUSH0 DUP5 ISZERO PUSH2 0x15EE JUMPI POP DUP6 DUP4 ADD MLOAD JUMPDEST PUSH0 NOT PUSH1 0x3 DUP7 SWAP1 SHL SHR NOT AND PUSH1 0x1 DUP6 SWAP1 SHL OR DUP6 SSTORE PUSH2 0x539 JUMP JUMPDEST PUSH0 DUP6 DUP2 MSTORE PUSH1 0x20 DUP2 KECCAK256 PUSH1 0x1F NOT DUP7 AND SWAP2 JUMPDEST DUP3 DUP2 LT ISZERO PUSH2 0x1633 JUMPI DUP9 DUP7 ADD MLOAD DUP3 SSTORE SWAP5 DUP5 ADD SWAP5 PUSH1 0x1 SWAP1 SWAP2 ADD SWAP1 DUP5 ADD PUSH2 0x1614 JUMP JUMPDEST POP DUP6 DUP3 LT ISZERO PUSH2 0x1650 JUMPI DUP8 DUP6 ADD MLOAD PUSH0 NOT PUSH1 0x3 DUP9 SWAP1 SHL PUSH1 0xF8 AND SHR NOT AND DUP2 SSTORE JUMPDEST POP POP POP POP POP PUSH1 0x1 SWAP1 DUP2 SHL ADD SWAP1 SSTORE POP JUMP JUMPDEST DUP1 DUP3 ADD DUP1 DUP3 GT ISZERO PUSH2 0x291 JUMPI PUSH2 0x291 PUSH2 0x1507 JUMP JUMPDEST PUSH1 0x40 DUP2 MSTORE PUSH0 PUSH2 0x1685 PUSH1 0x40 DUP4 ADD DUP6 PUSH2 0x112E JUMP JUMPDEST DUP3 DUP2 SUB PUSH1 0x20 DUP5 ADD MSTORE PUSH2 0x1697 DUP2 DUP6 PUSH2 0x112E JUMP JUMPDEST SWAP6 SWAP5 POP POP POP POP POP JUMP JUMPDEST PUSH1 0x1 PUSH1 0x1 PUSH1 0xA0 SHL SUB DUP7 DUP2 AND DUP3 MSTORE DUP6 AND PUSH1 0x20 DUP3 ADD MSTORE PUSH1 0x40 DUP2 ADD DUP5 SWAP1 MSTORE PUSH1 0x60 DUP2 ADD DUP4 SWAP1 MSTORE PUSH1 0xA0 PUSH1 0x80 DUP3 ADD DUP2 SWAP1 MSTORE PUSH0 SWAP1 PUSH2 0x16D9 SWAP1 DUP4 ADD DUP5 PUSH2 0x109C JUMP JUMPDEST SWAP8 SWAP7 POP POP POP POP POP POP POP JUMP JUMPDEST PUSH0 PUSH1 0x20 DUP3 DUP5 SUB SLT ISZERO PUSH2 0x16F4 JUMPI PUSH0 DUP1 REVERT JUMPDEST DUP2 MLOAD PUSH2 0xFB5 DUP2 PUSH2 0xF85 JUMP JUMPDEST PUSH1 0x1 PUSH1 0x1 PUSH1 0xA0 SHL SUB DUP7 DUP2 AND DUP3 MSTORE DUP6 AND PUSH1 0x20 DUP3 ADD MSTORE PUSH1 0xA0 PUSH1 0x40 DUP3 ADD DUP2 SWAP1 MSTORE PUSH0 SWAP1 PUSH2 0x172A SWAP1 DUP4 ADD DUP7 PUSH2 0x112E JUMP JUMPDEST DUP3 DUP2 SUB PUSH1 0x60 DUP5 ADD MSTORE PUSH2 0x173C DUP2 DUP7 PUSH2 0x112E JUMP JUMPDEST SWAP1 POP DUP3 DUP2 SUB PUSH1 0x80 DUP5 ADD MSTORE PUSH2 0x1750 DUP2 DUP6 PUSH2 0x109C JUMP JUMPDEST SWAP9 SWAP8 POP POP POP POP POP POP POP POP JUMP INVALID LOG2 PUSH5 0x6970667358 0x22 SLT KECCAK256 0xC1 PUSH13 0xE25C1FC7AA4BC1065D5BA2A04C 0xD 0x27 0xE9 LOG3 PUSH23 0x7E90F4645F81764F28DED85964736F6C63430008190033 "
				},
				"gasEstimates": {
					"creation": {
						"codeDepositCost": "1206800",
						"executionCost": "infinite",
						"totalCost": "infinite"
					},
					"external": {
						"balanceOf(address,uint256)": "2611",
						"balanceOfBatch(address[],uint256[])": "infinite",
						"isApprovedForAll(address,address)": "infinite",
						"mint(address,string,uint256)": "infinite",
						"mintUniqueNFT(address,string,uint256)": "infinite",
						"mintUniqueNFT(address[],string,uint256)": "infinite",
						"name()": "infinite",
						"owner()": "2567",
						"renounceOwnership()": "infinite",
						"safeBatchTransferFrom(address,address,uint256[],uint256[],bytes)": "infinite",
						"safeTransferFrom(address,address,uint256,uint256,bytes)": "infinite",
						"setApprovalForAll(address,bool)": "26898",
						"setURI(string)": "infinite",
						"supportsInterface(bytes4)": "529",
						"symbol()": "infinite",
						"tokenId()": "2390",
						"tokenURI(uint256)": "infinite",
						"transferOwnership(address)": "28752",
						"uri(uint256)": "infinite"
					},
					"internal": {
						"_setTokenURI(uint256,string memory)": "infinite"
					}
				},
				"methodIdentifiers": {
					"balanceOf(address,uint256)": "00fdd58e",
					"balanceOfBatch(address[],uint256[])": "4e1273f4",
					"isApprovedForAll(address,address)": "e985e9c5",
					"mint(address,string,uint256)": "ba7aef43",
					"mintUniqueNFT(address,string,uint256)": "0a1e88d1",
					"mintUniqueNFT(address[],string,uint256)": "a7fd4a02",
					"name()": "06fdde03",
					"owner()": "8da5cb5b",
					"renounceOwnership()": "715018a6",
					"safeBatchTransferFrom(address,address,uint256[],uint256[],bytes)": "2eb2c2d6",
					"safeTransferFrom(address,address,uint256,uint256,bytes)": "f242432a",
					"setApprovalForAll(address,bool)": "a22cb465",
					"setURI(string)": "02fe5305",
					"supportsInterface(bytes4)": "01ffc9a7",
					"symbol()": "95d89b41",
					"tokenId()": "17d70f7c",
					"tokenURI(uint256)": "c87b56dd",
					"transferOwnership(address)": "f2fde38b",
					"uri(uint256)": "0e89341c"
				}
			},
			"storageLayout": {
				"storage": [
					{
						"astId": 326,
						"contract": "contracts/NftV1Contract.sol:NftV1Collection",
						"label": "_balances",
						"offset": 0,
						"slot": "0",
						"type": "t_mapping(t_uint256,t_mapping(t_address,t_uint256))"
					},
					{
						"astId": 332,
						"contract": "contracts/NftV1Contract.sol:NftV1Collection",
						"label": "_operatorApprovals",
						"offset": 0,
						"slot": "1",
						"type": "t_mapping(t_address,t_mapping(t_address,t_bool))"
					},
					{
						"astId": 334,
						"contract": "contracts/NftV1Contract.sol:NftV1Collection",
						"label": "_uri",
						"offset": 0,
						"slot": "2",
						"type": "t_string_storage"
					},
					{
						"astId": 8,
						"contract": "contracts/NftV1Contract.sol:NftV1Collection",
						"label": "_owner",
						"offset": 0,
						"slot": "3",
						"type": "t_address"
					},
					{
						"astId": 2940,
						"contract": "contracts/NftV1Contract.sol:NftV1Collection",
						"label": "_tokenId",
						"offset": 0,
						"slot": "4",
						"type": "t_uint256"
					},
					{
						"astId": 2942,
						"contract": "contracts/NftV1Contract.sol:NftV1Collection",
						"label": "_name",
						"offset": 0,
						"slot": "5",
						"type": "t_string_storage"
					},
					{
						"astId": 2944,
						"contract": "contracts/NftV1Contract.sol:NftV1Collection",
						"label": "_symbol",
						"offset": 0,
						"slot": "6",
						"type": "t_string_storage"
					},
					{
						"astId": 2948,
						"contract": "contracts/NftV1Contract.sol:NftV1Collection",
						"label": "_tokenURIs",
						"offset": 0,
						"slot": "7",
						"type": "t_mapping(t_uint256,t_string_storage)"
					}
				],
				"types": {
					"t_address": {
						"encoding": "inplace",
						"label": "address",
						"numberOfBytes": "20"
					},
					"t_bool": {
						"encoding": "inplace",
						"label": "bool",
						"numberOfBytes": "1"
					},
					"t_mapping(t_address,t_bool)": {
						"encoding": "mapping",
						"key": "t_address",
						"label": "mapping(address => bool)",
						"numberOfBytes": "32",
						"value": "t_bool"
					},
					"t_mapping(t_address,t_mapping(t_address,t_bool))": {
						"encoding": "mapping",
						"key": "t_address",
						"label": "mapping(address => mapping(address => bool))",
						"numberOfBytes": "32",
						"value": "t_mapping(t_address,t_bool)"
					},
					"t_mapping(t_address,t_uint256)": {
						"encoding": "mapping",
						"key": "t_address",
						"label": "mapping(address => uint256)",
						"numberOfBytes": "32",
						"value": "t_uint256"
					},
					"t_mapping(t_uint256,t_mapping(t_address,t_uint256))": {
						"encoding": "mapping",
						"key": "t_uint256",
						"label": "mapping(uint256 => mapping(address => uint256))",
						"numberOfBytes": "32",
						"value": "t_mapping(t_address,t_uint256)"
					},
					"t_mapping(t_uint256,t_string_storage)": {
						"encoding": "mapping",
						"key": "t_uint256",
						"label": "mapping(uint256 => string)",
						"numberOfBytes": "32",
						"value": "t_string_storage"
					},
					"t_string_storage": {
						"encoding": "bytes",
						"label": "string",
						"numberOfBytes": "32"
					},
					"t_uint256": {
						"encoding": "inplace",
						"label": "uint256",
						"numberOfBytes": "32"
					}
				}
			},
			"userdoc": {
				"kind": "user",
				"methods": {},
				"version": 1
			}
		}
	}
}